{"contracts/StandardToken_flattened.sol":{"StandardToken":{"abi":[{"inputs":[{"internalType":"string","name":"name_","type":"string"},{"internalType":"string","name":"symbol_","type":"string"},{"internalType":"uint8","name":"decimals_","type":"uint8"},{"internalType":"uint256","name":"totalSupply_","type":"uint256"},{"internalType":"address","name":"serviceFeeReceiver_","type":"address"},{"internalType":"uint256","name":"serviceFee_","type":"uint256"}],"stateMutability":"payable","type":"constructor"},{"inputs":[{"internalType":"address","name":"owner","type":"address"}],"name":"OwnableInvalidOwner","type":"error"},{"inputs":[{"internalType":"address","name":"account","type":"address"}],"name":"OwnableUnauthorizedAccount","type":"error"},{"anonymous":false,"inputs":[{"indexed":true,"internalType":"address","name":"owner","type":"address"},{"indexed":true,"internalType":"address","name":"spender","type":"address"},{"indexed":false,"internalType":"uint256","name":"value","type":"uint256"}],"name":"Approval","type":"event"},{"anonymous":false,"inputs":[{"indexed":true,"internalType":"address","name":"previousOwner","type":"address"},{"indexed":true,"internalType":"address","name":"newOwner","type":"address"}],"name":"OwnershipTransferred","type":"event"},{"anonymous":false,"inputs":[{"indexed":true,"internalType":"address","name":"owner","type":"address"},{"indexed":true,"internalType":"address","name":"token","type":"address"},{"indexed":false,"internalType":"enum TokenType","name":"tokenType","type":"uint8"},{"indexed":false,"internalType":"uint256","name":"version","type":"uint256"}],"name":"TokenCreated","type":"event"},{"anonymous":false,"inputs":[{"indexed":true,"internalType":"address","name":"from","type":"address"},{"indexed":true,"internalType":"address","name":"to","type":"address"},{"indexed":false,"internalType":"uint256","name":"value","type":"uint256"}],"name":"Transfer","type":"event"},{"inputs":[],"name":"VERSION","outputs":[{"internalType":"uint256","name":"","type":"uint256"}],"stateMutability":"view","type":"function"},{"inputs":[{"internalType":"address","name":"owner","type":"address"},{"internalType":"address","name":"spender","type":"address"}],"name":"allowance","outputs":[{"internalType":"uint256","name":"","type":"uint256"}],"stateMutability":"view","type":"function"},{"inputs":[{"internalType":"address","name":"spender","type":"address"},{"internalType":"uint256","name":"amount","type":"uint256"}],"name":"approve","outputs":[{"internalType":"bool","name":"","type":"bool"}],"stateMutability":"nonpayable","type":"function"},{"inputs":[{"internalType":"address","name":"account","type":"address"}],"name":"balanceOf","outputs":[{"internalType":"uint256","name":"","type":"uint256"}],"stateMutability":"view","type":"function"},{"inputs":[],"name":"decimals","outputs":[{"internalType":"uint8","name":"","type":"uint8"}],"stateMutability":"view","type":"function"},{"inputs":[{"internalType":"address","name":"spender","type":"address"},{"internalType":"uint256","name":"subtractedValue","type":"uint256"}],"name":"decreaseAllowance","outputs":[{"internalType":"bool","name":"","type":"bool"}],"stateMutability":"nonpayable","type":"function"},{"inputs":[{"internalType":"address","name":"spender","type":"address"},{"internalType":"uint256","name":"addedValue","type":"uint256"}],"name":"increaseAllowance","outputs":[{"internalType":"bool","name":"","type":"bool"}],"stateMutability":"nonpayable","type":"function"},{"inputs":[],"name":"name","outputs":[{"internalType":"string","name":"","type":"string"}],"stateMutability":"view","type":"function"},{"inputs":[],"name":"owner","outputs":[{"internalType":"address","name":"","type":"address"}],"stateMutability":"view","type":"function"},{"inputs":[],"name":"renounceOwnership","outputs":[],"stateMutability":"nonpayable","type":"function"},{"inputs":[],"name":"symbol","outputs":[{"internalType":"string","name":"","type":"string"}],"stateMutability":"view","type":"function"},{"inputs":[],"name":"totalSupply","outputs":[{"internalType":"uint256","name":"","type":"uint256"}],"stateMutability":"view","type":"function"},{"inputs":[{"internalType":"address","name":"recipient","type":"address"},{"internalType":"uint256","name":"amount","type":"uint256"}],"name":"transfer","outputs":[{"internalType":"bool","name":"","type":"bool"}],"stateMutability":"nonpayable","type":"function"},{"inputs":[{"internalType":"address","name":"sender","type":"address"},{"internalType":"address","name":"recipient","type":"address"},{"internalType":"uint256","name":"amount","type":"uint256"}],"name":"transferFrom","outputs":[{"internalType":"bool","name":"","type":"bool"}],"stateMutability":"nonpayable","type":"function"},{"inputs":[{"internalType":"address","name":"newOwner","type":"address"}],"name":"transferOwnership","outputs":[],"stateMutability":"nonpayable","type":"function"}],"devdoc":{"errors":{"OwnableInvalidOwner(address)":[{"details":"The owner is not a valid owner account. (eg. `address(0)`)"}],"OwnableUnauthorizedAccount(address)":[{"details":"The caller account is not authorized to perform an operation."}]},"events":{"Approval(address,address,uint256)":{"details":"Emitted when the allowance of a `spender` for an `owner` is set by a call to {approve}. `value` is the new allowance."},"Transfer(address,address,uint256)":{"details":"Emitted when `value` tokens are moved from one account (`from`) to another (`to`). Note that `value` may be zero."}},"kind":"dev","methods":{"allowance(address,address)":{"details":"See {IERC20-allowance}."},"approve(address,uint256)":{"details":"See {IERC20-approve}. Requirements: - `spender` cannot be the zero address."},"balanceOf(address)":{"details":"See {IERC20-balanceOf}."},"decimals()":{"details":"Returns the number of decimals used to get its user representation. For example, if `decimals` equals `2`, a balance of `505` tokens should be displayed to a user as `5,05` (`505 / 10 ** 2`). Tokens usually opt for a value of 18, imitating the relationship between Ether and Wei. This is the value {ERC20} uses, unless {_setupDecimals} is called. NOTE: This information is only used for _display_ purposes: it in no way affects any of the arithmetic of the contract, including {IERC20-balanceOf} and {IERC20-transfer}."},"decreaseAllowance(address,uint256)":{"details":"Atomically decreases the allowance granted to `spender` by the caller. This is an alternative to {approve} that can be used as a mitigation for problems described in {IERC20-approve}. Emits an {Approval} event indicating the updated allowance. Requirements: - `spender` cannot be the zero address. - `spender` must have allowance for the caller of at least `subtractedValue`."},"increaseAllowance(address,uint256)":{"details":"Atomically increases the allowance granted to `spender` by the caller. This is an alternative to {approve} that can be used as a mitigation for problems described in {IERC20-approve}. Emits an {Approval} event indicating the updated allowance. Requirements: - `spender` cannot be the zero address."},"name()":{"details":"Returns the name of the token."},"owner()":{"details":"Returns the address of the current owner."},"renounceOwnership()":{"details":"Leaves the contract without owner. It will not be possible to call `onlyOwner` functions. Can only be called by the current owner. NOTE: Renouncing ownership will leave the contract without an owner, thereby disabling any functionality that is only available to the owner."},"symbol()":{"details":"Returns the symbol of the token, usually a shorter version of the name."},"totalSupply()":{"details":"See {IERC20-totalSupply}."},"transfer(address,uint256)":{"details":"See {IERC20-transfer}. Requirements: - `recipient` cannot be the zero address. - the caller must have a balance of at least `amount`."},"transferFrom(address,address,uint256)":{"details":"See {IERC20-transferFrom}. Emits an {Approval} event indicating the updated allowance. This is not required by the EIP. See the note at the beginning of {ERC20}. Requirements: - `sender` and `recipient` cannot be the zero address. - `sender` must have a balance of at least `amount`. - the caller must have allowance for ``sender``'s tokens of at least `amount`."},"transferOwnership(address)":{"details":"Transfers ownership of the contract to a new account (`newOwner`). Can only be called by the current owner."}},"version":1},"evm":{"assembly":"    /* \"contracts/StandardToken_flattened.sol\":14647:25189  contract StandardToken is IERC20, Ownable, BaseToken {... */\n  mstore(0x40, 0x80)\n    /* \"contracts/StandardToken_flattened.sol\":15037:15547  constructor(... */\n  mload(0x40)\n  sub(codesize, bytecodeSize)\n  dup1\n  bytecodeSize\n  dup4\n  codecopy\n  dup2\n  dup2\n  add\n  0x40\n  mstore\n  dup2\n  add\n  swap1\n  tag_1\n  swap2\n  swap1\n  tag_2\n  jump\t// in\ntag_1:\n    /* \"contracts/StandardToken_flattened.sol\":15259:15269  msg.sender */\n  caller\n    /* \"contracts/StandardToken_flattened.sol\":5323:5324  0 */\n  0x00\n    /* \"contracts/StandardToken_flattened.sol\":5299:5325  initialOwner == address(0) */\n  0xffffffffffffffffffffffffffffffffffffffff\n  and\n    /* \"contracts/StandardToken_flattened.sol\":5299:5311  initialOwner */\n  dup2\n    /* \"contracts/StandardToken_flattened.sol\":5299:5325  initialOwner == address(0) */\n  0xffffffffffffffffffffffffffffffffffffffff\n  and\n  sub\n    /* \"contracts/StandardToken_flattened.sol\":5295:5392  if (initialOwner == address(0)) {... */\n  tag_6\n  jumpi\n    /* \"contracts/StandardToken_flattened.sol\":5377:5378  0 */\n  0x00\n    /* \"contracts/StandardToken_flattened.sol\":5349:5380  OwnableInvalidOwner(address(0)) */\n  mload(0x40)\n  0x1e4fbdf700000000000000000000000000000000000000000000000000000000\n  dup2\n  mstore\n  0x04\n  add\n  tag_7\n  swap2\n  swap1\n  tag_8\n  jump\t// in\ntag_7:\n  mload(0x40)\n  dup1\n  swap2\n  sub\n  swap1\n  revert\n    /* \"contracts/StandardToken_flattened.sol\":5295:5392  if (initialOwner == address(0)) {... */\ntag_6:\n    /* \"contracts/StandardToken_flattened.sol\":5402:5434  _transferOwnership(initialOwner) */\n  tag_9\n    /* \"contracts/StandardToken_flattened.sol\":5421:5433  initialOwner */\n  dup2\n    /* \"contracts/StandardToken_flattened.sol\":5402:5420  _transferOwnership */\n  shl(0x20, tag_10)\n    /* \"contracts/StandardToken_flattened.sol\":5402:5434  _transferOwnership(initialOwner) */\n  0x20\n  shr\n  jump\t// in\ntag_9:\n    /* \"contracts/StandardToken_flattened.sol\":5250:5442  constructor(address initialOwner) {... */\n  pop\n    /* \"contracts/StandardToken_flattened.sol\":15289:15294  name_ */\n  dup6\n    /* \"contracts/StandardToken_flattened.sol\":15281:15286  _name */\n  0x03\n    /* \"contracts/StandardToken_flattened.sol\":15281:15294  _name = name_ */\n  swap1\n  dup2\n  tag_12\n  swap2\n  swap1\n  tag_13\n  jump\t// in\ntag_12:\n  pop\n    /* \"contracts/StandardToken_flattened.sol\":15315:15322  symbol_ */\n  dup5\n    /* \"contracts/StandardToken_flattened.sol\":15305:15312  _symbol */\n  0x04\n    /* \"contracts/StandardToken_flattened.sol\":15305:15322  _symbol = symbol_ */\n  swap1\n  dup2\n  tag_14\n  swap2\n  swap1\n  tag_13\n  jump\t// in\ntag_14:\n  pop\n    /* \"contracts/StandardToken_flattened.sol\":15345:15354  decimals_ */\n  dup4\n    /* \"contracts/StandardToken_flattened.sol\":15333:15342  _decimals */\n  0x05\n  0x00\n    /* \"contracts/StandardToken_flattened.sol\":15333:15354  _decimals = decimals_ */\n  0x0100\n  exp\n  dup2\n  sload\n  dup2\n  0xff\n  mul\n  not\n  and\n  swap1\n  dup4\n  0xff\n  and\n  mul\n  or\n  swap1\n  sstore\n  pop\n    /* \"contracts/StandardToken_flattened.sol\":15365:15393  _mint(owner(), totalSupply_) */\n  tag_15\n    /* \"contracts/StandardToken_flattened.sol\":15371:15378  owner() */\n  tag_16\n    /* \"contracts/StandardToken_flattened.sol\":15371:15376  owner */\n  shl(0x20, tag_17)\n    /* \"contracts/StandardToken_flattened.sol\":15371:15378  owner() */\n  0x20\n  shr\n  jump\t// in\ntag_16:\n    /* \"contracts/StandardToken_flattened.sol\":15380:15392  totalSupply_ */\n  dup5\n    /* \"contracts/StandardToken_flattened.sol\":15365:15370  _mint */\n  shl(0x20, tag_18)\n    /* \"contracts/StandardToken_flattened.sol\":15365:15393  _mint(owner(), totalSupply_) */\n  0x20\n  shr\n  jump\t// in\ntag_15:\n    /* \"contracts/StandardToken_flattened.sol\":15441:15445  this */\n  address\n    /* \"contracts/StandardToken_flattened.sol\":15411:15476  TokenCreated(owner(), address(this), TokenType.standard, VERSION) */\n  0xffffffffffffffffffffffffffffffffffffffff\n  and\n    /* \"contracts/StandardToken_flattened.sol\":15424:15431  owner() */\n  tag_19\n    /* \"contracts/StandardToken_flattened.sol\":15424:15429  owner */\n  shl(0x20, tag_17)\n    /* \"contracts/StandardToken_flattened.sol\":15424:15431  owner() */\n  0x20\n  shr\n  jump\t// in\ntag_19:\n    /* \"contracts/StandardToken_flattened.sol\":15411:15476  TokenCreated(owner(), address(this), TokenType.standard, VERSION) */\n  0xffffffffffffffffffffffffffffffffffffffff\n  and\n  0x56358b41df5fa59f5639228f0930994cbdde383c8a8fd74e06c04e1deebe3562\n    /* \"contracts/StandardToken_flattened.sol\":15448:15466  TokenType.standard */\n  0x00\n    /* \"contracts/StandardToken_flattened.sol\":14776:14777  1 */\n  0x01\n    /* \"contracts/StandardToken_flattened.sol\":15411:15476  TokenCreated(owner(), address(this), TokenType.standard, VERSION) */\n  mload(0x40)\n  tag_20\n  swap3\n  swap2\n  swap1\n  tag_21\n  jump\t// in\ntag_20:\n  mload(0x40)\n  dup1\n  swap2\n  sub\n  swap1\n  log3\n    /* \"contracts/StandardToken_flattened.sol\":15497:15516  serviceFeeReceiver_ */\n  dup2\n    /* \"contracts/StandardToken_flattened.sol\":15489:15526  payable(serviceFeeReceiver_).transfer */\n  0xffffffffffffffffffffffffffffffffffffffff\n  and\n    /* \"contracts/StandardToken_flattened.sol\":15489:15539  payable(serviceFeeReceiver_).transfer(serviceFee_) */\n  0x08fc\n    /* \"contracts/StandardToken_flattened.sol\":15527:15538  serviceFee_ */\n  dup3\n    /* \"contracts/StandardToken_flattened.sol\":15489:15539  payable(serviceFeeReceiver_).transfer(serviceFee_) */\n  swap1\n  dup2\n  iszero\n  mul\n  swap1\n  mload(0x40)\n  0x00\n  mload(0x40)\n  dup1\n  dup4\n  sub\n  dup2\n  dup6\n  dup9\n  dup9\n  call\n  swap4\n  pop\n  pop\n  pop\n  pop\n  iszero\n  dup1\n  iszero\n  tag_23\n  jumpi\n  returndatasize\n  0x00\n  dup1\n  returndatacopy\n  revert(0x00, returndatasize)\ntag_23:\n  pop\n    /* \"contracts/StandardToken_flattened.sol\":15037:15547  constructor(... */\n  pop\n  pop\n  pop\n  pop\n  pop\n  pop\n    /* \"contracts/StandardToken_flattened.sol\":14647:25189  contract StandardToken is IERC20, Ownable, BaseToken {... */\n  jump(tag_24)\n    /* \"contracts/StandardToken_flattened.sol\":6994:7185  function _transferOwnership(address newOwner) internal virtual {... */\ntag_10:\n    /* \"contracts/StandardToken_flattened.sol\":7068:7084  address oldOwner */\n  0x00\n    /* \"contracts/StandardToken_flattened.sol\":7087:7093  _owner */\n  dup1\n  0x00\n  swap1\n  sload\n  swap1\n  0x0100\n  exp\n  swap1\n  div\n  0xffffffffffffffffffffffffffffffffffffffff\n  and\n    /* \"contracts/StandardToken_flattened.sol\":7068:7093  address oldOwner = _owner */\n  swap1\n  pop\n    /* \"contracts/StandardToken_flattened.sol\":7113:7121  newOwner */\n  dup2\n    /* \"contracts/StandardToken_flattened.sol\":7104:7110  _owner */\n  0x00\n  dup1\n    /* \"contracts/StandardToken_flattened.sol\":7104:7121  _owner = newOwner */\n  0x0100\n  exp\n  dup2\n  sload\n  dup2\n  0xffffffffffffffffffffffffffffffffffffffff\n  mul\n  not\n  and\n  swap1\n  dup4\n  0xffffffffffffffffffffffffffffffffffffffff\n  and\n  mul\n  or\n  swap1\n  sstore\n  pop\n    /* \"contracts/StandardToken_flattened.sol\":7168:7176  newOwner */\n  dup2\n    /* \"contracts/StandardToken_flattened.sol\":7137:7177  OwnershipTransferred(oldOwner, newOwner) */\n  0xffffffffffffffffffffffffffffffffffffffff\n  and\n    /* \"contracts/StandardToken_flattened.sol\":7158:7166  oldOwner */\n  dup2\n    /* \"contracts/StandardToken_flattened.sol\":7137:7177  OwnershipTransferred(oldOwner, newOwner) */\n  0xffffffffffffffffffffffffffffffffffffffff\n  and\n  0x8be0079c531659141344cd1fd0a4f28419497f9722a3daafe3b4186f6b6457e0\n  mload(0x40)\n  mload(0x40)\n  dup1\n  swap2\n  sub\n  swap1\n  log3\n    /* \"contracts/StandardToken_flattened.sol\":7057:7185  {... */\n  pop\n    /* \"contracts/StandardToken_flattened.sol\":6994:7185  function _transferOwnership(address newOwner) internal virtual {... */\n  pop\n  jump\t// out\n    /* \"contracts/StandardToken_flattened.sol\":5681:5768  function owner() public view virtual returns (address) {... */\ntag_17:\n    /* \"contracts/StandardToken_flattened.sol\":5727:5734  address */\n  0x00\n    /* \"contracts/StandardToken_flattened.sol\":5754:5760  _owner */\n  dup1\n  0x00\n  swap1\n  sload\n  swap1\n  0x0100\n  exp\n  swap1\n  div\n  0xffffffffffffffffffffffffffffffffffffffff\n  and\n    /* \"contracts/StandardToken_flattened.sol\":5747:5760  return _owner */\n  swap1\n  pop\n    /* \"contracts/StandardToken_flattened.sol\":5681:5768  function owner() public view virtual returns (address) {... */\n  swap1\n  jump\t// out\n    /* \"contracts/StandardToken_flattened.sol\":22044:22422  function _mint(address account, uint256 amount) internal virtual {... */\ntag_18:\n    /* \"contracts/StandardToken_flattened.sol\":22147:22148  0 */\n  0x00\n    /* \"contracts/StandardToken_flattened.sol\":22128:22149  account != address(0) */\n  0xffffffffffffffffffffffffffffffffffffffff\n  and\n    /* \"contracts/StandardToken_flattened.sol\":22128:22135  account */\n  dup3\n    /* \"contracts/StandardToken_flattened.sol\":22128:22149  account != address(0) */\n  0xffffffffffffffffffffffffffffffffffffffff\n  and\n  sub\n    /* \"contracts/StandardToken_flattened.sol\":22120:22185  require(account != address(0), \"ERC20: mint to the zero address\") */\n  tag_28\n  jumpi\n  mload(0x40)\n  0x08c379a000000000000000000000000000000000000000000000000000000000\n  dup2\n  mstore\n  0x04\n  add\n  tag_29\n  swap1\n  tag_30\n  jump\t// in\ntag_29:\n  mload(0x40)\n  dup1\n  swap2\n  sub\n  swap1\n  revert\ntag_28:\n    /* \"contracts/StandardToken_flattened.sol\":22198:22247  _beforeTokenTransfer(address(0), account, amount) */\n  tag_31\n    /* \"contracts/StandardToken_flattened.sol\":22227:22228  0 */\n  0x00\n    /* \"contracts/StandardToken_flattened.sol\":22231:22238  account */\n  dup4\n    /* \"contracts/StandardToken_flattened.sol\":22240:22246  amount */\n  dup4\n    /* \"contracts/StandardToken_flattened.sol\":22198:22218  _beforeTokenTransfer */\n  shl(0x20, tag_32)\n    /* \"contracts/StandardToken_flattened.sol\":22198:22247  _beforeTokenTransfer(address(0), account, amount) */\n  0x20\n  shr\n  jump\t// in\ntag_31:\n    /* \"contracts/StandardToken_flattened.sol\":22275:22299  _totalSupply.add(amount) */\n  tag_33\n    /* \"contracts/StandardToken_flattened.sol\":22292:22298  amount */\n  dup2\n    /* \"contracts/StandardToken_flattened.sol\":22275:22287  _totalSupply */\n  sload(0x06)\n    /* \"contracts/StandardToken_flattened.sol\":22275:22291  _totalSupply.add */\n  shl(0x20, tag_34)\n  swap1\n    /* \"contracts/StandardToken_flattened.sol\":22275:22299  _totalSupply.add(amount) */\n  swap2\n  swap1\n  0x20\n  shr\n  jump\t// in\ntag_33:\n    /* \"contracts/StandardToken_flattened.sol\":22260:22272  _totalSupply */\n  0x06\n    /* \"contracts/StandardToken_flattened.sol\":22260:22299  _totalSupply = _totalSupply.add(amount) */\n  dup2\n  swap1\n  sstore\n  pop\n    /* \"contracts/StandardToken_flattened.sol\":22331:22361  _balances[account].add(amount) */\n  tag_35\n    /* \"contracts/StandardToken_flattened.sol\":22354:22360  amount */\n  dup2\n    /* \"contracts/StandardToken_flattened.sol\":22331:22340  _balances */\n  0x01\n    /* \"contracts/StandardToken_flattened.sol\":22331:22349  _balances[account] */\n  0x00\n    /* \"contracts/StandardToken_flattened.sol\":22341:22348  account */\n  dup6\n    /* \"contracts/StandardToken_flattened.sol\":22331:22349  _balances[account] */\n  0xffffffffffffffffffffffffffffffffffffffff\n  and\n  0xffffffffffffffffffffffffffffffffffffffff\n  and\n  dup2\n  mstore\n  0x20\n  add\n  swap1\n  dup2\n  mstore\n  0x20\n  add\n  0x00\n  keccak256\n  sload\n    /* \"contracts/StandardToken_flattened.sol\":22331:22353  _balances[account].add */\n  shl(0x20, tag_34)\n  swap1\n    /* \"contracts/StandardToken_flattened.sol\":22331:22361  _balances[account].add(amount) */\n  swap2\n  swap1\n  0x20\n  shr\n  jump\t// in\ntag_35:\n    /* \"contracts/StandardToken_flattened.sol\":22310:22319  _balances */\n  0x01\n    /* \"contracts/StandardToken_flattened.sol\":22310:22328  _balances[account] */\n  0x00\n    /* \"contracts/StandardToken_flattened.sol\":22320:22327  account */\n  dup5\n    /* \"contracts/StandardToken_flattened.sol\":22310:22328  _balances[account] */\n  0xffffffffffffffffffffffffffffffffffffffff\n  and\n  0xffffffffffffffffffffffffffffffffffffffff\n  and\n  dup2\n  mstore\n  0x20\n  add\n  swap1\n  dup2\n  mstore\n  0x20\n  add\n  0x00\n  keccak256\n    /* \"contracts/StandardToken_flattened.sol\":22310:22361  _balances[account] = _balances[account].add(amount) */\n  dup2\n  swap1\n  sstore\n  pop\n    /* \"contracts/StandardToken_flattened.sol\":22398:22405  account */\n  dup2\n    /* \"contracts/StandardToken_flattened.sol\":22377:22414  Transfer(address(0), account, amount) */\n  0xffffffffffffffffffffffffffffffffffffffff\n  and\n    /* \"contracts/StandardToken_flattened.sol\":22394:22395  0 */\n  0x00\n    /* \"contracts/StandardToken_flattened.sol\":22377:22414  Transfer(address(0), account, amount) */\n  0xffffffffffffffffffffffffffffffffffffffff\n  and\n  0xddf252ad1be2c89b69c2b068fc378daa952ba7f163c4a11628f55a4df523b3ef\n    /* \"contracts/StandardToken_flattened.sol\":22407:22413  amount */\n  dup4\n    /* \"contracts/StandardToken_flattened.sol\":22377:22414  Transfer(address(0), account, amount) */\n  mload(0x40)\n  tag_36\n  swap2\n  swap1\n  tag_37\n  jump\t// in\ntag_36:\n  mload(0x40)\n  dup1\n  swap2\n  sub\n  swap1\n  log3\n    /* \"contracts/StandardToken_flattened.sol\":22044:22422  function _mint(address account, uint256 amount) internal virtual {... */\n  pop\n  pop\n  jump\t// out\n    /* \"contracts/StandardToken_flattened.sol\":25061:25186  function _beforeTokenTransfer(... */\ntag_32:\n  pop\n  pop\n  pop\n  jump\t// out\n    /* \"contracts/StandardToken_flattened.sol\":10068:10166  function add(uint256 a, uint256 b) internal pure returns (uint256) {... */\ntag_34:\n    /* \"contracts/StandardToken_flattened.sol\":10126:10133  uint256 */\n  0x00\n    /* \"contracts/StandardToken_flattened.sol\":10157:10158  b */\n  dup2\n    /* \"contracts/StandardToken_flattened.sol\":10153:10154  a */\n  dup4\n    /* \"contracts/StandardToken_flattened.sol\":10153:10158  a + b */\n  tag_40\n  swap2\n  swap1\n  tag_41\n  jump\t// in\ntag_40:\n    /* \"contracts/StandardToken_flattened.sol\":10146:10158  return a + b */\n  swap1\n  pop\n    /* \"contracts/StandardToken_flattened.sol\":10068:10166  function add(uint256 a, uint256 b) internal pure returns (uint256) {... */\n  swap3\n  swap2\n  pop\n  pop\n  jump\t// out\n    /* \"#utility.yul\":7:82   */\ntag_42:\n    /* \"#utility.yul\":40:46   */\n  0x00\n    /* \"#utility.yul\":73:75   */\n  0x40\n    /* \"#utility.yul\":67:76   */\n  mload\n    /* \"#utility.yul\":57:76   */\n  swap1\n  pop\n    /* \"#utility.yul\":7:82   */\n  swap1\n  jump\t// out\n    /* \"#utility.yul\":88:205   */\ntag_43:\n    /* \"#utility.yul\":197:198   */\n  0x00\n    /* \"#utility.yul\":194:195   */\n  dup1\n    /* \"#utility.yul\":187:199   */\n  revert\n    /* \"#utility.yul\":211:328   */\ntag_44:\n    /* \"#utility.yul\":320:321   */\n  0x00\n    /* \"#utility.yul\":317:318   */\n  dup1\n    /* \"#utility.yul\":310:322   */\n  revert\n    /* \"#utility.yul\":334:451   */\ntag_45:\n    /* \"#utility.yul\":443:444   */\n  0x00\n    /* \"#utility.yul\":440:441   */\n  dup1\n    /* \"#utility.yul\":433:445   */\n  revert\n    /* \"#utility.yul\":457:574   */\ntag_46:\n    /* \"#utility.yul\":566:567   */\n  0x00\n    /* \"#utility.yul\":563:564   */\n  dup1\n    /* \"#utility.yul\":556:568   */\n  revert\n    /* \"#utility.yul\":580:682   */\ntag_47:\n    /* \"#utility.yul\":621:627   */\n  0x00\n    /* \"#utility.yul\":672:674   */\n  0x1f\n    /* \"#utility.yul\":668:675   */\n  not\n    /* \"#utility.yul\":663:665   */\n  0x1f\n    /* \"#utility.yul\":656:661   */\n  dup4\n    /* \"#utility.yul\":652:666   */\n  add\n    /* \"#utility.yul\":648:676   */\n  and\n    /* \"#utility.yul\":638:676   */\n  swap1\n  pop\n    /* \"#utility.yul\":580:682   */\n  swap2\n  swap1\n  pop\n  jump\t// out\n    /* \"#utility.yul\":688:868   */\ntag_48:\n    /* \"#utility.yul\":736:813   */\n  0x4e487b7100000000000000000000000000000000000000000000000000000000\n    /* \"#utility.yul\":733:734   */\n  0x00\n    /* \"#utility.yul\":726:814   */\n  mstore\n    /* \"#utility.yul\":833:837   */\n  0x41\n    /* \"#utility.yul\":830:831   */\n  0x04\n    /* \"#utility.yul\":823:838   */\n  mstore\n    /* \"#utility.yul\":857:861   */\n  0x24\n    /* \"#utility.yul\":854:855   */\n  0x00\n    /* \"#utility.yul\":847:862   */\n  revert\n    /* \"#utility.yul\":874:1155   */\ntag_49:\n    /* \"#utility.yul\":957:984   */\n  tag_103\n    /* \"#utility.yul\":979:983   */\n  dup3\n    /* \"#utility.yul\":957:984   */\n  tag_47\n  jump\t// in\ntag_103:\n    /* \"#utility.yul\":949:955   */\n  dup2\n    /* \"#utility.yul\":945:985   */\n  add\n    /* \"#utility.yul\":1087:1093   */\n  dup2\n    /* \"#utility.yul\":1075:1085   */\n  dup2\n    /* \"#utility.yul\":1072:1094   */\n  lt\n    /* \"#utility.yul\":1051:1069   */\n  0xffffffffffffffff\n    /* \"#utility.yul\":1039:1049   */\n  dup3\n    /* \"#utility.yul\":1036:1070   */\n  gt\n    /* \"#utility.yul\":1033:1095   */\n  or\n    /* \"#utility.yul\":1030:1118   */\n  iszero\n  tag_104\n  jumpi\n    /* \"#utility.yul\":1098:1116   */\n  tag_105\n  tag_48\n  jump\t// in\ntag_105:\n    /* \"#utility.yul\":1030:1118   */\ntag_104:\n    /* \"#utility.yul\":1138:1148   */\n  dup1\n    /* \"#utility.yul\":1134:1136   */\n  0x40\n    /* \"#utility.yul\":1127:1149   */\n  mstore\n    /* \"#utility.yul\":917:1155   */\n  pop\n    /* \"#utility.yul\":874:1155   */\n  pop\n  pop\n  jump\t// out\n    /* \"#utility.yul\":1161:1290   */\ntag_50:\n    /* \"#utility.yul\":1195:1201   */\n  0x00\n    /* \"#utility.yul\":1222:1242   */\n  tag_107\n  tag_42\n  jump\t// in\ntag_107:\n    /* \"#utility.yul\":1212:1242   */\n  swap1\n  pop\n    /* \"#utility.yul\":1251:1284   */\n  tag_108\n    /* \"#utility.yul\":1279:1283   */\n  dup3\n    /* \"#utility.yul\":1271:1277   */\n  dup3\n    /* \"#utility.yul\":1251:1284   */\n  tag_49\n  jump\t// in\ntag_108:\n    /* \"#utility.yul\":1161:1290   */\n  swap2\n  swap1\n  pop\n  jump\t// out\n    /* \"#utility.yul\":1296:1604   */\ntag_51:\n    /* \"#utility.yul\":1358:1362   */\n  0x00\n    /* \"#utility.yul\":1448:1466   */\n  0xffffffffffffffff\n    /* \"#utility.yul\":1440:1446   */\n  dup3\n    /* \"#utility.yul\":1437:1467   */\n  gt\n    /* \"#utility.yul\":1434:1490   */\n  iszero\n  tag_110\n  jumpi\n    /* \"#utility.yul\":1470:1488   */\n  tag_111\n  tag_48\n  jump\t// in\ntag_111:\n    /* \"#utility.yul\":1434:1490   */\ntag_110:\n    /* \"#utility.yul\":1508:1537   */\n  tag_112\n    /* \"#utility.yul\":1530:1536   */\n  dup3\n    /* \"#utility.yul\":1508:1537   */\n  tag_47\n  jump\t// in\ntag_112:\n    /* \"#utility.yul\":1500:1537   */\n  swap1\n  pop\n    /* \"#utility.yul\":1592:1596   */\n  0x20\n    /* \"#utility.yul\":1586:1590   */\n  dup2\n    /* \"#utility.yul\":1582:1597   */\n  add\n    /* \"#utility.yul\":1574:1597   */\n  swap1\n  pop\n    /* \"#utility.yul\":1296:1604   */\n  swap2\n  swap1\n  pop\n  jump\t// out\n    /* \"#utility.yul\":1610:1749   */\ntag_52:\n    /* \"#utility.yul\":1699:1705   */\n  dup3\n    /* \"#utility.yul\":1694:1697   */\n  dup2\n    /* \"#utility.yul\":1689:1692   */\n  dup4\n    /* \"#utility.yul\":1683:1706   */\n  mcopy\n    /* \"#utility.yul\":1740:1741   */\n  0x00\n    /* \"#utility.yul\":1731:1737   */\n  dup4\n    /* \"#utility.yul\":1726:1729   */\n  dup4\n    /* \"#utility.yul\":1722:1738   */\n  add\n    /* \"#utility.yul\":1715:1742   */\n  mstore\n    /* \"#utility.yul\":1610:1749   */\n  pop\n  pop\n  pop\n  jump\t// out\n    /* \"#utility.yul\":1755:2189   */\ntag_53:\n    /* \"#utility.yul\":1844:1849   */\n  0x00\n    /* \"#utility.yul\":1869:1935   */\n  tag_115\n    /* \"#utility.yul\":1885:1934   */\n  tag_116\n    /* \"#utility.yul\":1927:1933   */\n  dup5\n    /* \"#utility.yul\":1885:1934   */\n  tag_51\n  jump\t// in\ntag_116:\n    /* \"#utility.yul\":1869:1935   */\n  tag_50\n  jump\t// in\ntag_115:\n    /* \"#utility.yul\":1860:1935   */\n  swap1\n  pop\n    /* \"#utility.yul\":1958:1964   */\n  dup3\n    /* \"#utility.yul\":1951:1956   */\n  dup2\n    /* \"#utility.yul\":1944:1965   */\n  mstore\n    /* \"#utility.yul\":1996:2000   */\n  0x20\n    /* \"#utility.yul\":1989:1994   */\n  dup2\n    /* \"#utility.yul\":1985:2001   */\n  add\n    /* \"#utility.yul\":2034:2037   */\n  dup5\n    /* \"#utility.yul\":2025:2031   */\n  dup5\n    /* \"#utility.yul\":2020:2023   */\n  dup5\n    /* \"#utility.yul\":2016:2032   */\n  add\n    /* \"#utility.yul\":2013:2038   */\n  gt\n    /* \"#utility.yul\":2010:2122   */\n  iszero\n  tag_117\n  jumpi\n    /* \"#utility.yul\":2041:2120   */\n  tag_118\n  tag_46\n  jump\t// in\ntag_118:\n    /* \"#utility.yul\":2010:2122   */\ntag_117:\n    /* \"#utility.yul\":2131:2183   */\n  tag_119\n    /* \"#utility.yul\":2176:2182   */\n  dup5\n    /* \"#utility.yul\":2171:2174   */\n  dup3\n    /* \"#utility.yul\":2166:2169   */\n  dup6\n    /* \"#utility.yul\":2131:2183   */\n  tag_52\n  jump\t// in\ntag_119:\n    /* \"#utility.yul\":1850:2189   */\n  pop\n    /* \"#utility.yul\":1755:2189   */\n  swap4\n  swap3\n  pop\n  pop\n  pop\n  jump\t// out\n    /* \"#utility.yul\":2209:2564   */\ntag_54:\n    /* \"#utility.yul\":2276:2281   */\n  0x00\n    /* \"#utility.yul\":2325:2328   */\n  dup3\n    /* \"#utility.yul\":2318:2322   */\n  0x1f\n    /* \"#utility.yul\":2310:2316   */\n  dup4\n    /* \"#utility.yul\":2306:2323   */\n  add\n    /* \"#utility.yul\":2302:2329   */\n  slt\n    /* \"#utility.yul\":2292:2414   */\n  tag_121\n  jumpi\n    /* \"#utility.yul\":2333:2412   */\n  tag_122\n  tag_45\n  jump\t// in\ntag_122:\n    /* \"#utility.yul\":2292:2414   */\ntag_121:\n    /* \"#utility.yul\":2443:2449   */\n  dup2\n    /* \"#utility.yul\":2437:2450   */\n  mload\n    /* \"#utility.yul\":2468:2558   */\n  tag_123\n    /* \"#utility.yul\":2554:2557   */\n  dup5\n    /* \"#utility.yul\":2546:2552   */\n  dup3\n    /* \"#utility.yul\":2539:2543   */\n  0x20\n    /* \"#utility.yul\":2531:2537   */\n  dup7\n    /* \"#utility.yul\":2527:2544   */\n  add\n    /* \"#utility.yul\":2468:2558   */\n  tag_53\n  jump\t// in\ntag_123:\n    /* \"#utility.yul\":2459:2558   */\n  swap2\n  pop\n    /* \"#utility.yul\":2282:2564   */\n  pop\n    /* \"#utility.yul\":2209:2564   */\n  swap3\n  swap2\n  pop\n  pop\n  jump\t// out\n    /* \"#utility.yul\":2570:2656   */\ntag_55:\n    /* \"#utility.yul\":2605:2612   */\n  0x00\n    /* \"#utility.yul\":2645:2649   */\n  0xff\n    /* \"#utility.yul\":2638:2643   */\n  dup3\n    /* \"#utility.yul\":2634:2650   */\n  and\n    /* \"#utility.yul\":2623:2650   */\n  swap1\n  pop\n    /* \"#utility.yul\":2570:2656   */\n  swap2\n  swap1\n  pop\n  jump\t// out\n    /* \"#utility.yul\":2662:2780   */\ntag_56:\n    /* \"#utility.yul\":2733:2755   */\n  tag_126\n    /* \"#utility.yul\":2749:2754   */\n  dup2\n    /* \"#utility.yul\":2733:2755   */\n  tag_55\n  jump\t// in\ntag_126:\n    /* \"#utility.yul\":2726:2731   */\n  dup2\n    /* \"#utility.yul\":2723:2756   */\n  eq\n    /* \"#utility.yul\":2713:2774   */\n  tag_127\n  jumpi\n    /* \"#utility.yul\":2770:2771   */\n  0x00\n    /* \"#utility.yul\":2767:2768   */\n  dup1\n    /* \"#utility.yul\":2760:2772   */\n  revert\n    /* \"#utility.yul\":2713:2774   */\ntag_127:\n    /* \"#utility.yul\":2662:2780   */\n  pop\n  jump\t// out\n    /* \"#utility.yul\":2786:2925   */\ntag_57:\n    /* \"#utility.yul\":2841:2846   */\n  0x00\n    /* \"#utility.yul\":2872:2878   */\n  dup2\n    /* \"#utility.yul\":2866:2879   */\n  mload\n    /* \"#utility.yul\":2857:2879   */\n  swap1\n  pop\n    /* \"#utility.yul\":2888:2919   */\n  tag_129\n    /* \"#utility.yul\":2913:2918   */\n  dup2\n    /* \"#utility.yul\":2888:2919   */\n  tag_56\n  jump\t// in\ntag_129:\n    /* \"#utility.yul\":2786:2925   */\n  swap3\n  swap2\n  pop\n  pop\n  jump\t// out\n    /* \"#utility.yul\":2931:3008   */\ntag_58:\n    /* \"#utility.yul\":2968:2975   */\n  0x00\n    /* \"#utility.yul\":2997:3002   */\n  dup2\n    /* \"#utility.yul\":2986:3002   */\n  swap1\n  pop\n    /* \"#utility.yul\":2931:3008   */\n  swap2\n  swap1\n  pop\n  jump\t// out\n    /* \"#utility.yul\":3014:3136   */\ntag_59:\n    /* \"#utility.yul\":3087:3111   */\n  tag_132\n    /* \"#utility.yul\":3105:3110   */\n  dup2\n    /* \"#utility.yul\":3087:3111   */\n  tag_58\n  jump\t// in\ntag_132:\n    /* \"#utility.yul\":3080:3085   */\n  dup2\n    /* \"#utility.yul\":3077:3112   */\n  eq\n    /* \"#utility.yul\":3067:3130   */\n  tag_133\n  jumpi\n    /* \"#utility.yul\":3126:3127   */\n  0x00\n    /* \"#utility.yul\":3123:3124   */\n  dup1\n    /* \"#utility.yul\":3116:3128   */\n  revert\n    /* \"#utility.yul\":3067:3130   */\ntag_133:\n    /* \"#utility.yul\":3014:3136   */\n  pop\n  jump\t// out\n    /* \"#utility.yul\":3142:3285   */\ntag_60:\n    /* \"#utility.yul\":3199:3204   */\n  0x00\n    /* \"#utility.yul\":3230:3236   */\n  dup2\n    /* \"#utility.yul\":3224:3237   */\n  mload\n    /* \"#utility.yul\":3215:3237   */\n  swap1\n  pop\n    /* \"#utility.yul\":3246:3279   */\n  tag_135\n    /* \"#utility.yul\":3273:3278   */\n  dup2\n    /* \"#utility.yul\":3246:3279   */\n  tag_59\n  jump\t// in\ntag_135:\n    /* \"#utility.yul\":3142:3285   */\n  swap3\n  swap2\n  pop\n  pop\n  jump\t// out\n    /* \"#utility.yul\":3291:3417   */\ntag_61:\n    /* \"#utility.yul\":3328:3335   */\n  0x00\n    /* \"#utility.yul\":3368:3410   */\n  0xffffffffffffffffffffffffffffffffffffffff\n    /* \"#utility.yul\":3361:3366   */\n  dup3\n    /* \"#utility.yul\":3357:3411   */\n  and\n    /* \"#utility.yul\":3346:3411   */\n  swap1\n  pop\n    /* \"#utility.yul\":3291:3417   */\n  swap2\n  swap1\n  pop\n  jump\t// out\n    /* \"#utility.yul\":3423:3519   */\ntag_62:\n    /* \"#utility.yul\":3460:3467   */\n  0x00\n    /* \"#utility.yul\":3489:3513   */\n  tag_138\n    /* \"#utility.yul\":3507:3512   */\n  dup3\n    /* \"#utility.yul\":3489:3513   */\n  tag_61\n  jump\t// in\ntag_138:\n    /* \"#utility.yul\":3478:3513   */\n  swap1\n  pop\n    /* \"#utility.yul\":3423:3519   */\n  swap2\n  swap1\n  pop\n  jump\t// out\n    /* \"#utility.yul\":3525:3647   */\ntag_63:\n    /* \"#utility.yul\":3598:3622   */\n  tag_140\n    /* \"#utility.yul\":3616:3621   */\n  dup2\n    /* \"#utility.yul\":3598:3622   */\n  tag_62\n  jump\t// in\ntag_140:\n    /* \"#utility.yul\":3591:3596   */\n  dup2\n    /* \"#utility.yul\":3588:3623   */\n  eq\n    /* \"#utility.yul\":3578:3641   */\n  tag_141\n  jumpi\n    /* \"#utility.yul\":3637:3638   */\n  0x00\n    /* \"#utility.yul\":3634:3635   */\n  dup1\n    /* \"#utility.yul\":3627:3639   */\n  revert\n    /* \"#utility.yul\":3578:3641   */\ntag_141:\n    /* \"#utility.yul\":3525:3647   */\n  pop\n  jump\t// out\n    /* \"#utility.yul\":3653:3796   */\ntag_64:\n    /* \"#utility.yul\":3710:3715   */\n  0x00\n    /* \"#utility.yul\":3741:3747   */\n  dup2\n    /* \"#utility.yul\":3735:3748   */\n  mload\n    /* \"#utility.yul\":3726:3748   */\n  swap1\n  pop\n    /* \"#utility.yul\":3757:3790   */\n  tag_143\n    /* \"#utility.yul\":3784:3789   */\n  dup2\n    /* \"#utility.yul\":3757:3790   */\n  tag_63\n  jump\t// in\ntag_143:\n    /* \"#utility.yul\":3653:3796   */\n  swap3\n  swap2\n  pop\n  pop\n  jump\t// out\n    /* \"#utility.yul\":3802:5278   */\ntag_2:\n    /* \"#utility.yul\":3935:3941   */\n  0x00\n    /* \"#utility.yul\":3943:3949   */\n  dup1\n    /* \"#utility.yul\":3951:3957   */\n  0x00\n    /* \"#utility.yul\":3959:3965   */\n  dup1\n    /* \"#utility.yul\":3967:3973   */\n  0x00\n    /* \"#utility.yul\":3975:3981   */\n  dup1\n    /* \"#utility.yul\":4024:4027   */\n  0xc0\n    /* \"#utility.yul\":4012:4021   */\n  dup8\n    /* \"#utility.yul\":4003:4010   */\n  dup10\n    /* \"#utility.yul\":3999:4022   */\n  sub\n    /* \"#utility.yul\":3995:4028   */\n  slt\n    /* \"#utility.yul\":3992:4112   */\n  iszero\n  tag_145\n  jumpi\n    /* \"#utility.yul\":4031:4110   */\n  tag_146\n  tag_43\n  jump\t// in\ntag_146:\n    /* \"#utility.yul\":3992:4112   */\ntag_145:\n    /* \"#utility.yul\":4172:4173   */\n  0x00\n    /* \"#utility.yul\":4161:4170   */\n  dup8\n    /* \"#utility.yul\":4157:4174   */\n  add\n    /* \"#utility.yul\":4151:4175   */\n  mload\n    /* \"#utility.yul\":4202:4220   */\n  0xffffffffffffffff\n    /* \"#utility.yul\":4194:4200   */\n  dup2\n    /* \"#utility.yul\":4191:4221   */\n  gt\n    /* \"#utility.yul\":4188:4305   */\n  iszero\n  tag_147\n  jumpi\n    /* \"#utility.yul\":4224:4303   */\n  tag_148\n  tag_44\n  jump\t// in\ntag_148:\n    /* \"#utility.yul\":4188:4305   */\ntag_147:\n    /* \"#utility.yul\":4329:4403   */\n  tag_149\n    /* \"#utility.yul\":4395:4402   */\n  dup10\n    /* \"#utility.yul\":4386:4392   */\n  dup3\n    /* \"#utility.yul\":4375:4384   */\n  dup11\n    /* \"#utility.yul\":4371:4393   */\n  add\n    /* \"#utility.yul\":4329:4403   */\n  tag_54\n  jump\t// in\ntag_149:\n    /* \"#utility.yul\":4319:4403   */\n  swap7\n  pop\n    /* \"#utility.yul\":4122:4413   */\n  pop\n    /* \"#utility.yul\":4473:4475   */\n  0x20\n    /* \"#utility.yul\":4462:4471   */\n  dup8\n    /* \"#utility.yul\":4458:4476   */\n  add\n    /* \"#utility.yul\":4452:4477   */\n  mload\n    /* \"#utility.yul\":4504:4522   */\n  0xffffffffffffffff\n    /* \"#utility.yul\":4496:4502   */\n  dup2\n    /* \"#utility.yul\":4493:4523   */\n  gt\n    /* \"#utility.yul\":4490:4607   */\n  iszero\n  tag_150\n  jumpi\n    /* \"#utility.yul\":4526:4605   */\n  tag_151\n  tag_44\n  jump\t// in\ntag_151:\n    /* \"#utility.yul\":4490:4607   */\ntag_150:\n    /* \"#utility.yul\":4631:4705   */\n  tag_152\n    /* \"#utility.yul\":4697:4704   */\n  dup10\n    /* \"#utility.yul\":4688:4694   */\n  dup3\n    /* \"#utility.yul\":4677:4686   */\n  dup11\n    /* \"#utility.yul\":4673:4695   */\n  add\n    /* \"#utility.yul\":4631:4705   */\n  tag_54\n  jump\t// in\ntag_152:\n    /* \"#utility.yul\":4621:4705   */\n  swap6\n  pop\n    /* \"#utility.yul\":4423:4715   */\n  pop\n    /* \"#utility.yul\":4754:4756   */\n  0x40\n    /* \"#utility.yul\":4780:4842   */\n  tag_153\n    /* \"#utility.yul\":4834:4841   */\n  dup10\n    /* \"#utility.yul\":4825:4831   */\n  dup3\n    /* \"#utility.yul\":4814:4823   */\n  dup11\n    /* \"#utility.yul\":4810:4832   */\n  add\n    /* \"#utility.yul\":4780:4842   */\n  tag_57\n  jump\t// in\ntag_153:\n    /* \"#utility.yul\":4770:4842   */\n  swap5\n  pop\n    /* \"#utility.yul\":4725:4852   */\n  pop\n    /* \"#utility.yul\":4891:4893   */\n  0x60\n    /* \"#utility.yul\":4917:4981   */\n  tag_154\n    /* \"#utility.yul\":4973:4980   */\n  dup10\n    /* \"#utility.yul\":4964:4970   */\n  dup3\n    /* \"#utility.yul\":4953:4962   */\n  dup11\n    /* \"#utility.yul\":4949:4971   */\n  add\n    /* \"#utility.yul\":4917:4981   */\n  tag_60\n  jump\t// in\ntag_154:\n    /* \"#utility.yul\":4907:4981   */\n  swap4\n  pop\n    /* \"#utility.yul\":4862:4991   */\n  pop\n    /* \"#utility.yul\":5030:5033   */\n  0x80\n    /* \"#utility.yul\":5057:5121   */\n  tag_155\n    /* \"#utility.yul\":5113:5120   */\n  dup10\n    /* \"#utility.yul\":5104:5110   */\n  dup3\n    /* \"#utility.yul\":5093:5102   */\n  dup11\n    /* \"#utility.yul\":5089:5111   */\n  add\n    /* \"#utility.yul\":5057:5121   */\n  tag_64\n  jump\t// in\ntag_155:\n    /* \"#utility.yul\":5047:5121   */\n  swap3\n  pop\n    /* \"#utility.yul\":5001:5131   */\n  pop\n    /* \"#utility.yul\":5170:5173   */\n  0xa0\n    /* \"#utility.yul\":5197:5261   */\n  tag_156\n    /* \"#utility.yul\":5253:5260   */\n  dup10\n    /* \"#utility.yul\":5244:5250   */\n  dup3\n    /* \"#utility.yul\":5233:5242   */\n  dup11\n    /* \"#utility.yul\":5229:5251   */\n  add\n    /* \"#utility.yul\":5197:5261   */\n  tag_60\n  jump\t// in\ntag_156:\n    /* \"#utility.yul\":5187:5261   */\n  swap2\n  pop\n    /* \"#utility.yul\":5141:5271   */\n  pop\n    /* \"#utility.yul\":3802:5278   */\n  swap3\n  swap6\n  pop\n  swap3\n  swap6\n  pop\n  swap3\n  swap6\n  jump\t// out\n    /* \"#utility.yul\":5284:5402   */\ntag_65:\n    /* \"#utility.yul\":5371:5395   */\n  tag_158\n    /* \"#utility.yul\":5389:5394   */\n  dup2\n    /* \"#utility.yul\":5371:5395   */\n  tag_62\n  jump\t// in\ntag_158:\n    /* \"#utility.yul\":5366:5369   */\n  dup3\n    /* \"#utility.yul\":5359:5396   */\n  mstore\n    /* \"#utility.yul\":5284:5402   */\n  pop\n  pop\n  jump\t// out\n    /* \"#utility.yul\":5408:5630   */\ntag_8:\n    /* \"#utility.yul\":5501:5505   */\n  0x00\n    /* \"#utility.yul\":5539:5541   */\n  0x20\n    /* \"#utility.yul\":5528:5537   */\n  dup3\n    /* \"#utility.yul\":5524:5542   */\n  add\n    /* \"#utility.yul\":5516:5542   */\n  swap1\n  pop\n    /* \"#utility.yul\":5552:5623   */\n  tag_160\n    /* \"#utility.yul\":5620:5621   */\n  0x00\n    /* \"#utility.yul\":5609:5618   */\n  dup4\n    /* \"#utility.yul\":5605:5622   */\n  add\n    /* \"#utility.yul\":5596:5602   */\n  dup5\n    /* \"#utility.yul\":5552:5623   */\n  tag_65\n  jump\t// in\ntag_160:\n    /* \"#utility.yul\":5408:5630   */\n  swap3\n  swap2\n  pop\n  pop\n  jump\t// out\n    /* \"#utility.yul\":5636:5735   */\ntag_66:\n    /* \"#utility.yul\":5688:5694   */\n  0x00\n    /* \"#utility.yul\":5722:5727   */\n  dup2\n    /* \"#utility.yul\":5716:5728   */\n  mload\n    /* \"#utility.yul\":5706:5728   */\n  swap1\n  pop\n    /* \"#utility.yul\":5636:5735   */\n  swap2\n  swap1\n  pop\n  jump\t// out\n    /* \"#utility.yul\":5741:5921   */\ntag_67:\n    /* \"#utility.yul\":5789:5866   */\n  0x4e487b7100000000000000000000000000000000000000000000000000000000\n    /* \"#utility.yul\":5786:5787   */\n  0x00\n    /* \"#utility.yul\":5779:5867   */\n  mstore\n    /* \"#utility.yul\":5886:5890   */\n  0x22\n    /* \"#utility.yul\":5883:5884   */\n  0x04\n    /* \"#utility.yul\":5876:5891   */\n  mstore\n    /* \"#utility.yul\":5910:5914   */\n  0x24\n    /* \"#utility.yul\":5907:5908   */\n  0x00\n    /* \"#utility.yul\":5900:5915   */\n  revert\n    /* \"#utility.yul\":5927:6247   */\ntag_68:\n    /* \"#utility.yul\":5971:5977   */\n  0x00\n    /* \"#utility.yul\":6008:6009   */\n  0x02\n    /* \"#utility.yul\":6002:6006   */\n  dup3\n    /* \"#utility.yul\":5998:6010   */\n  div\n    /* \"#utility.yul\":5988:6010   */\n  swap1\n  pop\n    /* \"#utility.yul\":6055:6056   */\n  0x01\n    /* \"#utility.yul\":6049:6053   */\n  dup3\n    /* \"#utility.yul\":6045:6057   */\n  and\n    /* \"#utility.yul\":6076:6094   */\n  dup1\n    /* \"#utility.yul\":6066:6147   */\n  tag_164\n  jumpi\n    /* \"#utility.yul\":6132:6136   */\n  0x7f\n    /* \"#utility.yul\":6124:6130   */\n  dup3\n    /* \"#utility.yul\":6120:6137   */\n  and\n    /* \"#utility.yul\":6110:6137   */\n  swap2\n  pop\n    /* \"#utility.yul\":6066:6147   */\ntag_164:\n    /* \"#utility.yul\":6194:6196   */\n  0x20\n    /* \"#utility.yul\":6186:6192   */\n  dup3\n    /* \"#utility.yul\":6183:6197   */\n  lt\n    /* \"#utility.yul\":6163:6181   */\n  dup2\n    /* \"#utility.yul\":6160:6198   */\n  sub\n    /* \"#utility.yul\":6157:6241   */\n  tag_165\n  jumpi\n    /* \"#utility.yul\":6213:6231   */\n  tag_166\n  tag_67\n  jump\t// in\ntag_166:\n    /* \"#utility.yul\":6157:6241   */\ntag_165:\n    /* \"#utility.yul\":5978:6247   */\n  pop\n    /* \"#utility.yul\":5927:6247   */\n  swap2\n  swap1\n  pop\n  jump\t// out\n    /* \"#utility.yul\":6253:6394   */\ntag_69:\n    /* \"#utility.yul\":6302:6306   */\n  0x00\n    /* \"#utility.yul\":6325:6328   */\n  dup2\n    /* \"#utility.yul\":6317:6328   */\n  swap1\n  pop\n    /* \"#utility.yul\":6348:6351   */\n  dup2\n    /* \"#utility.yul\":6345:6346   */\n  0x00\n    /* \"#utility.yul\":6338:6352   */\n  mstore\n    /* \"#utility.yul\":6382:6386   */\n  0x20\n    /* \"#utility.yul\":6379:6380   */\n  0x00\n    /* \"#utility.yul\":6369:6387   */\n  keccak256\n    /* \"#utility.yul\":6361:6387   */\n  swap1\n  pop\n    /* \"#utility.yul\":6253:6394   */\n  swap2\n  swap1\n  pop\n  jump\t// out\n    /* \"#utility.yul\":6400:6493   */\ntag_70:\n    /* \"#utility.yul\":6437:6443   */\n  0x00\n    /* \"#utility.yul\":6484:6486   */\n  0x20\n    /* \"#utility.yul\":6479:6481   */\n  0x1f\n    /* \"#utility.yul\":6472:6477   */\n  dup4\n    /* \"#utility.yul\":6468:6482   */\n  add\n    /* \"#utility.yul\":6464:6487   */\n  div\n    /* \"#utility.yul\":6454:6487   */\n  swap1\n  pop\n    /* \"#utility.yul\":6400:6493   */\n  swap2\n  swap1\n  pop\n  jump\t// out\n    /* \"#utility.yul\":6499:6606   */\ntag_71:\n    /* \"#utility.yul\":6543:6551   */\n  0x00\n    /* \"#utility.yul\":6593:6598   */\n  dup3\n    /* \"#utility.yul\":6587:6591   */\n  dup3\n    /* \"#utility.yul\":6583:6599   */\n  shl\n    /* \"#utility.yul\":6562:6599   */\n  swap1\n  pop\n    /* \"#utility.yul\":6499:6606   */\n  swap3\n  swap2\n  pop\n  pop\n  jump\t// out\n    /* \"#utility.yul\":6612:7005   */\ntag_72:\n    /* \"#utility.yul\":6681:6687   */\n  0x00\n    /* \"#utility.yul\":6731:6732   */\n  0x08\n    /* \"#utility.yul\":6719:6729   */\n  dup4\n    /* \"#utility.yul\":6715:6733   */\n  mul\n    /* \"#utility.yul\":6754:6851   */\n  tag_171\n    /* \"#utility.yul\":6784:6850   */\n  0xffffffffffffffffffffffffffffffffffffffffffffffffffffffffffffffff\n    /* \"#utility.yul\":6773:6782   */\n  dup3\n    /* \"#utility.yul\":6754:6851   */\n  tag_71\n  jump\t// in\ntag_171:\n    /* \"#utility.yul\":6872:6911   */\n  tag_172\n    /* \"#utility.yul\":6902:6910   */\n  dup7\n    /* \"#utility.yul\":6891:6900   */\n  dup4\n    /* \"#utility.yul\":6872:6911   */\n  tag_71\n  jump\t// in\ntag_172:\n    /* \"#utility.yul\":6860:6911   */\n  swap6\n  pop\n    /* \"#utility.yul\":6944:6948   */\n  dup1\n    /* \"#utility.yul\":6940:6949   */\n  not\n    /* \"#utility.yul\":6933:6938   */\n  dup5\n    /* \"#utility.yul\":6929:6950   */\n  and\n    /* \"#utility.yul\":6920:6950   */\n  swap4\n  pop\n    /* \"#utility.yul\":6993:6997   */\n  dup1\n    /* \"#utility.yul\":6983:6991   */\n  dup7\n    /* \"#utility.yul\":6979:6998   */\n  and\n    /* \"#utility.yul\":6972:6977   */\n  dup5\n    /* \"#utility.yul\":6969:6999   */\n  or\n    /* \"#utility.yul\":6959:6999   */\n  swap3\n  pop\n    /* \"#utility.yul\":6688:7005   */\n  pop\n  pop\n    /* \"#utility.yul\":6612:7005   */\n  swap4\n  swap3\n  pop\n  pop\n  pop\n  jump\t// out\n    /* \"#utility.yul\":7011:7071   */\ntag_73:\n    /* \"#utility.yul\":7039:7042   */\n  0x00\n    /* \"#utility.yul\":7060:7065   */\n  dup2\n    /* \"#utility.yul\":7053:7065   */\n  swap1\n  pop\n    /* \"#utility.yul\":7011:7071   */\n  swap2\n  swap1\n  pop\n  jump\t// out\n    /* \"#utility.yul\":7077:7219   */\ntag_74:\n    /* \"#utility.yul\":7127:7136   */\n  0x00\n    /* \"#utility.yul\":7160:7213   */\n  tag_175\n    /* \"#utility.yul\":7178:7212   */\n  tag_176\n    /* \"#utility.yul\":7187:7211   */\n  tag_177\n    /* \"#utility.yul\":7205:7210   */\n  dup5\n    /* \"#utility.yul\":7187:7211   */\n  tag_58\n  jump\t// in\ntag_177:\n    /* \"#utility.yul\":7178:7212   */\n  tag_73\n  jump\t// in\ntag_176:\n    /* \"#utility.yul\":7160:7213   */\n  tag_58\n  jump\t// in\ntag_175:\n    /* \"#utility.yul\":7147:7213   */\n  swap1\n  pop\n    /* \"#utility.yul\":7077:7219   */\n  swap2\n  swap1\n  pop\n  jump\t// out\n    /* \"#utility.yul\":7225:7300   */\ntag_75:\n    /* \"#utility.yul\":7268:7271   */\n  0x00\n    /* \"#utility.yul\":7289:7294   */\n  dup2\n    /* \"#utility.yul\":7282:7294   */\n  swap1\n  pop\n    /* \"#utility.yul\":7225:7300   */\n  swap2\n  swap1\n  pop\n  jump\t// out\n    /* \"#utility.yul\":7306:7575   */\ntag_76:\n    /* \"#utility.yul\":7416:7455   */\n  tag_180\n    /* \"#utility.yul\":7447:7454   */\n  dup4\n    /* \"#utility.yul\":7416:7455   */\n  tag_74\n  jump\t// in\ntag_180:\n    /* \"#utility.yul\":7477:7568   */\n  tag_181\n    /* \"#utility.yul\":7526:7567   */\n  tag_182\n    /* \"#utility.yul\":7550:7566   */\n  dup3\n    /* \"#utility.yul\":7526:7567   */\n  tag_75\n  jump\t// in\ntag_182:\n    /* \"#utility.yul\":7518:7524   */\n  dup5\n    /* \"#utility.yul\":7511:7515   */\n  dup5\n    /* \"#utility.yul\":7505:7516   */\n  sload\n    /* \"#utility.yul\":7477:7568   */\n  tag_72\n  jump\t// in\ntag_181:\n    /* \"#utility.yul\":7471:7475   */\n  dup3\n    /* \"#utility.yul\":7464:7569   */\n  sstore\n    /* \"#utility.yul\":7382:7575   */\n  pop\n    /* \"#utility.yul\":7306:7575   */\n  pop\n  pop\n  pop\n  jump\t// out\n    /* \"#utility.yul\":7581:7654   */\ntag_77:\n    /* \"#utility.yul\":7626:7629   */\n  0x00\n    /* \"#utility.yul\":7581:7654   */\n  swap1\n  jump\t// out\n    /* \"#utility.yul\":7660:7849   */\ntag_78:\n    /* \"#utility.yul\":7737:7769   */\n  tag_185\n  tag_77\n  jump\t// in\ntag_185:\n    /* \"#utility.yul\":7778:7843   */\n  tag_186\n    /* \"#utility.yul\":7836:7842   */\n  dup2\n    /* \"#utility.yul\":7828:7834   */\n  dup5\n    /* \"#utility.yul\":7822:7826   */\n  dup5\n    /* \"#utility.yul\":7778:7843   */\n  tag_76\n  jump\t// in\ntag_186:\n    /* \"#utility.yul\":7713:7849   */\n  pop\n    /* \"#utility.yul\":7660:7849   */\n  pop\n  pop\n  jump\t// out\n    /* \"#utility.yul\":7855:8041   */\ntag_79:\n    /* \"#utility.yul\":7915:8035   */\ntag_188:\n    /* \"#utility.yul\":7932:7935   */\n  dup2\n    /* \"#utility.yul\":7925:7930   */\n  dup2\n    /* \"#utility.yul\":7922:7936   */\n  lt\n    /* \"#utility.yul\":7915:8035   */\n  iszero\n  tag_190\n  jumpi\n    /* \"#utility.yul\":7986:8025   */\n  tag_191\n    /* \"#utility.yul\":8023:8024   */\n  0x00\n    /* \"#utility.yul\":8016:8021   */\n  dup3\n    /* \"#utility.yul\":7986:8025   */\n  tag_78\n  jump\t// in\ntag_191:\n    /* \"#utility.yul\":7959:7960   */\n  0x01\n    /* \"#utility.yul\":7952:7957   */\n  dup2\n    /* \"#utility.yul\":7948:7961   */\n  add\n    /* \"#utility.yul\":7939:7961   */\n  swap1\n  pop\n    /* \"#utility.yul\":7915:8035   */\n  jump(tag_188)\ntag_190:\n    /* \"#utility.yul\":7855:8041   */\n  pop\n  pop\n  jump\t// out\n    /* \"#utility.yul\":8047:8590   */\ntag_80:\n    /* \"#utility.yul\":8148:8150   */\n  0x1f\n    /* \"#utility.yul\":8143:8146   */\n  dup3\n    /* \"#utility.yul\":8140:8151   */\n  gt\n    /* \"#utility.yul\":8137:8583   */\n  iszero\n  tag_193\n  jumpi\n    /* \"#utility.yul\":8182:8220   */\n  tag_194\n    /* \"#utility.yul\":8214:8219   */\n  dup2\n    /* \"#utility.yul\":8182:8220   */\n  tag_69\n  jump\t// in\ntag_194:\n    /* \"#utility.yul\":8266:8295   */\n  tag_195\n    /* \"#utility.yul\":8284:8294   */\n  dup5\n    /* \"#utility.yul\":8266:8295   */\n  tag_70\n  jump\t// in\ntag_195:\n    /* \"#utility.yul\":8256:8264   */\n  dup2\n    /* \"#utility.yul\":8252:8296   */\n  add\n    /* \"#utility.yul\":8449:8451   */\n  0x20\n    /* \"#utility.yul\":8437:8447   */\n  dup6\n    /* \"#utility.yul\":8434:8452   */\n  lt\n    /* \"#utility.yul\":8431:8480   */\n  iszero\n  tag_196\n  jumpi\n    /* \"#utility.yul\":8470:8478   */\n  dup2\n    /* \"#utility.yul\":8455:8478   */\n  swap1\n  pop\n    /* \"#utility.yul\":8431:8480   */\ntag_196:\n    /* \"#utility.yul\":8493:8573   */\n  tag_197\n    /* \"#utility.yul\":8549:8571   */\n  tag_198\n    /* \"#utility.yul\":8567:8570   */\n  dup6\n    /* \"#utility.yul\":8549:8571   */\n  tag_70\n  jump\t// in\ntag_198:\n    /* \"#utility.yul\":8539:8547   */\n  dup4\n    /* \"#utility.yul\":8535:8572   */\n  add\n    /* \"#utility.yul\":8522:8533   */\n  dup3\n    /* \"#utility.yul\":8493:8573   */\n  tag_79\n  jump\t// in\ntag_197:\n    /* \"#utility.yul\":8152:8583   */\n  pop\n  pop\n    /* \"#utility.yul\":8137:8583   */\ntag_193:\n    /* \"#utility.yul\":8047:8590   */\n  pop\n  pop\n  pop\n  jump\t// out\n    /* \"#utility.yul\":8596:8713   */\ntag_81:\n    /* \"#utility.yul\":8650:8658   */\n  0x00\n    /* \"#utility.yul\":8700:8705   */\n  dup3\n    /* \"#utility.yul\":8694:8698   */\n  dup3\n    /* \"#utility.yul\":8690:8706   */\n  shr\n    /* \"#utility.yul\":8669:8706   */\n  swap1\n  pop\n    /* \"#utility.yul\":8596:8713   */\n  swap3\n  swap2\n  pop\n  pop\n  jump\t// out\n    /* \"#utility.yul\":8719:8888   */\ntag_82:\n    /* \"#utility.yul\":8763:8769   */\n  0x00\n    /* \"#utility.yul\":8796:8847   */\n  tag_201\n    /* \"#utility.yul\":8844:8845   */\n  0x00\n    /* \"#utility.yul\":8840:8846   */\n  not\n    /* \"#utility.yul\":8832:8837   */\n  dup5\n    /* \"#utility.yul\":8829:8830   */\n  0x08\n    /* \"#utility.yul\":8825:8838   */\n  mul\n    /* \"#utility.yul\":8796:8847   */\n  tag_81\n  jump\t// in\ntag_201:\n    /* \"#utility.yul\":8792:8848   */\n  not\n    /* \"#utility.yul\":8877:8881   */\n  dup1\n    /* \"#utility.yul\":8871:8875   */\n  dup4\n    /* \"#utility.yul\":8867:8882   */\n  and\n    /* \"#utility.yul\":8857:8882   */\n  swap2\n  pop\n    /* \"#utility.yul\":8770:8888   */\n  pop\n    /* \"#utility.yul\":8719:8888   */\n  swap3\n  swap2\n  pop\n  pop\n  jump\t// out\n    /* \"#utility.yul\":8893:9188   */\ntag_83:\n    /* \"#utility.yul\":8969:8973   */\n  0x00\n    /* \"#utility.yul\":9115:9144   */\n  tag_203\n    /* \"#utility.yul\":9140:9143   */\n  dup4\n    /* \"#utility.yul\":9134:9138   */\n  dup4\n    /* \"#utility.yul\":9115:9144   */\n  tag_82\n  jump\t// in\ntag_203:\n    /* \"#utility.yul\":9107:9144   */\n  swap2\n  pop\n    /* \"#utility.yul\":9177:9180   */\n  dup3\n    /* \"#utility.yul\":9174:9175   */\n  0x02\n    /* \"#utility.yul\":9170:9181   */\n  mul\n    /* \"#utility.yul\":9164:9168   */\n  dup3\n    /* \"#utility.yul\":9161:9182   */\n  or\n    /* \"#utility.yul\":9153:9182   */\n  swap1\n  pop\n    /* \"#utility.yul\":8893:9188   */\n  swap3\n  swap2\n  pop\n  pop\n  jump\t// out\n    /* \"#utility.yul\":9193:10588   */\ntag_13:\n    /* \"#utility.yul\":9310:9347   */\n  tag_205\n    /* \"#utility.yul\":9343:9346   */\n  dup3\n    /* \"#utility.yul\":9310:9347   */\n  tag_66\n  jump\t// in\ntag_205:\n    /* \"#utility.yul\":9412:9430   */\n  0xffffffffffffffff\n    /* \"#utility.yul\":9404:9410   */\n  dup2\n    /* \"#utility.yul\":9401:9431   */\n  gt\n    /* \"#utility.yul\":9398:9454   */\n  iszero\n  tag_206\n  jumpi\n    /* \"#utility.yul\":9434:9452   */\n  tag_207\n  tag_48\n  jump\t// in\ntag_207:\n    /* \"#utility.yul\":9398:9454   */\ntag_206:\n    /* \"#utility.yul\":9478:9516   */\n  tag_208\n    /* \"#utility.yul\":9510:9514   */\n  dup3\n    /* \"#utility.yul\":9504:9515   */\n  sload\n    /* \"#utility.yul\":9478:9516   */\n  tag_68\n  jump\t// in\ntag_208:\n    /* \"#utility.yul\":9563:9630   */\n  tag_209\n    /* \"#utility.yul\":9623:9629   */\n  dup3\n    /* \"#utility.yul\":9615:9621   */\n  dup3\n    /* \"#utility.yul\":9609:9613   */\n  dup6\n    /* \"#utility.yul\":9563:9630   */\n  tag_80\n  jump\t// in\ntag_209:\n    /* \"#utility.yul\":9657:9658   */\n  0x00\n    /* \"#utility.yul\":9681:9685   */\n  0x20\n    /* \"#utility.yul\":9668:9685   */\n  swap1\n  pop\n    /* \"#utility.yul\":9713:9715   */\n  0x1f\n    /* \"#utility.yul\":9705:9711   */\n  dup4\n    /* \"#utility.yul\":9702:9716   */\n  gt\n    /* \"#utility.yul\":9730:9731   */\n  0x01\n    /* \"#utility.yul\":9725:10343   */\n  dup2\n  eq\n  tag_211\n  jumpi\n    /* \"#utility.yul\":10387:10388   */\n  0x00\n    /* \"#utility.yul\":10404:10410   */\n  dup5\n    /* \"#utility.yul\":10401:10478   */\n  iszero\n  tag_212\n  jumpi\n    /* \"#utility.yul\":10453:10462   */\n  dup3\n    /* \"#utility.yul\":10448:10451   */\n  dup8\n    /* \"#utility.yul\":10444:10463   */\n  add\n    /* \"#utility.yul\":10438:10464   */\n  mload\n    /* \"#utility.yul\":10429:10464   */\n  swap1\n  pop\n    /* \"#utility.yul\":10401:10478   */\ntag_212:\n    /* \"#utility.yul\":10504:10571   */\n  tag_213\n    /* \"#utility.yul\":10564:10570   */\n  dup6\n    /* \"#utility.yul\":10557:10562   */\n  dup3\n    /* \"#utility.yul\":10504:10571   */\n  tag_83\n  jump\t// in\ntag_213:\n    /* \"#utility.yul\":10498:10502   */\n  dup7\n    /* \"#utility.yul\":10491:10572   */\n  sstore\n    /* \"#utility.yul\":10360:10582   */\n  pop\n    /* \"#utility.yul\":9695:10582   */\n  jump(tag_210)\n    /* \"#utility.yul\":9725:10343   */\ntag_211:\n    /* \"#utility.yul\":9777:9781   */\n  0x1f\n    /* \"#utility.yul\":9773:9782   */\n  not\n    /* \"#utility.yul\":9765:9771   */\n  dup5\n    /* \"#utility.yul\":9761:9783   */\n  and\n    /* \"#utility.yul\":9811:9848   */\n  tag_214\n    /* \"#utility.yul\":9843:9847   */\n  dup7\n    /* \"#utility.yul\":9811:9848   */\n  tag_69\n  jump\t// in\ntag_214:\n    /* \"#utility.yul\":9870:9871   */\n  0x00\n    /* \"#utility.yul\":9884:10092   */\ntag_215:\n    /* \"#utility.yul\":9898:9905   */\n  dup3\n    /* \"#utility.yul\":9895:9896   */\n  dup2\n    /* \"#utility.yul\":9892:9906   */\n  lt\n    /* \"#utility.yul\":9884:10092   */\n  iszero\n  tag_217\n  jumpi\n    /* \"#utility.yul\":9977:9986   */\n  dup5\n    /* \"#utility.yul\":9972:9975   */\n  dup10\n    /* \"#utility.yul\":9968:9987   */\n  add\n    /* \"#utility.yul\":9962:9988   */\n  mload\n    /* \"#utility.yul\":9954:9960   */\n  dup3\n    /* \"#utility.yul\":9947:9989   */\n  sstore\n    /* \"#utility.yul\":10028:10029   */\n  0x01\n    /* \"#utility.yul\":10020:10026   */\n  dup3\n    /* \"#utility.yul\":10016:10030   */\n  add\n    /* \"#utility.yul\":10006:10030   */\n  swap2\n  pop\n    /* \"#utility.yul\":10075:10077   */\n  0x20\n    /* \"#utility.yul\":10064:10073   */\n  dup6\n    /* \"#utility.yul\":10060:10078   */\n  add\n    /* \"#utility.yul\":10047:10078   */\n  swap5\n  pop\n    /* \"#utility.yul\":9921:9925   */\n  0x20\n    /* \"#utility.yul\":9918:9919   */\n  dup2\n    /* \"#utility.yul\":9914:9926   */\n  add\n    /* \"#utility.yul\":9909:9926   */\n  swap1\n  pop\n    /* \"#utility.yul\":9884:10092   */\n  jump(tag_215)\ntag_217:\n    /* \"#utility.yul\":10120:10126   */\n  dup7\n    /* \"#utility.yul\":10111:10118   */\n  dup4\n    /* \"#utility.yul\":10108:10127   */\n  lt\n    /* \"#utility.yul\":10105:10284   */\n  iszero\n  tag_218\n  jumpi\n    /* \"#utility.yul\":10178:10187   */\n  dup5\n    /* \"#utility.yul\":10173:10176   */\n  dup10\n    /* \"#utility.yul\":10169:10188   */\n  add\n    /* \"#utility.yul\":10163:10189   */\n  mload\n    /* \"#utility.yul\":10221:10269   */\n  tag_219\n    /* \"#utility.yul\":10263:10267   */\n  0x1f\n    /* \"#utility.yul\":10255:10261   */\n  dup10\n    /* \"#utility.yul\":10251:10268   */\n  and\n    /* \"#utility.yul\":10240:10249   */\n  dup3\n    /* \"#utility.yul\":10221:10269   */\n  tag_82\n  jump\t// in\ntag_219:\n    /* \"#utility.yul\":10213:10219   */\n  dup4\n    /* \"#utility.yul\":10206:10270   */\n  sstore\n    /* \"#utility.yul\":10128:10284   */\n  pop\n    /* \"#utility.yul\":10105:10284   */\ntag_218:\n    /* \"#utility.yul\":10330:10331   */\n  0x01\n    /* \"#utility.yul\":10326:10327   */\n  0x02\n    /* \"#utility.yul\":10318:10324   */\n  dup9\n    /* \"#utility.yul\":10314:10328   */\n  mul\n    /* \"#utility.yul\":10310:10332   */\n  add\n    /* \"#utility.yul\":10304:10308   */\n  dup9\n    /* \"#utility.yul\":10297:10333   */\n  sstore\n    /* \"#utility.yul\":9732:10343   */\n  pop\n  pop\n  pop\n    /* \"#utility.yul\":9695:10582   */\ntag_210:\n  pop\n    /* \"#utility.yul\":9285:10588   */\n  pop\n  pop\n  pop\n    /* \"#utility.yul\":9193:10588   */\n  pop\n  pop\n  jump\t// out\n    /* \"#utility.yul\":10594:10774   */\ntag_84:\n    /* \"#utility.yul\":10642:10719   */\n  0x4e487b7100000000000000000000000000000000000000000000000000000000\n    /* \"#utility.yul\":10639:10640   */\n  0x00\n    /* \"#utility.yul\":10632:10720   */\n  mstore\n    /* \"#utility.yul\":10739:10743   */\n  0x21\n    /* \"#utility.yul\":10736:10737   */\n  0x04\n    /* \"#utility.yul\":10729:10744   */\n  mstore\n    /* \"#utility.yul\":10763:10767   */\n  0x24\n    /* \"#utility.yul\":10760:10761   */\n  0x00\n    /* \"#utility.yul\":10753:10768   */\n  revert\n    /* \"#utility.yul\":10780:10898   */\ntag_85:\n    /* \"#utility.yul\":10866:10867   */\n  0x08\n    /* \"#utility.yul\":10859:10864   */\n  dup2\n    /* \"#utility.yul\":10856:10868   */\n  lt\n    /* \"#utility.yul\":10846:10892   */\n  tag_222\n  jumpi\n    /* \"#utility.yul\":10872:10890   */\n  tag_223\n  tag_84\n  jump\t// in\ntag_223:\n    /* \"#utility.yul\":10846:10892   */\ntag_222:\n    /* \"#utility.yul\":10780:10898   */\n  pop\n  jump\t// out\n    /* \"#utility.yul\":10904:11041   */\ntag_86:\n    /* \"#utility.yul\":10954:10961   */\n  0x00\n    /* \"#utility.yul\":10983:10988   */\n  dup2\n    /* \"#utility.yul\":10972:10988   */\n  swap1\n  pop\n    /* \"#utility.yul\":10989:11035   */\n  tag_225\n    /* \"#utility.yul\":11029:11034   */\n  dup3\n    /* \"#utility.yul\":10989:11035   */\n  tag_85\n  jump\t// in\ntag_225:\n    /* \"#utility.yul\":10904:11041   */\n  swap2\n  swap1\n  pop\n  jump\t// out\n    /* \"#utility.yul\":11047:11184   */\ntag_87:\n    /* \"#utility.yul\":11108:11117   */\n  0x00\n    /* \"#utility.yul\":11141:11178   */\n  tag_227\n    /* \"#utility.yul\":11172:11177   */\n  dup3\n    /* \"#utility.yul\":11141:11178   */\n  tag_86\n  jump\t// in\ntag_227:\n    /* \"#utility.yul\":11128:11178   */\n  swap1\n  pop\n    /* \"#utility.yul\":11047:11184   */\n  swap2\n  swap1\n  pop\n  jump\t// out\n    /* \"#utility.yul\":11190:11343   */\ntag_88:\n    /* \"#utility.yul\":11288:11336   */\n  tag_229\n    /* \"#utility.yul\":11330:11335   */\n  dup2\n    /* \"#utility.yul\":11288:11336   */\n  tag_87\n  jump\t// in\ntag_229:\n    /* \"#utility.yul\":11283:11286   */\n  dup3\n    /* \"#utility.yul\":11276:11337   */\n  mstore\n    /* \"#utility.yul\":11190:11343   */\n  pop\n  pop\n  jump\t// out\n    /* \"#utility.yul\":11349:11467   */\ntag_89:\n    /* \"#utility.yul\":11436:11460   */\n  tag_231\n    /* \"#utility.yul\":11454:11459   */\n  dup2\n    /* \"#utility.yul\":11436:11460   */\n  tag_58\n  jump\t// in\ntag_231:\n    /* \"#utility.yul\":11431:11434   */\n  dup3\n    /* \"#utility.yul\":11424:11461   */\n  mstore\n    /* \"#utility.yul\":11349:11467   */\n  pop\n  pop\n  jump\t// out\n    /* \"#utility.yul\":11473:11827   */\ntag_21:\n    /* \"#utility.yul\":11605:11609   */\n  0x00\n    /* \"#utility.yul\":11643:11645   */\n  0x40\n    /* \"#utility.yul\":11632:11641   */\n  dup3\n    /* \"#utility.yul\":11628:11646   */\n  add\n    /* \"#utility.yul\":11620:11646   */\n  swap1\n  pop\n    /* \"#utility.yul\":11656:11738   */\n  tag_233\n    /* \"#utility.yul\":11735:11736   */\n  0x00\n    /* \"#utility.yul\":11724:11733   */\n  dup4\n    /* \"#utility.yul\":11720:11737   */\n  add\n    /* \"#utility.yul\":11711:11717   */\n  dup6\n    /* \"#utility.yul\":11656:11738   */\n  tag_88\n  jump\t// in\ntag_233:\n    /* \"#utility.yul\":11748:11820   */\n  tag_234\n    /* \"#utility.yul\":11816:11818   */\n  0x20\n    /* \"#utility.yul\":11805:11814   */\n  dup4\n    /* \"#utility.yul\":11801:11819   */\n  add\n    /* \"#utility.yul\":11792:11798   */\n  dup5\n    /* \"#utility.yul\":11748:11820   */\n  tag_89\n  jump\t// in\ntag_234:\n    /* \"#utility.yul\":11473:11827   */\n  swap4\n  swap3\n  pop\n  pop\n  pop\n  jump\t// out\n    /* \"#utility.yul\":11833:12002   */\ntag_90:\n    /* \"#utility.yul\":11917:11928   */\n  0x00\n    /* \"#utility.yul\":11951:11957   */\n  dup3\n    /* \"#utility.yul\":11946:11949   */\n  dup3\n    /* \"#utility.yul\":11939:11958   */\n  mstore\n    /* \"#utility.yul\":11991:11995   */\n  0x20\n    /* \"#utility.yul\":11986:11989   */\n  dup3\n    /* \"#utility.yul\":11982:11996   */\n  add\n    /* \"#utility.yul\":11967:11996   */\n  swap1\n  pop\n    /* \"#utility.yul\":11833:12002   */\n  swap3\n  swap2\n  pop\n  pop\n  jump\t// out\n    /* \"#utility.yul\":12008:12189   */\ntag_91:\n    /* \"#utility.yul\":12148:12181   */\n  0x45524332303a206d696e7420746f20746865207a65726f206164647265737300\n    /* \"#utility.yul\":12144:12145   */\n  0x00\n    /* \"#utility.yul\":12136:12142   */\n  dup3\n    /* \"#utility.yul\":12132:12146   */\n  add\n    /* \"#utility.yul\":12125:12182   */\n  mstore\n    /* \"#utility.yul\":12008:12189   */\n  pop\n  jump\t// out\n    /* \"#utility.yul\":12195:12561   */\ntag_92:\n    /* \"#utility.yul\":12337:12340   */\n  0x00\n    /* \"#utility.yul\":12358:12425   */\n  tag_238\n    /* \"#utility.yul\":12422:12424   */\n  0x1f\n    /* \"#utility.yul\":12417:12420   */\n  dup4\n    /* \"#utility.yul\":12358:12425   */\n  tag_90\n  jump\t// in\ntag_238:\n    /* \"#utility.yul\":12351:12425   */\n  swap2\n  pop\n    /* \"#utility.yul\":12434:12527   */\n  tag_239\n    /* \"#utility.yul\":12523:12526   */\n  dup3\n    /* \"#utility.yul\":12434:12527   */\n  tag_91\n  jump\t// in\ntag_239:\n    /* \"#utility.yul\":12552:12554   */\n  0x20\n    /* \"#utility.yul\":12547:12550   */\n  dup3\n    /* \"#utility.yul\":12543:12555   */\n  add\n    /* \"#utility.yul\":12536:12555   */\n  swap1\n  pop\n    /* \"#utility.yul\":12195:12561   */\n  swap2\n  swap1\n  pop\n  jump\t// out\n    /* \"#utility.yul\":12567:12986   */\ntag_30:\n    /* \"#utility.yul\":12733:12737   */\n  0x00\n    /* \"#utility.yul\":12771:12773   */\n  0x20\n    /* \"#utility.yul\":12760:12769   */\n  dup3\n    /* \"#utility.yul\":12756:12774   */\n  add\n    /* \"#utility.yul\":12748:12774   */\n  swap1\n  pop\n    /* \"#utility.yul\":12820:12829   */\n  dup2\n    /* \"#utility.yul\":12814:12818   */\n  dup2\n    /* \"#utility.yul\":12810:12830   */\n  sub\n    /* \"#utility.yul\":12806:12807   */\n  0x00\n    /* \"#utility.yul\":12795:12804   */\n  dup4\n    /* \"#utility.yul\":12791:12808   */\n  add\n    /* \"#utility.yul\":12784:12831   */\n  mstore\n    /* \"#utility.yul\":12848:12979   */\n  tag_241\n    /* \"#utility.yul\":12974:12978   */\n  dup2\n    /* \"#utility.yul\":12848:12979   */\n  tag_92\n  jump\t// in\ntag_241:\n    /* \"#utility.yul\":12840:12979   */\n  swap1\n  pop\n    /* \"#utility.yul\":12567:12986   */\n  swap2\n  swap1\n  pop\n  jump\t// out\n    /* \"#utility.yul\":12992:13214   */\ntag_37:\n    /* \"#utility.yul\":13085:13089   */\n  0x00\n    /* \"#utility.yul\":13123:13125   */\n  0x20\n    /* \"#utility.yul\":13112:13121   */\n  dup3\n    /* \"#utility.yul\":13108:13126   */\n  add\n    /* \"#utility.yul\":13100:13126   */\n  swap1\n  pop\n    /* \"#utility.yul\":13136:13207   */\n  tag_243\n    /* \"#utility.yul\":13204:13205   */\n  0x00\n    /* \"#utility.yul\":13193:13202   */\n  dup4\n    /* \"#utility.yul\":13189:13206   */\n  add\n    /* \"#utility.yul\":13180:13186   */\n  dup5\n    /* \"#utility.yul\":13136:13207   */\n  tag_89\n  jump\t// in\ntag_243:\n    /* \"#utility.yul\":12992:13214   */\n  swap3\n  swap2\n  pop\n  pop\n  jump\t// out\n    /* \"#utility.yul\":13220:13400   */\ntag_93:\n    /* \"#utility.yul\":13268:13345   */\n  0x4e487b7100000000000000000000000000000000000000000000000000000000\n    /* \"#utility.yul\":13265:13266   */\n  0x00\n    /* \"#utility.yul\":13258:13346   */\n  mstore\n    /* \"#utility.yul\":13365:13369   */\n  0x11\n    /* \"#utility.yul\":13362:13363   */\n  0x04\n    /* \"#utility.yul\":13355:13370   */\n  mstore\n    /* \"#utility.yul\":13389:13393   */\n  0x24\n    /* \"#utility.yul\":13386:13387   */\n  0x00\n    /* \"#utility.yul\":13379:13394   */\n  revert\n    /* \"#utility.yul\":13406:13597   */\ntag_41:\n    /* \"#utility.yul\":13446:13449   */\n  0x00\n    /* \"#utility.yul\":13465:13485   */\n  tag_246\n    /* \"#utility.yul\":13483:13484   */\n  dup3\n    /* \"#utility.yul\":13465:13485   */\n  tag_58\n  jump\t// in\ntag_246:\n    /* \"#utility.yul\":13460:13485   */\n  swap2\n  pop\n    /* \"#utility.yul\":13499:13519   */\n  tag_247\n    /* \"#utility.yul\":13517:13518   */\n  dup4\n    /* \"#utility.yul\":13499:13519   */\n  tag_58\n  jump\t// in\ntag_247:\n    /* \"#utility.yul\":13494:13519   */\n  swap3\n  pop\n    /* \"#utility.yul\":13542:13543   */\n  dup3\n    /* \"#utility.yul\":13539:13540   */\n  dup3\n    /* \"#utility.yul\":13535:13544   */\n  add\n    /* \"#utility.yul\":13528:13544   */\n  swap1\n  pop\n    /* \"#utility.yul\":13563:13566   */\n  dup1\n    /* \"#utility.yul\":13560:13561   */\n  dup3\n    /* \"#utility.yul\":13557:13567   */\n  gt\n    /* \"#utility.yul\":13554:13590   */\n  iszero\n  tag_248\n  jumpi\n    /* \"#utility.yul\":13570:13588   */\n  tag_249\n  tag_93\n  jump\t// in\ntag_249:\n    /* \"#utility.yul\":13554:13590   */\ntag_248:\n    /* \"#utility.yul\":13406:13597   */\n  swap3\n  swap2\n  pop\n  pop\n  jump\t// out\n    /* \"contracts/StandardToken_flattened.sol\":14647:25189  contract StandardToken is IERC20, Ownable, BaseToken {... */\ntag_24:\n  dataSize(sub_0)\n  dup1\n  dataOffset(sub_0)\n  0x00\n  codecopy\n  0x00\n  return\nstop\n\nsub_0: assembly {\n        /* \"contracts/StandardToken_flattened.sol\":14647:25189  contract StandardToken is IERC20, Ownable, BaseToken {... */\n      mstore(0x40, 0x80)\n      callvalue\n      dup1\n      iszero\n      tag_1\n      jumpi\n      0x00\n      dup1\n      revert\n    tag_1:\n      pop\n      jumpi(tag_2, lt(calldatasize, 0x04))\n      shr(0xe0, calldataload(0x00))\n      dup1\n      0x715018a6\n      gt\n      tag_18\n      jumpi\n      dup1\n      0xa9059cbb\n      gt\n      tag_19\n      jumpi\n      dup1\n      0xa9059cbb\n      eq\n      tag_14\n      jumpi\n      dup1\n      0xdd62ed3e\n      eq\n      tag_15\n      jumpi\n      dup1\n      0xf2fde38b\n      eq\n      tag_16\n      jumpi\n      dup1\n      0xffa1ad74\n      eq\n      tag_17\n      jumpi\n      jump(tag_2)\n    tag_19:\n      dup1\n      0x715018a6\n      eq\n      tag_10\n      jumpi\n      dup1\n      0x8da5cb5b\n      eq\n      tag_11\n      jumpi\n      dup1\n      0x95d89b41\n      eq\n      tag_12\n      jumpi\n      dup1\n      0xa457c2d7\n      eq\n      tag_13\n      jumpi\n      jump(tag_2)\n    tag_18:\n      dup1\n      0x23b872dd\n      gt\n      tag_20\n      jumpi\n      dup1\n      0x23b872dd\n      eq\n      tag_6\n      jumpi\n      dup1\n      0x313ce567\n      eq\n      tag_7\n      jumpi\n      dup1\n      0x39509351\n      eq\n      tag_8\n      jumpi\n      dup1\n      0x70a08231\n      eq\n      tag_9\n      jumpi\n      jump(tag_2)\n    tag_20:\n      dup1\n      0x06fdde03\n      eq\n      tag_3\n      jumpi\n      dup1\n      0x095ea7b3\n      eq\n      tag_4\n      jumpi\n      dup1\n      0x18160ddd\n      eq\n      tag_5\n      jumpi\n    tag_2:\n      0x00\n      dup1\n      revert\n        /* \"contracts/StandardToken_flattened.sol\":15617:15708  function name() public view virtual returns (string memory) {... */\n    tag_3:\n      tag_21\n      tag_22\n      jump\t// in\n    tag_21:\n      mload(0x40)\n      tag_23\n      swap2\n      swap1\n      tag_24\n      jump\t// in\n    tag_23:\n      mload(0x40)\n      dup1\n      swap2\n      sub\n      swap1\n      return\n        /* \"contracts/StandardToken_flattened.sol\":17904:18114  function approve(address spender, uint256 amount)... */\n    tag_4:\n      tag_25\n      0x04\n      dup1\n      calldatasize\n      sub\n      dup2\n      add\n      swap1\n      tag_26\n      swap2\n      swap1\n      tag_27\n      jump\t// in\n    tag_26:\n      tag_28\n      jump\t// in\n    tag_25:\n      mload(0x40)\n      tag_29\n      swap2\n      swap1\n      tag_30\n      jump\t// in\n    tag_29:\n      mload(0x40)\n      dup1\n      swap2\n      sub\n      swap1\n      return\n        /* \"contracts/StandardToken_flattened.sol\":16716:16824  function totalSupply() public view virtual override returns (uint256) {... */\n    tag_5:\n      tag_31\n      tag_32\n      jump\t// in\n    tag_31:\n      mload(0x40)\n      tag_33\n      swap2\n      swap1\n      tag_34\n      jump\t// in\n    tag_33:\n      mload(0x40)\n      dup1\n      swap2\n      sub\n      swap1\n      return\n        /* \"contracts/StandardToken_flattened.sol\":18596:19050  function transferFrom(... */\n    tag_6:\n      tag_35\n      0x04\n      dup1\n      calldatasize\n      sub\n      dup2\n      add\n      swap1\n      tag_36\n      swap2\n      swap1\n      tag_37\n      jump\t// in\n    tag_36:\n      tag_38\n      jump\t// in\n    tag_35:\n      mload(0x40)\n      tag_39\n      swap2\n      swap1\n      tag_30\n      jump\t// in\n    tag_39:\n      mload(0x40)\n      dup1\n      swap2\n      sub\n      swap1\n      return\n        /* \"contracts/StandardToken_flattened.sol\":16560:16651  function decimals() public view virtual returns (uint8) {... */\n    tag_7:\n      tag_40\n      tag_41\n      jump\t// in\n    tag_40:\n      mload(0x40)\n      tag_42\n      swap2\n      swap1\n      tag_43\n      jump\t// in\n    tag_42:\n      mload(0x40)\n      dup1\n      swap2\n      sub\n      swap1\n      return\n        /* \"contracts/StandardToken_flattened.sol\":19459:19759  function increaseAllowance(address spender, uint256 addedValue)... */\n    tag_8:\n      tag_44\n      0x04\n      dup1\n      calldatasize\n      sub\n      dup2\n      add\n      swap1\n      tag_45\n      swap2\n      swap1\n      tag_27\n      jump\t// in\n    tag_45:\n      tag_46\n      jump\t// in\n    tag_44:\n      mload(0x40)\n      tag_47\n      swap2\n      swap1\n      tag_30\n      jump\t// in\n    tag_47:\n      mload(0x40)\n      dup1\n      swap2\n      sub\n      swap1\n      return\n        /* \"contracts/StandardToken_flattened.sol\":16887:17064  function balanceOf(address account)... */\n    tag_9:\n      tag_48\n      0x04\n      dup1\n      calldatasize\n      sub\n      dup2\n      add\n      swap1\n      tag_49\n      swap2\n      swap1\n      tag_50\n      jump\t// in\n    tag_49:\n      tag_51\n      jump\t// in\n    tag_48:\n      mload(0x40)\n      tag_52\n      swap2\n      swap1\n      tag_34\n      jump\t// in\n    tag_52:\n      mload(0x40)\n      dup1\n      swap2\n      sub\n      swap1\n      return\n        /* \"contracts/StandardToken_flattened.sol\":6356:6459  function renounceOwnership() public virtual onlyOwner {... */\n    tag_10:\n      tag_53\n      tag_54\n      jump\t// in\n    tag_53:\n      stop\n        /* \"contracts/StandardToken_flattened.sol\":5681:5768  function owner() public view virtual returns (address) {... */\n    tag_11:\n      tag_55\n      tag_56\n      jump\t// in\n    tag_55:\n      mload(0x40)\n      tag_57\n      swap2\n      swap1\n      tag_58\n      jump\t// in\n    tag_57:\n      mload(0x40)\n      dup1\n      swap2\n      sub\n      swap1\n      return\n        /* \"contracts/StandardToken_flattened.sol\":15827:15922  function symbol() public view virtual returns (string memory) {... */\n    tag_12:\n      tag_59\n      tag_60\n      jump\t// in\n    tag_59:\n      mload(0x40)\n      tag_61\n      swap2\n      swap1\n      tag_24\n      jump\t// in\n    tag_61:\n      mload(0x40)\n      dup1\n      swap2\n      sub\n      swap1\n      return\n        /* \"contracts/StandardToken_flattened.sol\":20262:20662  function decreaseAllowance(address spender, uint256 subtractedValue)... */\n    tag_13:\n      tag_62\n      0x04\n      dup1\n      calldatasize\n      sub\n      dup2\n      add\n      swap1\n      tag_63\n      swap2\n      swap1\n      tag_27\n      jump\t// in\n    tag_63:\n      tag_64\n      jump\t// in\n    tag_62:\n      mload(0x40)\n      tag_65\n      swap2\n      swap1\n      tag_30\n      jump\t// in\n    tag_65:\n      mload(0x40)\n      dup1\n      swap2\n      sub\n      swap1\n      return\n        /* \"contracts/StandardToken_flattened.sol\":17277:17493  function transfer(address recipient, uint256 amount)... */\n    tag_14:\n      tag_66\n      0x04\n      dup1\n      calldatasize\n      sub\n      dup2\n      add\n      swap1\n      tag_67\n      swap2\n      swap1\n      tag_27\n      jump\t// in\n    tag_67:\n      tag_68\n      jump\t// in\n    tag_66:\n      mload(0x40)\n      tag_69\n      swap2\n      swap1\n      tag_30\n      jump\t// in\n    tag_69:\n      mload(0x40)\n      dup1\n      swap2\n      sub\n      swap1\n      return\n        /* \"contracts/StandardToken_flattened.sol\":17556:17757  function allowance(address owner, address spender)... */\n    tag_15:\n      tag_70\n      0x04\n      dup1\n      calldatasize\n      sub\n      dup2\n      add\n      swap1\n      tag_71\n      swap2\n      swap1\n      tag_72\n      jump\t// in\n    tag_71:\n      tag_73\n      jump\t// in\n    tag_70:\n      mload(0x40)\n      tag_74\n      swap2\n      swap1\n      tag_34\n      jump\t// in\n    tag_74:\n      mload(0x40)\n      dup1\n      swap2\n      sub\n      swap1\n      return\n        /* \"contracts/StandardToken_flattened.sol\":6614:6834  function transferOwnership(address newOwner) public virtual onlyOwner {... */\n    tag_16:\n      tag_75\n      0x04\n      dup1\n      calldatasize\n      sub\n      dup2\n      add\n      swap1\n      tag_76\n      swap2\n      swap1\n      tag_50\n      jump\t// in\n    tag_76:\n      tag_77\n      jump\t// in\n    tag_75:\n      stop\n        /* \"contracts/StandardToken_flattened.sol\":14742:14777  uint256 public constant VERSION = 1 */\n    tag_17:\n      tag_78\n      tag_79\n      jump\t// in\n    tag_78:\n      mload(0x40)\n      tag_80\n      swap2\n      swap1\n      tag_34\n      jump\t// in\n    tag_80:\n      mload(0x40)\n      dup1\n      swap2\n      sub\n      swap1\n      return\n        /* \"contracts/StandardToken_flattened.sol\":15617:15708  function name() public view virtual returns (string memory) {... */\n    tag_22:\n        /* \"contracts/StandardToken_flattened.sol\":15662:15675  string memory */\n      0x60\n        /* \"contracts/StandardToken_flattened.sol\":15695:15700  _name */\n      0x03\n        /* \"contracts/StandardToken_flattened.sol\":15688:15700  return _name */\n      dup1\n      sload\n      tag_82\n      swap1\n      tag_83\n      jump\t// in\n    tag_82:\n      dup1\n      0x1f\n      add\n      0x20\n      dup1\n      swap2\n      div\n      mul\n      0x20\n      add\n      mload(0x40)\n      swap1\n      dup2\n      add\n      0x40\n      mstore\n      dup1\n      swap3\n      swap2\n      swap1\n      dup2\n      dup2\n      mstore\n      0x20\n      add\n      dup3\n      dup1\n      sload\n      tag_84\n      swap1\n      tag_83\n      jump\t// in\n    tag_84:\n      dup1\n      iszero\n      tag_85\n      jumpi\n      dup1\n      0x1f\n      lt\n      tag_86\n      jumpi\n      0x0100\n      dup1\n      dup4\n      sload\n      div\n      mul\n      dup4\n      mstore\n      swap2\n      0x20\n      add\n      swap2\n      jump(tag_85)\n    tag_86:\n      dup3\n      add\n      swap2\n      swap1\n      0x00\n      mstore\n      keccak256(0x00, 0x20)\n      swap1\n    tag_87:\n      dup2\n      sload\n      dup2\n      mstore\n      swap1\n      0x01\n      add\n      swap1\n      0x20\n      add\n      dup1\n      dup4\n      gt\n      tag_87\n      jumpi\n      dup3\n      swap1\n      sub\n      0x1f\n      and\n      dup3\n      add\n      swap2\n    tag_85:\n      pop\n      pop\n      pop\n      pop\n      pop\n      swap1\n      pop\n        /* \"contracts/StandardToken_flattened.sol\":15617:15708  function name() public view virtual returns (string memory) {... */\n      swap1\n      jump\t// out\n        /* \"contracts/StandardToken_flattened.sol\":17904:18114  function approve(address spender, uint256 amount)... */\n    tag_28:\n        /* \"contracts/StandardToken_flattened.sol\":18023:18027  bool */\n      0x00\n        /* \"contracts/StandardToken_flattened.sol\":18045:18084  _approve(_msgSender(), spender, amount) */\n      tag_89\n        /* \"contracts/StandardToken_flattened.sol\":18054:18066  _msgSender() */\n      tag_90\n        /* \"contracts/StandardToken_flattened.sol\":18054:18064  _msgSender */\n      tag_91\n        /* \"contracts/StandardToken_flattened.sol\":18054:18066  _msgSender() */\n      jump\t// in\n    tag_90:\n        /* \"contracts/StandardToken_flattened.sol\":18068:18075  spender */\n      dup5\n        /* \"contracts/StandardToken_flattened.sol\":18077:18083  amount */\n      dup5\n        /* \"contracts/StandardToken_flattened.sol\":18045:18053  _approve */\n      tag_92\n        /* \"contracts/StandardToken_flattened.sol\":18045:18084  _approve(_msgSender(), spender, amount) */\n      jump\t// in\n    tag_89:\n        /* \"contracts/StandardToken_flattened.sol\":18102:18106  true */\n      0x01\n        /* \"contracts/StandardToken_flattened.sol\":18095:18106  return true */\n      swap1\n      pop\n        /* \"contracts/StandardToken_flattened.sol\":17904:18114  function approve(address spender, uint256 amount)... */\n      swap3\n      swap2\n      pop\n      pop\n      jump\t// out\n        /* \"contracts/StandardToken_flattened.sol\":16716:16824  function totalSupply() public view virtual override returns (uint256) {... */\n    tag_32:\n        /* \"contracts/StandardToken_flattened.sol\":16777:16784  uint256 */\n      0x00\n        /* \"contracts/StandardToken_flattened.sol\":16804:16816  _totalSupply */\n      sload(0x06)\n        /* \"contracts/StandardToken_flattened.sol\":16797:16816  return _totalSupply */\n      swap1\n      pop\n        /* \"contracts/StandardToken_flattened.sol\":16716:16824  function totalSupply() public view virtual override returns (uint256) {... */\n      swap1\n      jump\t// out\n        /* \"contracts/StandardToken_flattened.sol\":18596:19050  function transferFrom(... */\n    tag_38:\n        /* \"contracts/StandardToken_flattened.sol\":18736:18740  bool */\n      0x00\n        /* \"contracts/StandardToken_flattened.sol\":18753:18789  _transfer(sender, recipient, amount) */\n      tag_95\n        /* \"contracts/StandardToken_flattened.sol\":18763:18769  sender */\n      dup5\n        /* \"contracts/StandardToken_flattened.sol\":18771:18780  recipient */\n      dup5\n        /* \"contracts/StandardToken_flattened.sol\":18782:18788  amount */\n      dup5\n        /* \"contracts/StandardToken_flattened.sol\":18753:18762  _transfer */\n      tag_96\n        /* \"contracts/StandardToken_flattened.sol\":18753:18789  _transfer(sender, recipient, amount) */\n      jump\t// in\n    tag_95:\n        /* \"contracts/StandardToken_flattened.sol\":18800:19020  _approve(... */\n      tag_97\n        /* \"contracts/StandardToken_flattened.sol\":18823:18829  sender */\n      dup5\n        /* \"contracts/StandardToken_flattened.sol\":18844:18856  _msgSender() */\n      tag_98\n        /* \"contracts/StandardToken_flattened.sol\":18844:18854  _msgSender */\n      tag_91\n        /* \"contracts/StandardToken_flattened.sol\":18844:18856  _msgSender() */\n      jump\t// in\n    tag_98:\n        /* \"contracts/StandardToken_flattened.sol\":18871:19009  _allowances[sender][_msgSender()].sub(... */\n      tag_99\n        /* \"contracts/StandardToken_flattened.sol\":18927:18933  amount */\n      dup6\n        /* \"contracts/StandardToken_flattened.sol\":18871:19009  _allowances[sender][_msgSender()].sub(... */\n      mload(0x40)\n      dup1\n      0x60\n      add\n      0x40\n      mstore\n      dup1\n      0x28\n      dup2\n      mstore\n      0x20\n      add\n      data_974d1b4421da69cc60b481194f0dad36a5bb4e23da810da7a7fb30cdba178330\n      0x28\n      swap2\n      codecopy\n        /* \"contracts/StandardToken_flattened.sol\":18871:18882  _allowances */\n      0x02\n        /* \"contracts/StandardToken_flattened.sol\":18871:18890  _allowances[sender] */\n      0x00\n        /* \"contracts/StandardToken_flattened.sol\":18883:18889  sender */\n      dup12\n        /* \"contracts/StandardToken_flattened.sol\":18871:18890  _allowances[sender] */\n      0xffffffffffffffffffffffffffffffffffffffff\n      and\n      0xffffffffffffffffffffffffffffffffffffffff\n      and\n      dup2\n      mstore\n      0x20\n      add\n      swap1\n      dup2\n      mstore\n      0x20\n      add\n      0x00\n      keccak256\n        /* \"contracts/StandardToken_flattened.sol\":18871:18904  _allowances[sender][_msgSender()] */\n      0x00\n        /* \"contracts/StandardToken_flattened.sol\":18891:18903  _msgSender() */\n      tag_100\n        /* \"contracts/StandardToken_flattened.sol\":18891:18901  _msgSender */\n      tag_91\n        /* \"contracts/StandardToken_flattened.sol\":18891:18903  _msgSender() */\n      jump\t// in\n    tag_100:\n        /* \"contracts/StandardToken_flattened.sol\":18871:18904  _allowances[sender][_msgSender()] */\n      0xffffffffffffffffffffffffffffffffffffffff\n      and\n      0xffffffffffffffffffffffffffffffffffffffff\n      and\n      dup2\n      mstore\n      0x20\n      add\n      swap1\n      dup2\n      mstore\n      0x20\n      add\n      0x00\n      keccak256\n      sload\n        /* \"contracts/StandardToken_flattened.sol\":18871:18908  _allowances[sender][_msgSender()].sub */\n      tag_101\n      swap1\n        /* \"contracts/StandardToken_flattened.sol\":18871:19009  _allowances[sender][_msgSender()].sub(... */\n      swap3\n      swap2\n      swap1\n      0xffffffff\n      and\n      jump\t// in\n    tag_99:\n        /* \"contracts/StandardToken_flattened.sol\":18800:18808  _approve */\n      tag_92\n        /* \"contracts/StandardToken_flattened.sol\":18800:19020  _approve(... */\n      jump\t// in\n    tag_97:\n        /* \"contracts/StandardToken_flattened.sol\":19038:19042  true */\n      0x01\n        /* \"contracts/StandardToken_flattened.sol\":19031:19042  return true */\n      swap1\n      pop\n        /* \"contracts/StandardToken_flattened.sol\":18596:19050  function transferFrom(... */\n      swap4\n      swap3\n      pop\n      pop\n      pop\n      jump\t// out\n        /* \"contracts/StandardToken_flattened.sol\":16560:16651  function decimals() public view virtual returns (uint8) {... */\n    tag_41:\n        /* \"contracts/StandardToken_flattened.sol\":16609:16614  uint8 */\n      0x00\n        /* \"contracts/StandardToken_flattened.sol\":16634:16643  _decimals */\n      0x05\n      0x00\n      swap1\n      sload\n      swap1\n      0x0100\n      exp\n      swap1\n      div\n      0xff\n      and\n        /* \"contracts/StandardToken_flattened.sol\":16627:16643  return _decimals */\n      swap1\n      pop\n        /* \"contracts/StandardToken_flattened.sol\":16560:16651  function decimals() public view virtual returns (uint8) {... */\n      swap1\n      jump\t// out\n        /* \"contracts/StandardToken_flattened.sol\":19459:19759  function increaseAllowance(address spender, uint256 addedValue)... */\n    tag_46:\n        /* \"contracts/StandardToken_flattened.sol\":19574:19578  bool */\n      0x00\n        /* \"contracts/StandardToken_flattened.sol\":19596:19729  _approve(... */\n      tag_104\n        /* \"contracts/StandardToken_flattened.sol\":19619:19631  _msgSender() */\n      tag_105\n        /* \"contracts/StandardToken_flattened.sol\":19619:19629  _msgSender */\n      tag_91\n        /* \"contracts/StandardToken_flattened.sol\":19619:19631  _msgSender() */\n      jump\t// in\n    tag_105:\n        /* \"contracts/StandardToken_flattened.sol\":19646:19653  spender */\n      dup5\n        /* \"contracts/StandardToken_flattened.sol\":19668:19718  _allowances[_msgSender()][spender].add(addedValue) */\n      tag_106\n        /* \"contracts/StandardToken_flattened.sol\":19707:19717  addedValue */\n      dup6\n        /* \"contracts/StandardToken_flattened.sol\":19668:19679  _allowances */\n      0x02\n        /* \"contracts/StandardToken_flattened.sol\":19668:19693  _allowances[_msgSender()] */\n      0x00\n        /* \"contracts/StandardToken_flattened.sol\":19680:19692  _msgSender() */\n      tag_107\n        /* \"contracts/StandardToken_flattened.sol\":19680:19690  _msgSender */\n      tag_91\n        /* \"contracts/StandardToken_flattened.sol\":19680:19692  _msgSender() */\n      jump\t// in\n    tag_107:\n        /* \"contracts/StandardToken_flattened.sol\":19668:19693  _allowances[_msgSender()] */\n      0xffffffffffffffffffffffffffffffffffffffff\n      and\n      0xffffffffffffffffffffffffffffffffffffffff\n      and\n      dup2\n      mstore\n      0x20\n      add\n      swap1\n      dup2\n      mstore\n      0x20\n      add\n      0x00\n      keccak256\n        /* \"contracts/StandardToken_flattened.sol\":19668:19702  _allowances[_msgSender()][spender] */\n      0x00\n        /* \"contracts/StandardToken_flattened.sol\":19694:19701  spender */\n      dup10\n        /* \"contracts/StandardToken_flattened.sol\":19668:19702  _allowances[_msgSender()][spender] */\n      0xffffffffffffffffffffffffffffffffffffffff\n      and\n      0xffffffffffffffffffffffffffffffffffffffff\n      and\n      dup2\n      mstore\n      0x20\n      add\n      swap1\n      dup2\n      mstore\n      0x20\n      add\n      0x00\n      keccak256\n      sload\n        /* \"contracts/StandardToken_flattened.sol\":19668:19706  _allowances[_msgSender()][spender].add */\n      tag_108\n      swap1\n        /* \"contracts/StandardToken_flattened.sol\":19668:19718  _allowances[_msgSender()][spender].add(addedValue) */\n      swap2\n      swap1\n      0xffffffff\n      and\n      jump\t// in\n    tag_106:\n        /* \"contracts/StandardToken_flattened.sol\":19596:19604  _approve */\n      tag_92\n        /* \"contracts/StandardToken_flattened.sol\":19596:19729  _approve(... */\n      jump\t// in\n    tag_104:\n        /* \"contracts/StandardToken_flattened.sol\":19747:19751  true */\n      0x01\n        /* \"contracts/StandardToken_flattened.sol\":19740:19751  return true */\n      swap1\n      pop\n        /* \"contracts/StandardToken_flattened.sol\":19459:19759  function increaseAllowance(address spender, uint256 addedValue)... */\n      swap3\n      swap2\n      pop\n      pop\n      jump\t// out\n        /* \"contracts/StandardToken_flattened.sol\":16887:17064  function balanceOf(address account)... */\n    tag_51:\n        /* \"contracts/StandardToken_flattened.sol\":17006:17013  uint256 */\n      0x00\n        /* \"contracts/StandardToken_flattened.sol\":17038:17047  _balances */\n      0x01\n        /* \"contracts/StandardToken_flattened.sol\":17038:17056  _balances[account] */\n      0x00\n        /* \"contracts/StandardToken_flattened.sol\":17048:17055  account */\n      dup4\n        /* \"contracts/StandardToken_flattened.sol\":17038:17056  _balances[account] */\n      0xffffffffffffffffffffffffffffffffffffffff\n      and\n      0xffffffffffffffffffffffffffffffffffffffff\n      and\n      dup2\n      mstore\n      0x20\n      add\n      swap1\n      dup2\n      mstore\n      0x20\n      add\n      0x00\n      keccak256\n      sload\n        /* \"contracts/StandardToken_flattened.sol\":17031:17056  return _balances[account] */\n      swap1\n      pop\n        /* \"contracts/StandardToken_flattened.sol\":16887:17064  function balanceOf(address account)... */\n      swap2\n      swap1\n      pop\n      jump\t// out\n        /* \"contracts/StandardToken_flattened.sol\":6356:6459  function renounceOwnership() public virtual onlyOwner {... */\n    tag_54:\n        /* \"contracts/StandardToken_flattened.sol\":5567:5580  _checkOwner() */\n      tag_111\n        /* \"contracts/StandardToken_flattened.sol\":5567:5578  _checkOwner */\n      tag_112\n        /* \"contracts/StandardToken_flattened.sol\":5567:5580  _checkOwner() */\n      jump\t// in\n    tag_111:\n        /* \"contracts/StandardToken_flattened.sol\":6421:6451  _transferOwnership(address(0)) */\n      tag_114\n        /* \"contracts/StandardToken_flattened.sol\":6448:6449  0 */\n      0x00\n        /* \"contracts/StandardToken_flattened.sol\":6421:6439  _transferOwnership */\n      tag_115\n        /* \"contracts/StandardToken_flattened.sol\":6421:6451  _transferOwnership(address(0)) */\n      jump\t// in\n    tag_114:\n        /* \"contracts/StandardToken_flattened.sol\":6356:6459  function renounceOwnership() public virtual onlyOwner {... */\n      jump\t// out\n        /* \"contracts/StandardToken_flattened.sol\":5681:5768  function owner() public view virtual returns (address) {... */\n    tag_56:\n        /* \"contracts/StandardToken_flattened.sol\":5727:5734  address */\n      0x00\n        /* \"contracts/StandardToken_flattened.sol\":5754:5760  _owner */\n      dup1\n      0x00\n      swap1\n      sload\n      swap1\n      0x0100\n      exp\n      swap1\n      div\n      0xffffffffffffffffffffffffffffffffffffffff\n      and\n        /* \"contracts/StandardToken_flattened.sol\":5747:5760  return _owner */\n      swap1\n      pop\n        /* \"contracts/StandardToken_flattened.sol\":5681:5768  function owner() public view virtual returns (address) {... */\n      swap1\n      jump\t// out\n        /* \"contracts/StandardToken_flattened.sol\":15827:15922  function symbol() public view virtual returns (string memory) {... */\n    tag_60:\n        /* \"contracts/StandardToken_flattened.sol\":15874:15887  string memory */\n      0x60\n        /* \"contracts/StandardToken_flattened.sol\":15907:15914  _symbol */\n      0x04\n        /* \"contracts/StandardToken_flattened.sol\":15900:15914  return _symbol */\n      dup1\n      sload\n      tag_118\n      swap1\n      tag_83\n      jump\t// in\n    tag_118:\n      dup1\n      0x1f\n      add\n      0x20\n      dup1\n      swap2\n      div\n      mul\n      0x20\n      add\n      mload(0x40)\n      swap1\n      dup2\n      add\n      0x40\n      mstore\n      dup1\n      swap3\n      swap2\n      swap1\n      dup2\n      dup2\n      mstore\n      0x20\n      add\n      dup3\n      dup1\n      sload\n      tag_119\n      swap1\n      tag_83\n      jump\t// in\n    tag_119:\n      dup1\n      iszero\n      tag_120\n      jumpi\n      dup1\n      0x1f\n      lt\n      tag_121\n      jumpi\n      0x0100\n      dup1\n      dup4\n      sload\n      div\n      mul\n      dup4\n      mstore\n      swap2\n      0x20\n      add\n      swap2\n      jump(tag_120)\n    tag_121:\n      dup3\n      add\n      swap2\n      swap1\n      0x00\n      mstore\n      keccak256(0x00, 0x20)\n      swap1\n    tag_122:\n      dup2\n      sload\n      dup2\n      mstore\n      swap1\n      0x01\n      add\n      swap1\n      0x20\n      add\n      dup1\n      dup4\n      gt\n      tag_122\n      jumpi\n      dup3\n      swap1\n      sub\n      0x1f\n      and\n      dup3\n      add\n      swap2\n    tag_120:\n      pop\n      pop\n      pop\n      pop\n      pop\n      swap1\n      pop\n        /* \"contracts/StandardToken_flattened.sol\":15827:15922  function symbol() public view virtual returns (string memory) {... */\n      swap1\n      jump\t// out\n        /* \"contracts/StandardToken_flattened.sol\":20262:20662  function decreaseAllowance(address spender, uint256 subtractedValue)... */\n    tag_64:\n        /* \"contracts/StandardToken_flattened.sol\":20382:20386  bool */\n      0x00\n        /* \"contracts/StandardToken_flattened.sol\":20404:20632  _approve(... */\n      tag_124\n        /* \"contracts/StandardToken_flattened.sol\":20427:20439  _msgSender() */\n      tag_125\n        /* \"contracts/StandardToken_flattened.sol\":20427:20437  _msgSender */\n      tag_91\n        /* \"contracts/StandardToken_flattened.sol\":20427:20439  _msgSender() */\n      jump\t// in\n    tag_125:\n        /* \"contracts/StandardToken_flattened.sol\":20454:20461  spender */\n      dup5\n        /* \"contracts/StandardToken_flattened.sol\":20476:20621  _allowances[_msgSender()][spender].sub(... */\n      tag_126\n        /* \"contracts/StandardToken_flattened.sol\":20533:20548  subtractedValue */\n      dup6\n        /* \"contracts/StandardToken_flattened.sol\":20476:20621  _allowances[_msgSender()][spender].sub(... */\n      mload(0x40)\n      dup1\n      0x60\n      add\n      0x40\n      mstore\n      dup1\n      0x25\n      dup2\n      mstore\n      0x20\n      add\n      data_f8b476f7d28209d77d4a4ac1fe36b9f8259aa1bb6bddfa6e89de7e51615cf8a8\n      0x25\n      swap2\n      codecopy\n        /* \"contracts/StandardToken_flattened.sol\":20476:20487  _allowances */\n      0x02\n        /* \"contracts/StandardToken_flattened.sol\":20476:20501  _allowances[_msgSender()] */\n      0x00\n        /* \"contracts/StandardToken_flattened.sol\":20488:20500  _msgSender() */\n      tag_127\n        /* \"contracts/StandardToken_flattened.sol\":20488:20498  _msgSender */\n      tag_91\n        /* \"contracts/StandardToken_flattened.sol\":20488:20500  _msgSender() */\n      jump\t// in\n    tag_127:\n        /* \"contracts/StandardToken_flattened.sol\":20476:20501  _allowances[_msgSender()] */\n      0xffffffffffffffffffffffffffffffffffffffff\n      and\n      0xffffffffffffffffffffffffffffffffffffffff\n      and\n      dup2\n      mstore\n      0x20\n      add\n      swap1\n      dup2\n      mstore\n      0x20\n      add\n      0x00\n      keccak256\n        /* \"contracts/StandardToken_flattened.sol\":20476:20510  _allowances[_msgSender()][spender] */\n      0x00\n        /* \"contracts/StandardToken_flattened.sol\":20502:20509  spender */\n      dup11\n        /* \"contracts/StandardToken_flattened.sol\":20476:20510  _allowances[_msgSender()][spender] */\n      0xffffffffffffffffffffffffffffffffffffffff\n      and\n      0xffffffffffffffffffffffffffffffffffffffff\n      and\n      dup2\n      mstore\n      0x20\n      add\n      swap1\n      dup2\n      mstore\n      0x20\n      add\n      0x00\n      keccak256\n      sload\n        /* \"contracts/StandardToken_flattened.sol\":20476:20514  _allowances[_msgSender()][spender].sub */\n      tag_101\n      swap1\n        /* \"contracts/StandardToken_flattened.sol\":20476:20621  _allowances[_msgSender()][spender].sub(... */\n      swap3\n      swap2\n      swap1\n      0xffffffff\n      and\n      jump\t// in\n    tag_126:\n        /* \"contracts/StandardToken_flattened.sol\":20404:20412  _approve */\n      tag_92\n        /* \"contracts/StandardToken_flattened.sol\":20404:20632  _approve(... */\n      jump\t// in\n    tag_124:\n        /* \"contracts/StandardToken_flattened.sol\":20650:20654  true */\n      0x01\n        /* \"contracts/StandardToken_flattened.sol\":20643:20654  return true */\n      swap1\n      pop\n        /* \"contracts/StandardToken_flattened.sol\":20262:20662  function decreaseAllowance(address spender, uint256 subtractedValue)... */\n      swap3\n      swap2\n      pop\n      pop\n      jump\t// out\n        /* \"contracts/StandardToken_flattened.sol\":17277:17493  function transfer(address recipient, uint256 amount)... */\n    tag_68:\n        /* \"contracts/StandardToken_flattened.sol\":17399:17403  bool */\n      0x00\n        /* \"contracts/StandardToken_flattened.sol\":17421:17463  _transfer(_msgSender(), recipient, amount) */\n      tag_129\n        /* \"contracts/StandardToken_flattened.sol\":17431:17443  _msgSender() */\n      tag_130\n        /* \"contracts/StandardToken_flattened.sol\":17431:17441  _msgSender */\n      tag_91\n        /* \"contracts/StandardToken_flattened.sol\":17431:17443  _msgSender() */\n      jump\t// in\n    tag_130:\n        /* \"contracts/StandardToken_flattened.sol\":17445:17454  recipient */\n      dup5\n        /* \"contracts/StandardToken_flattened.sol\":17456:17462  amount */\n      dup5\n        /* \"contracts/StandardToken_flattened.sol\":17421:17430  _transfer */\n      tag_96\n        /* \"contracts/StandardToken_flattened.sol\":17421:17463  _transfer(_msgSender(), recipient, amount) */\n      jump\t// in\n    tag_129:\n        /* \"contracts/StandardToken_flattened.sol\":17481:17485  true */\n      0x01\n        /* \"contracts/StandardToken_flattened.sol\":17474:17485  return true */\n      swap1\n      pop\n        /* \"contracts/StandardToken_flattened.sol\":17277:17493  function transfer(address recipient, uint256 amount)... */\n      swap3\n      swap2\n      pop\n      pop\n      jump\t// out\n        /* \"contracts/StandardToken_flattened.sol\":17556:17757  function allowance(address owner, address spender)... */\n    tag_73:\n        /* \"contracts/StandardToken_flattened.sol\":17690:17697  uint256 */\n      0x00\n        /* \"contracts/StandardToken_flattened.sol\":17722:17733  _allowances */\n      0x02\n        /* \"contracts/StandardToken_flattened.sol\":17722:17740  _allowances[owner] */\n      0x00\n        /* \"contracts/StandardToken_flattened.sol\":17734:17739  owner */\n      dup5\n        /* \"contracts/StandardToken_flattened.sol\":17722:17740  _allowances[owner] */\n      0xffffffffffffffffffffffffffffffffffffffff\n      and\n      0xffffffffffffffffffffffffffffffffffffffff\n      and\n      dup2\n      mstore\n      0x20\n      add\n      swap1\n      dup2\n      mstore\n      0x20\n      add\n      0x00\n      keccak256\n        /* \"contracts/StandardToken_flattened.sol\":17722:17749  _allowances[owner][spender] */\n      0x00\n        /* \"contracts/StandardToken_flattened.sol\":17741:17748  spender */\n      dup4\n        /* \"contracts/StandardToken_flattened.sol\":17722:17749  _allowances[owner][spender] */\n      0xffffffffffffffffffffffffffffffffffffffff\n      and\n      0xffffffffffffffffffffffffffffffffffffffff\n      and\n      dup2\n      mstore\n      0x20\n      add\n      swap1\n      dup2\n      mstore\n      0x20\n      add\n      0x00\n      keccak256\n      sload\n        /* \"contracts/StandardToken_flattened.sol\":17715:17749  return _allowances[owner][spender] */\n      swap1\n      pop\n        /* \"contracts/StandardToken_flattened.sol\":17556:17757  function allowance(address owner, address spender)... */\n      swap3\n      swap2\n      pop\n      pop\n      jump\t// out\n        /* \"contracts/StandardToken_flattened.sol\":6614:6834  function transferOwnership(address newOwner) public virtual onlyOwner {... */\n    tag_77:\n        /* \"contracts/StandardToken_flattened.sol\":5567:5580  _checkOwner() */\n      tag_133\n        /* \"contracts/StandardToken_flattened.sol\":5567:5578  _checkOwner */\n      tag_112\n        /* \"contracts/StandardToken_flattened.sol\":5567:5580  _checkOwner() */\n      jump\t// in\n    tag_133:\n        /* \"contracts/StandardToken_flattened.sol\":6719:6720  0 */\n      0x00\n        /* \"contracts/StandardToken_flattened.sol\":6699:6721  newOwner == address(0) */\n      0xffffffffffffffffffffffffffffffffffffffff\n      and\n        /* \"contracts/StandardToken_flattened.sol\":6699:6707  newOwner */\n      dup2\n        /* \"contracts/StandardToken_flattened.sol\":6699:6721  newOwner == address(0) */\n      0xffffffffffffffffffffffffffffffffffffffff\n      and\n      sub\n        /* \"contracts/StandardToken_flattened.sol\":6695:6788  if (newOwner == address(0)) {... */\n      tag_135\n      jumpi\n        /* \"contracts/StandardToken_flattened.sol\":6773:6774  0 */\n      0x00\n        /* \"contracts/StandardToken_flattened.sol\":6745:6776  OwnableInvalidOwner(address(0)) */\n      mload(0x40)\n      0x1e4fbdf700000000000000000000000000000000000000000000000000000000\n      dup2\n      mstore\n      0x04\n      add\n      tag_136\n      swap2\n      swap1\n      tag_58\n      jump\t// in\n    tag_136:\n      mload(0x40)\n      dup1\n      swap2\n      sub\n      swap1\n      revert\n        /* \"contracts/StandardToken_flattened.sol\":6695:6788  if (newOwner == address(0)) {... */\n    tag_135:\n        /* \"contracts/StandardToken_flattened.sol\":6798:6826  _transferOwnership(newOwner) */\n      tag_137\n        /* \"contracts/StandardToken_flattened.sol\":6817:6825  newOwner */\n      dup2\n        /* \"contracts/StandardToken_flattened.sol\":6798:6816  _transferOwnership */\n      tag_115\n        /* \"contracts/StandardToken_flattened.sol\":6798:6826  _transferOwnership(newOwner) */\n      jump\t// in\n    tag_137:\n        /* \"contracts/StandardToken_flattened.sol\":6614:6834  function transferOwnership(address newOwner) public virtual onlyOwner {... */\n      pop\n      jump\t// out\n        /* \"contracts/StandardToken_flattened.sol\":14742:14777  uint256 public constant VERSION = 1 */\n    tag_79:\n        /* \"contracts/StandardToken_flattened.sol\":14776:14777  1 */\n      0x01\n        /* \"contracts/StandardToken_flattened.sol\":14742:14777  uint256 public constant VERSION = 1 */\n      dup2\n      jump\t// out\n        /* \"contracts/StandardToken_flattened.sol\":3690:3788  function _msgSender() internal view virtual returns (address) {... */\n    tag_91:\n        /* \"contracts/StandardToken_flattened.sol\":3743:3750  address */\n      0x00\n        /* \"contracts/StandardToken_flattened.sol\":3770:3780  msg.sender */\n      caller\n        /* \"contracts/StandardToken_flattened.sol\":3763:3780  return msg.sender */\n      swap1\n      pop\n        /* \"contracts/StandardToken_flattened.sol\":3690:3788  function _msgSender() internal view virtual returns (address) {... */\n      swap1\n      jump\t// out\n        /* \"contracts/StandardToken_flattened.sol\":23648:24028  function _approve(... */\n    tag_92:\n        /* \"contracts/StandardToken_flattened.sol\":23801:23802  0 */\n      0x00\n        /* \"contracts/StandardToken_flattened.sol\":23784:23803  owner != address(0) */\n      0xffffffffffffffffffffffffffffffffffffffff\n      and\n        /* \"contracts/StandardToken_flattened.sol\":23784:23789  owner */\n      dup4\n        /* \"contracts/StandardToken_flattened.sol\":23784:23803  owner != address(0) */\n      0xffffffffffffffffffffffffffffffffffffffff\n      and\n      sub\n        /* \"contracts/StandardToken_flattened.sol\":23776:23844  require(owner != address(0), \"ERC20: approve from the zero address\") */\n      tag_140\n      jumpi\n      mload(0x40)\n      0x08c379a000000000000000000000000000000000000000000000000000000000\n      dup2\n      mstore\n      0x04\n      add\n      tag_141\n      swap1\n      tag_142\n      jump\t// in\n    tag_141:\n      mload(0x40)\n      dup1\n      swap2\n      sub\n      swap1\n      revert\n    tag_140:\n        /* \"contracts/StandardToken_flattened.sol\":23882:23883  0 */\n      0x00\n        /* \"contracts/StandardToken_flattened.sol\":23863:23884  spender != address(0) */\n      0xffffffffffffffffffffffffffffffffffffffff\n      and\n        /* \"contracts/StandardToken_flattened.sol\":23863:23870  spender */\n      dup3\n        /* \"contracts/StandardToken_flattened.sol\":23863:23884  spender != address(0) */\n      0xffffffffffffffffffffffffffffffffffffffff\n      and\n      sub\n        /* \"contracts/StandardToken_flattened.sol\":23855:23923  require(spender != address(0), \"ERC20: approve to the zero address\") */\n      tag_143\n      jumpi\n      mload(0x40)\n      0x08c379a000000000000000000000000000000000000000000000000000000000\n      dup2\n      mstore\n      0x04\n      add\n      tag_144\n      swap1\n      tag_145\n      jump\t// in\n    tag_144:\n      mload(0x40)\n      dup1\n      swap2\n      sub\n      swap1\n      revert\n    tag_143:\n        /* \"contracts/StandardToken_flattened.sol\":23966:23972  amount */\n      dup1\n        /* \"contracts/StandardToken_flattened.sol\":23936:23947  _allowances */\n      0x02\n        /* \"contracts/StandardToken_flattened.sol\":23936:23954  _allowances[owner] */\n      0x00\n        /* \"contracts/StandardToken_flattened.sol\":23948:23953  owner */\n      dup6\n        /* \"contracts/StandardToken_flattened.sol\":23936:23954  _allowances[owner] */\n      0xffffffffffffffffffffffffffffffffffffffff\n      and\n      0xffffffffffffffffffffffffffffffffffffffff\n      and\n      dup2\n      mstore\n      0x20\n      add\n      swap1\n      dup2\n      mstore\n      0x20\n      add\n      0x00\n      keccak256\n        /* \"contracts/StandardToken_flattened.sol\":23936:23963  _allowances[owner][spender] */\n      0x00\n        /* \"contracts/StandardToken_flattened.sol\":23955:23962  spender */\n      dup5\n        /* \"contracts/StandardToken_flattened.sol\":23936:23963  _allowances[owner][spender] */\n      0xffffffffffffffffffffffffffffffffffffffff\n      and\n      0xffffffffffffffffffffffffffffffffffffffff\n      and\n      dup2\n      mstore\n      0x20\n      add\n      swap1\n      dup2\n      mstore\n      0x20\n      add\n      0x00\n      keccak256\n        /* \"contracts/StandardToken_flattened.sol\":23936:23972  _allowances[owner][spender] = amount */\n      dup2\n      swap1\n      sstore\n      pop\n        /* \"contracts/StandardToken_flattened.sol\":24004:24011  spender */\n      dup2\n        /* \"contracts/StandardToken_flattened.sol\":23988:24020  Approval(owner, spender, amount) */\n      0xffffffffffffffffffffffffffffffffffffffff\n      and\n        /* \"contracts/StandardToken_flattened.sol\":23997:24002  owner */\n      dup4\n        /* \"contracts/StandardToken_flattened.sol\":23988:24020  Approval(owner, spender, amount) */\n      0xffffffffffffffffffffffffffffffffffffffff\n      and\n      0x8c5be1e5ebec7d5bd14f71427d1e84f3dd0314c0f7b2291e5b200ac8c7c3b925\n        /* \"contracts/StandardToken_flattened.sol\":24013:24019  amount */\n      dup4\n        /* \"contracts/StandardToken_flattened.sol\":23988:24020  Approval(owner, spender, amount) */\n      mload(0x40)\n      tag_146\n      swap2\n      swap1\n      tag_34\n      jump\t// in\n    tag_146:\n      mload(0x40)\n      dup1\n      swap2\n      sub\n      swap1\n      log3\n        /* \"contracts/StandardToken_flattened.sol\":23648:24028  function _approve(... */\n      pop\n      pop\n      pop\n      jump\t// out\n        /* \"contracts/StandardToken_flattened.sol\":21152:21762  function _transfer(... */\n    tag_96:\n        /* \"contracts/StandardToken_flattened.sol\":21310:21311  0 */\n      0x00\n        /* \"contracts/StandardToken_flattened.sol\":21292:21312  sender != address(0) */\n      0xffffffffffffffffffffffffffffffffffffffff\n      and\n        /* \"contracts/StandardToken_flattened.sol\":21292:21298  sender */\n      dup4\n        /* \"contracts/StandardToken_flattened.sol\":21292:21312  sender != address(0) */\n      0xffffffffffffffffffffffffffffffffffffffff\n      and\n      sub\n        /* \"contracts/StandardToken_flattened.sol\":21284:21354  require(sender != address(0), \"ERC20: transfer from the zero address\") */\n      tag_148\n      jumpi\n      mload(0x40)\n      0x08c379a000000000000000000000000000000000000000000000000000000000\n      dup2\n      mstore\n      0x04\n      add\n      tag_149\n      swap1\n      tag_150\n      jump\t// in\n    tag_149:\n      mload(0x40)\n      dup1\n      swap2\n      sub\n      swap1\n      revert\n    tag_148:\n        /* \"contracts/StandardToken_flattened.sol\":21394:21395  0 */\n      0x00\n        /* \"contracts/StandardToken_flattened.sol\":21373:21396  recipient != address(0) */\n      0xffffffffffffffffffffffffffffffffffffffff\n      and\n        /* \"contracts/StandardToken_flattened.sol\":21373:21382  recipient */\n      dup3\n        /* \"contracts/StandardToken_flattened.sol\":21373:21396  recipient != address(0) */\n      0xffffffffffffffffffffffffffffffffffffffff\n      and\n      sub\n        /* \"contracts/StandardToken_flattened.sol\":21365:21436  require(recipient != address(0), \"ERC20: transfer to the zero address\") */\n      tag_151\n      jumpi\n      mload(0x40)\n      0x08c379a000000000000000000000000000000000000000000000000000000000\n      dup2\n      mstore\n      0x04\n      add\n      tag_152\n      swap1\n      tag_153\n      jump\t// in\n    tag_152:\n      mload(0x40)\n      dup1\n      swap2\n      sub\n      swap1\n      revert\n    tag_151:\n        /* \"contracts/StandardToken_flattened.sol\":21449:21496  _beforeTokenTransfer(sender, recipient, amount) */\n      tag_154\n        /* \"contracts/StandardToken_flattened.sol\":21470:21476  sender */\n      dup4\n        /* \"contracts/StandardToken_flattened.sol\":21478:21487  recipient */\n      dup4\n        /* \"contracts/StandardToken_flattened.sol\":21489:21495  amount */\n      dup4\n        /* \"contracts/StandardToken_flattened.sol\":21449:21469  _beforeTokenTransfer */\n      tag_155\n        /* \"contracts/StandardToken_flattened.sol\":21449:21496  _beforeTokenTransfer(sender, recipient, amount) */\n      jump\t// in\n    tag_154:\n        /* \"contracts/StandardToken_flattened.sol\":21529:21637  _balances[sender].sub(... */\n      tag_156\n        /* \"contracts/StandardToken_flattened.sol\":21565:21571  amount */\n      dup2\n        /* \"contracts/StandardToken_flattened.sol\":21529:21637  _balances[sender].sub(... */\n      mload(0x40)\n      dup1\n      0x60\n      add\n      0x40\n      mstore\n      dup1\n      0x26\n      dup2\n      mstore\n      0x20\n      add\n      data_4107e8a8b9e94bf8ff83080ddec1c0bffe897ebc2241b89d44f66b3d274088b6\n      0x26\n      swap2\n      codecopy\n        /* \"contracts/StandardToken_flattened.sol\":21529:21538  _balances */\n      0x01\n        /* \"contracts/StandardToken_flattened.sol\":21529:21546  _balances[sender] */\n      0x00\n        /* \"contracts/StandardToken_flattened.sol\":21539:21545  sender */\n      dup8\n        /* \"contracts/StandardToken_flattened.sol\":21529:21546  _balances[sender] */\n      0xffffffffffffffffffffffffffffffffffffffff\n      and\n      0xffffffffffffffffffffffffffffffffffffffff\n      and\n      dup2\n      mstore\n      0x20\n      add\n      swap1\n      dup2\n      mstore\n      0x20\n      add\n      0x00\n      keccak256\n      sload\n        /* \"contracts/StandardToken_flattened.sol\":21529:21550  _balances[sender].sub */\n      tag_101\n      swap1\n        /* \"contracts/StandardToken_flattened.sol\":21529:21637  _balances[sender].sub(... */\n      swap3\n      swap2\n      swap1\n      0xffffffff\n      and\n      jump\t// in\n    tag_156:\n        /* \"contracts/StandardToken_flattened.sol\":21509:21518  _balances */\n      0x01\n        /* \"contracts/StandardToken_flattened.sol\":21509:21526  _balances[sender] */\n      0x00\n        /* \"contracts/StandardToken_flattened.sol\":21519:21525  sender */\n      dup6\n        /* \"contracts/StandardToken_flattened.sol\":21509:21526  _balances[sender] */\n      0xffffffffffffffffffffffffffffffffffffffff\n      and\n      0xffffffffffffffffffffffffffffffffffffffff\n      and\n      dup2\n      mstore\n      0x20\n      add\n      swap1\n      dup2\n      mstore\n      0x20\n      add\n      0x00\n      keccak256\n        /* \"contracts/StandardToken_flattened.sol\":21509:21637  _balances[sender] = _balances[sender].sub(... */\n      dup2\n      swap1\n      sstore\n      pop\n        /* \"contracts/StandardToken_flattened.sol\":21671:21703  _balances[recipient].add(amount) */\n      tag_157\n        /* \"contracts/StandardToken_flattened.sol\":21696:21702  amount */\n      dup2\n        /* \"contracts/StandardToken_flattened.sol\":21671:21680  _balances */\n      0x01\n        /* \"contracts/StandardToken_flattened.sol\":21671:21691  _balances[recipient] */\n      0x00\n        /* \"contracts/StandardToken_flattened.sol\":21681:21690  recipient */\n      dup6\n        /* \"contracts/StandardToken_flattened.sol\":21671:21691  _balances[recipient] */\n      0xffffffffffffffffffffffffffffffffffffffff\n      and\n      0xffffffffffffffffffffffffffffffffffffffff\n      and\n      dup2\n      mstore\n      0x20\n      add\n      swap1\n      dup2\n      mstore\n      0x20\n      add\n      0x00\n      keccak256\n      sload\n        /* \"contracts/StandardToken_flattened.sol\":21671:21695  _balances[recipient].add */\n      tag_108\n      swap1\n        /* \"contracts/StandardToken_flattened.sol\":21671:21703  _balances[recipient].add(amount) */\n      swap2\n      swap1\n      0xffffffff\n      and\n      jump\t// in\n    tag_157:\n        /* \"contracts/StandardToken_flattened.sol\":21648:21657  _balances */\n      0x01\n        /* \"contracts/StandardToken_flattened.sol\":21648:21668  _balances[recipient] */\n      0x00\n        /* \"contracts/StandardToken_flattened.sol\":21658:21667  recipient */\n      dup5\n        /* \"contracts/StandardToken_flattened.sol\":21648:21668  _balances[recipient] */\n      0xffffffffffffffffffffffffffffffffffffffff\n      and\n      0xffffffffffffffffffffffffffffffffffffffff\n      and\n      dup2\n      mstore\n      0x20\n      add\n      swap1\n      dup2\n      mstore\n      0x20\n      add\n      0x00\n      keccak256\n        /* \"contracts/StandardToken_flattened.sol\":21648:21703  _balances[recipient] = _balances[recipient].add(amount) */\n      dup2\n      swap1\n      sstore\n      pop\n        /* \"contracts/StandardToken_flattened.sol\":21736:21745  recipient */\n      dup2\n        /* \"contracts/StandardToken_flattened.sol\":21719:21754  Transfer(sender, recipient, amount) */\n      0xffffffffffffffffffffffffffffffffffffffff\n      and\n        /* \"contracts/StandardToken_flattened.sol\":21728:21734  sender */\n      dup4\n        /* \"contracts/StandardToken_flattened.sol\":21719:21754  Transfer(sender, recipient, amount) */\n      0xffffffffffffffffffffffffffffffffffffffff\n      and\n      0xddf252ad1be2c89b69c2b068fc378daa952ba7f163c4a11628f55a4df523b3ef\n        /* \"contracts/StandardToken_flattened.sol\":21747:21753  amount */\n      dup4\n        /* \"contracts/StandardToken_flattened.sol\":21719:21754  Transfer(sender, recipient, amount) */\n      mload(0x40)\n      tag_158\n      swap2\n      swap1\n      tag_34\n      jump\t// in\n    tag_158:\n      mload(0x40)\n      dup1\n      swap2\n      sub\n      swap1\n      log3\n        /* \"contracts/StandardToken_flattened.sol\":21152:21762  function _transfer(... */\n      pop\n      pop\n      pop\n      jump\t// out\n        /* \"contracts/StandardToken_flattened.sol\":12347:12553  function sub(uint256 a, uint256 b, string memory errorMessage) internal pure returns (uint256) {... */\n    tag_101:\n        /* \"contracts/StandardToken_flattened.sol\":12433:12440  uint256 */\n      0x00\n        /* \"contracts/StandardToken_flattened.sol\":12491:12492  a */\n      dup4\n        /* \"contracts/StandardToken_flattened.sol\":12486:12487  b */\n      dup4\n        /* \"contracts/StandardToken_flattened.sol\":12486:12492  b <= a */\n      gt\n      iszero\n        /* \"contracts/StandardToken_flattened.sol\":12494:12506  errorMessage */\n      dup3\n        /* \"contracts/StandardToken_flattened.sol\":12478:12507  require(b <= a, errorMessage) */\n      swap1\n      tag_160\n      jumpi\n      mload(0x40)\n      0x08c379a000000000000000000000000000000000000000000000000000000000\n      dup2\n      mstore\n      0x04\n      add\n      tag_161\n      swap2\n      swap1\n      tag_24\n      jump\t// in\n    tag_161:\n      mload(0x40)\n      dup1\n      swap2\n      sub\n      swap1\n      revert\n    tag_160:\n      pop\n        /* \"contracts/StandardToken_flattened.sol\":12533:12534  b */\n      dup3\n        /* \"contracts/StandardToken_flattened.sol\":12529:12530  a */\n      dup5\n        /* \"contracts/StandardToken_flattened.sol\":12529:12534  a - b */\n      sub\n        /* \"contracts/StandardToken_flattened.sol\":12522:12534  return a - b */\n      swap1\n      pop\n        /* \"contracts/StandardToken_flattened.sol\":12347:12553  function sub(uint256 a, uint256 b, string memory errorMessage) internal pure returns (uint256) {... */\n      swap4\n      swap3\n      pop\n      pop\n      pop\n      jump\t// out\n        /* \"contracts/StandardToken_flattened.sol\":10068:10166  function add(uint256 a, uint256 b) internal pure returns (uint256) {... */\n    tag_108:\n        /* \"contracts/StandardToken_flattened.sol\":10126:10133  uint256 */\n      0x00\n        /* \"contracts/StandardToken_flattened.sol\":10157:10158  b */\n      dup2\n        /* \"contracts/StandardToken_flattened.sol\":10153:10154  a */\n      dup4\n        /* \"contracts/StandardToken_flattened.sol\":10153:10158  a + b */\n      tag_163\n      swap2\n      swap1\n      tag_164\n      jump\t// in\n    tag_163:\n        /* \"contracts/StandardToken_flattened.sol\":10146:10158  return a + b */\n      swap1\n      pop\n        /* \"contracts/StandardToken_flattened.sol\":10068:10166  function add(uint256 a, uint256 b) internal pure returns (uint256) {... */\n      swap3\n      swap2\n      pop\n      pop\n      jump\t// out\n        /* \"contracts/StandardToken_flattened.sol\":5846:6012  function _checkOwner() internal view virtual {... */\n    tag_112:\n        /* \"contracts/StandardToken_flattened.sol\":5917:5929  _msgSender() */\n      tag_166\n        /* \"contracts/StandardToken_flattened.sol\":5917:5927  _msgSender */\n      tag_91\n        /* \"contracts/StandardToken_flattened.sol\":5917:5929  _msgSender() */\n      jump\t// in\n    tag_166:\n        /* \"contracts/StandardToken_flattened.sol\":5906:5929  owner() != _msgSender() */\n      0xffffffffffffffffffffffffffffffffffffffff\n      and\n        /* \"contracts/StandardToken_flattened.sol\":5906:5913  owner() */\n      tag_167\n        /* \"contracts/StandardToken_flattened.sol\":5906:5911  owner */\n      tag_56\n        /* \"contracts/StandardToken_flattened.sol\":5906:5913  owner() */\n      jump\t// in\n    tag_167:\n        /* \"contracts/StandardToken_flattened.sol\":5906:5929  owner() != _msgSender() */\n      0xffffffffffffffffffffffffffffffffffffffff\n      and\n      eq\n        /* \"contracts/StandardToken_flattened.sol\":5902:6005  if (owner() != _msgSender()) {... */\n      tag_168\n      jumpi\n        /* \"contracts/StandardToken_flattened.sol\":5980:5992  _msgSender() */\n      tag_169\n        /* \"contracts/StandardToken_flattened.sol\":5980:5990  _msgSender */\n      tag_91\n        /* \"contracts/StandardToken_flattened.sol\":5980:5992  _msgSender() */\n      jump\t// in\n    tag_169:\n        /* \"contracts/StandardToken_flattened.sol\":5953:5993  OwnableUnauthorizedAccount(_msgSender()) */\n      mload(0x40)\n      0x118cdaa700000000000000000000000000000000000000000000000000000000\n      dup2\n      mstore\n      0x04\n      add\n      tag_170\n      swap2\n      swap1\n      tag_58\n      jump\t// in\n    tag_170:\n      mload(0x40)\n      dup1\n      swap2\n      sub\n      swap1\n      revert\n        /* \"contracts/StandardToken_flattened.sol\":5902:6005  if (owner() != _msgSender()) {... */\n    tag_168:\n        /* \"contracts/StandardToken_flattened.sol\":5846:6012  function _checkOwner() internal view virtual {... */\n      jump\t// out\n        /* \"contracts/StandardToken_flattened.sol\":6994:7185  function _transferOwnership(address newOwner) internal virtual {... */\n    tag_115:\n        /* \"contracts/StandardToken_flattened.sol\":7068:7084  address oldOwner */\n      0x00\n        /* \"contracts/StandardToken_flattened.sol\":7087:7093  _owner */\n      dup1\n      0x00\n      swap1\n      sload\n      swap1\n      0x0100\n      exp\n      swap1\n      div\n      0xffffffffffffffffffffffffffffffffffffffff\n      and\n        /* \"contracts/StandardToken_flattened.sol\":7068:7093  address oldOwner = _owner */\n      swap1\n      pop\n        /* \"contracts/StandardToken_flattened.sol\":7113:7121  newOwner */\n      dup2\n        /* \"contracts/StandardToken_flattened.sol\":7104:7110  _owner */\n      0x00\n      dup1\n        /* \"contracts/StandardToken_flattened.sol\":7104:7121  _owner = newOwner */\n      0x0100\n      exp\n      dup2\n      sload\n      dup2\n      0xffffffffffffffffffffffffffffffffffffffff\n      mul\n      not\n      and\n      swap1\n      dup4\n      0xffffffffffffffffffffffffffffffffffffffff\n      and\n      mul\n      or\n      swap1\n      sstore\n      pop\n        /* \"contracts/StandardToken_flattened.sol\":7168:7176  newOwner */\n      dup2\n        /* \"contracts/StandardToken_flattened.sol\":7137:7177  OwnershipTransferred(oldOwner, newOwner) */\n      0xffffffffffffffffffffffffffffffffffffffff\n      and\n        /* \"contracts/StandardToken_flattened.sol\":7158:7166  oldOwner */\n      dup2\n        /* \"contracts/StandardToken_flattened.sol\":7137:7177  OwnershipTransferred(oldOwner, newOwner) */\n      0xffffffffffffffffffffffffffffffffffffffff\n      and\n      0x8be0079c531659141344cd1fd0a4f28419497f9722a3daafe3b4186f6b6457e0\n      mload(0x40)\n      mload(0x40)\n      dup1\n      swap2\n      sub\n      swap1\n      log3\n        /* \"contracts/StandardToken_flattened.sol\":7057:7185  {... */\n      pop\n        /* \"contracts/StandardToken_flattened.sol\":6994:7185  function _transferOwnership(address newOwner) internal virtual {... */\n      pop\n      jump\t// out\n        /* \"contracts/StandardToken_flattened.sol\":25061:25186  function _beforeTokenTransfer(... */\n    tag_155:\n      pop\n      pop\n      pop\n      jump\t// out\n        /* \"#utility.yul\":7:106   */\n    tag_173:\n        /* \"#utility.yul\":59:65   */\n      0x00\n        /* \"#utility.yul\":93:98   */\n      dup2\n        /* \"#utility.yul\":87:99   */\n      mload\n        /* \"#utility.yul\":77:99   */\n      swap1\n      pop\n        /* \"#utility.yul\":7:106   */\n      swap2\n      swap1\n      pop\n      jump\t// out\n        /* \"#utility.yul\":112:281   */\n    tag_174:\n        /* \"#utility.yul\":196:207   */\n      0x00\n        /* \"#utility.yul\":230:236   */\n      dup3\n        /* \"#utility.yul\":225:228   */\n      dup3\n        /* \"#utility.yul\":218:237   */\n      mstore\n        /* \"#utility.yul\":270:274   */\n      0x20\n        /* \"#utility.yul\":265:268   */\n      dup3\n        /* \"#utility.yul\":261:275   */\n      add\n        /* \"#utility.yul\":246:275   */\n      swap1\n      pop\n        /* \"#utility.yul\":112:281   */\n      swap3\n      swap2\n      pop\n      pop\n      jump\t// out\n        /* \"#utility.yul\":287:426   */\n    tag_175:\n        /* \"#utility.yul\":376:382   */\n      dup3\n        /* \"#utility.yul\":371:374   */\n      dup2\n        /* \"#utility.yul\":366:369   */\n      dup4\n        /* \"#utility.yul\":360:383   */\n      mcopy\n        /* \"#utility.yul\":417:418   */\n      0x00\n        /* \"#utility.yul\":408:414   */\n      dup4\n        /* \"#utility.yul\":403:406   */\n      dup4\n        /* \"#utility.yul\":399:415   */\n      add\n        /* \"#utility.yul\":392:419   */\n      mstore\n        /* \"#utility.yul\":287:426   */\n      pop\n      pop\n      pop\n      jump\t// out\n        /* \"#utility.yul\":432:534   */\n    tag_176:\n        /* \"#utility.yul\":473:479   */\n      0x00\n        /* \"#utility.yul\":524:526   */\n      0x1f\n        /* \"#utility.yul\":520:527   */\n      not\n        /* \"#utility.yul\":515:517   */\n      0x1f\n        /* \"#utility.yul\":508:513   */\n      dup4\n        /* \"#utility.yul\":504:518   */\n      add\n        /* \"#utility.yul\":500:528   */\n      and\n        /* \"#utility.yul\":490:528   */\n      swap1\n      pop\n        /* \"#utility.yul\":432:534   */\n      swap2\n      swap1\n      pop\n      jump\t// out\n        /* \"#utility.yul\":540:917   */\n    tag_177:\n        /* \"#utility.yul\":628:631   */\n      0x00\n        /* \"#utility.yul\":656:695   */\n      tag_210\n        /* \"#utility.yul\":689:694   */\n      dup3\n        /* \"#utility.yul\":656:695   */\n      tag_173\n      jump\t// in\n    tag_210:\n        /* \"#utility.yul\":711:782   */\n      tag_211\n        /* \"#utility.yul\":775:781   */\n      dup2\n        /* \"#utility.yul\":770:773   */\n      dup6\n        /* \"#utility.yul\":711:782   */\n      tag_174\n      jump\t// in\n    tag_211:\n        /* \"#utility.yul\":704:782   */\n      swap4\n      pop\n        /* \"#utility.yul\":791:856   */\n      tag_212\n        /* \"#utility.yul\":849:855   */\n      dup2\n        /* \"#utility.yul\":844:847   */\n      dup6\n        /* \"#utility.yul\":837:841   */\n      0x20\n        /* \"#utility.yul\":830:835   */\n      dup7\n        /* \"#utility.yul\":826:842   */\n      add\n        /* \"#utility.yul\":791:856   */\n      tag_175\n      jump\t// in\n    tag_212:\n        /* \"#utility.yul\":881:910   */\n      tag_213\n        /* \"#utility.yul\":903:909   */\n      dup2\n        /* \"#utility.yul\":881:910   */\n      tag_176\n      jump\t// in\n    tag_213:\n        /* \"#utility.yul\":876:879   */\n      dup5\n        /* \"#utility.yul\":872:911   */\n      add\n        /* \"#utility.yul\":865:911   */\n      swap2\n      pop\n        /* \"#utility.yul\":632:917   */\n      pop\n        /* \"#utility.yul\":540:917   */\n      swap3\n      swap2\n      pop\n      pop\n      jump\t// out\n        /* \"#utility.yul\":923:1236   */\n    tag_24:\n        /* \"#utility.yul\":1036:1040   */\n      0x00\n        /* \"#utility.yul\":1074:1076   */\n      0x20\n        /* \"#utility.yul\":1063:1072   */\n      dup3\n        /* \"#utility.yul\":1059:1077   */\n      add\n        /* \"#utility.yul\":1051:1077   */\n      swap1\n      pop\n        /* \"#utility.yul\":1123:1132   */\n      dup2\n        /* \"#utility.yul\":1117:1121   */\n      dup2\n        /* \"#utility.yul\":1113:1133   */\n      sub\n        /* \"#utility.yul\":1109:1110   */\n      0x00\n        /* \"#utility.yul\":1098:1107   */\n      dup4\n        /* \"#utility.yul\":1094:1111   */\n      add\n        /* \"#utility.yul\":1087:1134   */\n      mstore\n        /* \"#utility.yul\":1151:1229   */\n      tag_215\n        /* \"#utility.yul\":1224:1228   */\n      dup2\n        /* \"#utility.yul\":1215:1221   */\n      dup5\n        /* \"#utility.yul\":1151:1229   */\n      tag_177\n      jump\t// in\n    tag_215:\n        /* \"#utility.yul\":1143:1229   */\n      swap1\n      pop\n        /* \"#utility.yul\":923:1236   */\n      swap3\n      swap2\n      pop\n      pop\n      jump\t// out\n        /* \"#utility.yul\":1323:1440   */\n    tag_179:\n        /* \"#utility.yul\":1432:1433   */\n      0x00\n        /* \"#utility.yul\":1429:1430   */\n      dup1\n        /* \"#utility.yul\":1422:1434   */\n      revert\n        /* \"#utility.yul\":1569:1695   */\n    tag_181:\n        /* \"#utility.yul\":1606:1613   */\n      0x00\n        /* \"#utility.yul\":1646:1688   */\n      0xffffffffffffffffffffffffffffffffffffffff\n        /* \"#utility.yul\":1639:1644   */\n      dup3\n        /* \"#utility.yul\":1635:1689   */\n      and\n        /* \"#utility.yul\":1624:1689   */\n      swap1\n      pop\n        /* \"#utility.yul\":1569:1695   */\n      swap2\n      swap1\n      pop\n      jump\t// out\n        /* \"#utility.yul\":1701:1797   */\n    tag_182:\n        /* \"#utility.yul\":1738:1745   */\n      0x00\n        /* \"#utility.yul\":1767:1791   */\n      tag_221\n        /* \"#utility.yul\":1785:1790   */\n      dup3\n        /* \"#utility.yul\":1767:1791   */\n      tag_181\n      jump\t// in\n    tag_221:\n        /* \"#utility.yul\":1756:1791   */\n      swap1\n      pop\n        /* \"#utility.yul\":1701:1797   */\n      swap2\n      swap1\n      pop\n      jump\t// out\n        /* \"#utility.yul\":1803:1925   */\n    tag_183:\n        /* \"#utility.yul\":1876:1900   */\n      tag_223\n        /* \"#utility.yul\":1894:1899   */\n      dup2\n        /* \"#utility.yul\":1876:1900   */\n      tag_182\n      jump\t// in\n    tag_223:\n        /* \"#utility.yul\":1869:1874   */\n      dup2\n        /* \"#utility.yul\":1866:1901   */\n      eq\n        /* \"#utility.yul\":1856:1919   */\n      tag_224\n      jumpi\n        /* \"#utility.yul\":1915:1916   */\n      0x00\n        /* \"#utility.yul\":1912:1913   */\n      dup1\n        /* \"#utility.yul\":1905:1917   */\n      revert\n        /* \"#utility.yul\":1856:1919   */\n    tag_224:\n        /* \"#utility.yul\":1803:1925   */\n      pop\n      jump\t// out\n        /* \"#utility.yul\":1931:2070   */\n    tag_184:\n        /* \"#utility.yul\":1977:1982   */\n      0x00\n        /* \"#utility.yul\":2015:2021   */\n      dup2\n        /* \"#utility.yul\":2002:2022   */\n      calldataload\n        /* \"#utility.yul\":1993:2022   */\n      swap1\n      pop\n        /* \"#utility.yul\":2031:2064   */\n      tag_226\n        /* \"#utility.yul\":2058:2063   */\n      dup2\n        /* \"#utility.yul\":2031:2064   */\n      tag_183\n      jump\t// in\n    tag_226:\n        /* \"#utility.yul\":1931:2070   */\n      swap3\n      swap2\n      pop\n      pop\n      jump\t// out\n        /* \"#utility.yul\":2076:2153   */\n    tag_185:\n        /* \"#utility.yul\":2113:2120   */\n      0x00\n        /* \"#utility.yul\":2142:2147   */\n      dup2\n        /* \"#utility.yul\":2131:2147   */\n      swap1\n      pop\n        /* \"#utility.yul\":2076:2153   */\n      swap2\n      swap1\n      pop\n      jump\t// out\n        /* \"#utility.yul\":2159:2281   */\n    tag_186:\n        /* \"#utility.yul\":2232:2256   */\n      tag_229\n        /* \"#utility.yul\":2250:2255   */\n      dup2\n        /* \"#utility.yul\":2232:2256   */\n      tag_185\n      jump\t// in\n    tag_229:\n        /* \"#utility.yul\":2225:2230   */\n      dup2\n        /* \"#utility.yul\":2222:2257   */\n      eq\n        /* \"#utility.yul\":2212:2275   */\n      tag_230\n      jumpi\n        /* \"#utility.yul\":2271:2272   */\n      0x00\n        /* \"#utility.yul\":2268:2269   */\n      dup1\n        /* \"#utility.yul\":2261:2273   */\n      revert\n        /* \"#utility.yul\":2212:2275   */\n    tag_230:\n        /* \"#utility.yul\":2159:2281   */\n      pop\n      jump\t// out\n        /* \"#utility.yul\":2287:2426   */\n    tag_187:\n        /* \"#utility.yul\":2333:2338   */\n      0x00\n        /* \"#utility.yul\":2371:2377   */\n      dup2\n        /* \"#utility.yul\":2358:2378   */\n      calldataload\n        /* \"#utility.yul\":2349:2378   */\n      swap1\n      pop\n        /* \"#utility.yul\":2387:2420   */\n      tag_232\n        /* \"#utility.yul\":2414:2419   */\n      dup2\n        /* \"#utility.yul\":2387:2420   */\n      tag_186\n      jump\t// in\n    tag_232:\n        /* \"#utility.yul\":2287:2426   */\n      swap3\n      swap2\n      pop\n      pop\n      jump\t// out\n        /* \"#utility.yul\":2432:2906   */\n    tag_27:\n        /* \"#utility.yul\":2500:2506   */\n      0x00\n        /* \"#utility.yul\":2508:2514   */\n      dup1\n        /* \"#utility.yul\":2557:2559   */\n      0x40\n        /* \"#utility.yul\":2545:2554   */\n      dup4\n        /* \"#utility.yul\":2536:2543   */\n      dup6\n        /* \"#utility.yul\":2532:2555   */\n      sub\n        /* \"#utility.yul\":2528:2560   */\n      slt\n        /* \"#utility.yul\":2525:2644   */\n      iszero\n      tag_234\n      jumpi\n        /* \"#utility.yul\":2563:2642   */\n      tag_235\n      tag_179\n      jump\t// in\n    tag_235:\n        /* \"#utility.yul\":2525:2644   */\n    tag_234:\n        /* \"#utility.yul\":2683:2684   */\n      0x00\n        /* \"#utility.yul\":2708:2761   */\n      tag_236\n        /* \"#utility.yul\":2753:2760   */\n      dup6\n        /* \"#utility.yul\":2744:2750   */\n      dup3\n        /* \"#utility.yul\":2733:2742   */\n      dup7\n        /* \"#utility.yul\":2729:2751   */\n      add\n        /* \"#utility.yul\":2708:2761   */\n      tag_184\n      jump\t// in\n    tag_236:\n        /* \"#utility.yul\":2698:2761   */\n      swap3\n      pop\n        /* \"#utility.yul\":2654:2771   */\n      pop\n        /* \"#utility.yul\":2810:2812   */\n      0x20\n        /* \"#utility.yul\":2836:2889   */\n      tag_237\n        /* \"#utility.yul\":2881:2888   */\n      dup6\n        /* \"#utility.yul\":2872:2878   */\n      dup3\n        /* \"#utility.yul\":2861:2870   */\n      dup7\n        /* \"#utility.yul\":2857:2879   */\n      add\n        /* \"#utility.yul\":2836:2889   */\n      tag_187\n      jump\t// in\n    tag_237:\n        /* \"#utility.yul\":2826:2889   */\n      swap2\n      pop\n        /* \"#utility.yul\":2781:2899   */\n      pop\n        /* \"#utility.yul\":2432:2906   */\n      swap3\n      pop\n      swap3\n      swap1\n      pop\n      jump\t// out\n        /* \"#utility.yul\":2912:3002   */\n    tag_188:\n        /* \"#utility.yul\":2946:2953   */\n      0x00\n        /* \"#utility.yul\":2989:2994   */\n      dup2\n        /* \"#utility.yul\":2982:2995   */\n      iszero\n        /* \"#utility.yul\":2975:2996   */\n      iszero\n        /* \"#utility.yul\":2964:2996   */\n      swap1\n      pop\n        /* \"#utility.yul\":2912:3002   */\n      swap2\n      swap1\n      pop\n      jump\t// out\n        /* \"#utility.yul\":3008:3117   */\n    tag_189:\n        /* \"#utility.yul\":3089:3110   */\n      tag_240\n        /* \"#utility.yul\":3104:3109   */\n      dup2\n        /* \"#utility.yul\":3089:3110   */\n      tag_188\n      jump\t// in\n    tag_240:\n        /* \"#utility.yul\":3084:3087   */\n      dup3\n        /* \"#utility.yul\":3077:3111   */\n      mstore\n        /* \"#utility.yul\":3008:3117   */\n      pop\n      pop\n      jump\t// out\n        /* \"#utility.yul\":3123:3333   */\n    tag_30:\n        /* \"#utility.yul\":3210:3214   */\n      0x00\n        /* \"#utility.yul\":3248:3250   */\n      0x20\n        /* \"#utility.yul\":3237:3246   */\n      dup3\n        /* \"#utility.yul\":3233:3251   */\n      add\n        /* \"#utility.yul\":3225:3251   */\n      swap1\n      pop\n        /* \"#utility.yul\":3261:3326   */\n      tag_242\n        /* \"#utility.yul\":3323:3324   */\n      0x00\n        /* \"#utility.yul\":3312:3321   */\n      dup4\n        /* \"#utility.yul\":3308:3325   */\n      add\n        /* \"#utility.yul\":3299:3305   */\n      dup5\n        /* \"#utility.yul\":3261:3326   */\n      tag_189\n      jump\t// in\n    tag_242:\n        /* \"#utility.yul\":3123:3333   */\n      swap3\n      swap2\n      pop\n      pop\n      jump\t// out\n        /* \"#utility.yul\":3339:3457   */\n    tag_190:\n        /* \"#utility.yul\":3426:3450   */\n      tag_244\n        /* \"#utility.yul\":3444:3449   */\n      dup2\n        /* \"#utility.yul\":3426:3450   */\n      tag_185\n      jump\t// in\n    tag_244:\n        /* \"#utility.yul\":3421:3424   */\n      dup3\n        /* \"#utility.yul\":3414:3451   */\n      mstore\n        /* \"#utility.yul\":3339:3457   */\n      pop\n      pop\n      jump\t// out\n        /* \"#utility.yul\":3463:3685   */\n    tag_34:\n        /* \"#utility.yul\":3556:3560   */\n      0x00\n        /* \"#utility.yul\":3594:3596   */\n      0x20\n        /* \"#utility.yul\":3583:3592   */\n      dup3\n        /* \"#utility.yul\":3579:3597   */\n      add\n        /* \"#utility.yul\":3571:3597   */\n      swap1\n      pop\n        /* \"#utility.yul\":3607:3678   */\n      tag_246\n        /* \"#utility.yul\":3675:3676   */\n      0x00\n        /* \"#utility.yul\":3664:3673   */\n      dup4\n        /* \"#utility.yul\":3660:3677   */\n      add\n        /* \"#utility.yul\":3651:3657   */\n      dup5\n        /* \"#utility.yul\":3607:3678   */\n      tag_190\n      jump\t// in\n    tag_246:\n        /* \"#utility.yul\":3463:3685   */\n      swap3\n      swap2\n      pop\n      pop\n      jump\t// out\n        /* \"#utility.yul\":3691:4310   */\n    tag_37:\n        /* \"#utility.yul\":3768:3774   */\n      0x00\n        /* \"#utility.yul\":3776:3782   */\n      dup1\n        /* \"#utility.yul\":3784:3790   */\n      0x00\n        /* \"#utility.yul\":3833:3835   */\n      0x60\n        /* \"#utility.yul\":3821:3830   */\n      dup5\n        /* \"#utility.yul\":3812:3819   */\n      dup7\n        /* \"#utility.yul\":3808:3831   */\n      sub\n        /* \"#utility.yul\":3804:3836   */\n      slt\n        /* \"#utility.yul\":3801:3920   */\n      iszero\n      tag_248\n      jumpi\n        /* \"#utility.yul\":3839:3918   */\n      tag_249\n      tag_179\n      jump\t// in\n    tag_249:\n        /* \"#utility.yul\":3801:3920   */\n    tag_248:\n        /* \"#utility.yul\":3959:3960   */\n      0x00\n        /* \"#utility.yul\":3984:4037   */\n      tag_250\n        /* \"#utility.yul\":4029:4036   */\n      dup7\n        /* \"#utility.yul\":4020:4026   */\n      dup3\n        /* \"#utility.yul\":4009:4018   */\n      dup8\n        /* \"#utility.yul\":4005:4027   */\n      add\n        /* \"#utility.yul\":3984:4037   */\n      tag_184\n      jump\t// in\n    tag_250:\n        /* \"#utility.yul\":3974:4037   */\n      swap4\n      pop\n        /* \"#utility.yul\":3930:4047   */\n      pop\n        /* \"#utility.yul\":4086:4088   */\n      0x20\n        /* \"#utility.yul\":4112:4165   */\n      tag_251\n        /* \"#utility.yul\":4157:4164   */\n      dup7\n        /* \"#utility.yul\":4148:4154   */\n      dup3\n        /* \"#utility.yul\":4137:4146   */\n      dup8\n        /* \"#utility.yul\":4133:4155   */\n      add\n        /* \"#utility.yul\":4112:4165   */\n      tag_184\n      jump\t// in\n    tag_251:\n        /* \"#utility.yul\":4102:4165   */\n      swap3\n      pop\n        /* \"#utility.yul\":4057:4175   */\n      pop\n        /* \"#utility.yul\":4214:4216   */\n      0x40\n        /* \"#utility.yul\":4240:4293   */\n      tag_252\n        /* \"#utility.yul\":4285:4292   */\n      dup7\n        /* \"#utility.yul\":4276:4282   */\n      dup3\n        /* \"#utility.yul\":4265:4274   */\n      dup8\n        /* \"#utility.yul\":4261:4283   */\n      add\n        /* \"#utility.yul\":4240:4293   */\n      tag_187\n      jump\t// in\n    tag_252:\n        /* \"#utility.yul\":4230:4293   */\n      swap2\n      pop\n        /* \"#utility.yul\":4185:4303   */\n      pop\n        /* \"#utility.yul\":3691:4310   */\n      swap3\n      pop\n      swap3\n      pop\n      swap3\n      jump\t// out\n        /* \"#utility.yul\":4316:4402   */\n    tag_191:\n        /* \"#utility.yul\":4351:4358   */\n      0x00\n        /* \"#utility.yul\":4391:4395   */\n      0xff\n        /* \"#utility.yul\":4384:4389   */\n      dup3\n        /* \"#utility.yul\":4380:4396   */\n      and\n        /* \"#utility.yul\":4369:4396   */\n      swap1\n      pop\n        /* \"#utility.yul\":4316:4402   */\n      swap2\n      swap1\n      pop\n      jump\t// out\n        /* \"#utility.yul\":4408:4520   */\n    tag_192:\n        /* \"#utility.yul\":4491:4513   */\n      tag_255\n        /* \"#utility.yul\":4507:4512   */\n      dup2\n        /* \"#utility.yul\":4491:4513   */\n      tag_191\n      jump\t// in\n    tag_255:\n        /* \"#utility.yul\":4486:4489   */\n      dup3\n        /* \"#utility.yul\":4479:4514   */\n      mstore\n        /* \"#utility.yul\":4408:4520   */\n      pop\n      pop\n      jump\t// out\n        /* \"#utility.yul\":4526:4740   */\n    tag_43:\n        /* \"#utility.yul\":4615:4619   */\n      0x00\n        /* \"#utility.yul\":4653:4655   */\n      0x20\n        /* \"#utility.yul\":4642:4651   */\n      dup3\n        /* \"#utility.yul\":4638:4656   */\n      add\n        /* \"#utility.yul\":4630:4656   */\n      swap1\n      pop\n        /* \"#utility.yul\":4666:4733   */\n      tag_257\n        /* \"#utility.yul\":4730:4731   */\n      0x00\n        /* \"#utility.yul\":4719:4728   */\n      dup4\n        /* \"#utility.yul\":4715:4732   */\n      add\n        /* \"#utility.yul\":4706:4712   */\n      dup5\n        /* \"#utility.yul\":4666:4733   */\n      tag_192\n      jump\t// in\n    tag_257:\n        /* \"#utility.yul\":4526:4740   */\n      swap3\n      swap2\n      pop\n      pop\n      jump\t// out\n        /* \"#utility.yul\":4746:5075   */\n    tag_50:\n        /* \"#utility.yul\":4805:4811   */\n      0x00\n        /* \"#utility.yul\":4854:4856   */\n      0x20\n        /* \"#utility.yul\":4842:4851   */\n      dup3\n        /* \"#utility.yul\":4833:4840   */\n      dup5\n        /* \"#utility.yul\":4829:4852   */\n      sub\n        /* \"#utility.yul\":4825:4857   */\n      slt\n        /* \"#utility.yul\":4822:4941   */\n      iszero\n      tag_259\n      jumpi\n        /* \"#utility.yul\":4860:4939   */\n      tag_260\n      tag_179\n      jump\t// in\n    tag_260:\n        /* \"#utility.yul\":4822:4941   */\n    tag_259:\n        /* \"#utility.yul\":4980:4981   */\n      0x00\n        /* \"#utility.yul\":5005:5058   */\n      tag_261\n        /* \"#utility.yul\":5050:5057   */\n      dup5\n        /* \"#utility.yul\":5041:5047   */\n      dup3\n        /* \"#utility.yul\":5030:5039   */\n      dup6\n        /* \"#utility.yul\":5026:5048   */\n      add\n        /* \"#utility.yul\":5005:5058   */\n      tag_184\n      jump\t// in\n    tag_261:\n        /* \"#utility.yul\":4995:5058   */\n      swap2\n      pop\n        /* \"#utility.yul\":4951:5068   */\n      pop\n        /* \"#utility.yul\":4746:5075   */\n      swap3\n      swap2\n      pop\n      pop\n      jump\t// out\n        /* \"#utility.yul\":5081:5199   */\n    tag_193:\n        /* \"#utility.yul\":5168:5192   */\n      tag_263\n        /* \"#utility.yul\":5186:5191   */\n      dup2\n        /* \"#utility.yul\":5168:5192   */\n      tag_182\n      jump\t// in\n    tag_263:\n        /* \"#utility.yul\":5163:5166   */\n      dup3\n        /* \"#utility.yul\":5156:5193   */\n      mstore\n        /* \"#utility.yul\":5081:5199   */\n      pop\n      pop\n      jump\t// out\n        /* \"#utility.yul\":5205:5427   */\n    tag_58:\n        /* \"#utility.yul\":5298:5302   */\n      0x00\n        /* \"#utility.yul\":5336:5338   */\n      0x20\n        /* \"#utility.yul\":5325:5334   */\n      dup3\n        /* \"#utility.yul\":5321:5339   */\n      add\n        /* \"#utility.yul\":5313:5339   */\n      swap1\n      pop\n        /* \"#utility.yul\":5349:5420   */\n      tag_265\n        /* \"#utility.yul\":5417:5418   */\n      0x00\n        /* \"#utility.yul\":5406:5415   */\n      dup4\n        /* \"#utility.yul\":5402:5419   */\n      add\n        /* \"#utility.yul\":5393:5399   */\n      dup5\n        /* \"#utility.yul\":5349:5420   */\n      tag_193\n      jump\t// in\n    tag_265:\n        /* \"#utility.yul\":5205:5427   */\n      swap3\n      swap2\n      pop\n      pop\n      jump\t// out\n        /* \"#utility.yul\":5433:5907   */\n    tag_72:\n        /* \"#utility.yul\":5501:5507   */\n      0x00\n        /* \"#utility.yul\":5509:5515   */\n      dup1\n        /* \"#utility.yul\":5558:5560   */\n      0x40\n        /* \"#utility.yul\":5546:5555   */\n      dup4\n        /* \"#utility.yul\":5537:5544   */\n      dup6\n        /* \"#utility.yul\":5533:5556   */\n      sub\n        /* \"#utility.yul\":5529:5561   */\n      slt\n        /* \"#utility.yul\":5526:5645   */\n      iszero\n      tag_267\n      jumpi\n        /* \"#utility.yul\":5564:5643   */\n      tag_268\n      tag_179\n      jump\t// in\n    tag_268:\n        /* \"#utility.yul\":5526:5645   */\n    tag_267:\n        /* \"#utility.yul\":5684:5685   */\n      0x00\n        /* \"#utility.yul\":5709:5762   */\n      tag_269\n        /* \"#utility.yul\":5754:5761   */\n      dup6\n        /* \"#utility.yul\":5745:5751   */\n      dup3\n        /* \"#utility.yul\":5734:5743   */\n      dup7\n        /* \"#utility.yul\":5730:5752   */\n      add\n        /* \"#utility.yul\":5709:5762   */\n      tag_184\n      jump\t// in\n    tag_269:\n        /* \"#utility.yul\":5699:5762   */\n      swap3\n      pop\n        /* \"#utility.yul\":5655:5772   */\n      pop\n        /* \"#utility.yul\":5811:5813   */\n      0x20\n        /* \"#utility.yul\":5837:5890   */\n      tag_270\n        /* \"#utility.yul\":5882:5889   */\n      dup6\n        /* \"#utility.yul\":5873:5879   */\n      dup3\n        /* \"#utility.yul\":5862:5871   */\n      dup7\n        /* \"#utility.yul\":5858:5880   */\n      add\n        /* \"#utility.yul\":5837:5890   */\n      tag_184\n      jump\t// in\n    tag_270:\n        /* \"#utility.yul\":5827:5890   */\n      swap2\n      pop\n        /* \"#utility.yul\":5782:5900   */\n      pop\n        /* \"#utility.yul\":5433:5907   */\n      swap3\n      pop\n      swap3\n      swap1\n      pop\n      jump\t// out\n        /* \"#utility.yul\":5913:6093   */\n    tag_194:\n        /* \"#utility.yul\":5961:6038   */\n      0x4e487b7100000000000000000000000000000000000000000000000000000000\n        /* \"#utility.yul\":5958:5959   */\n      0x00\n        /* \"#utility.yul\":5951:6039   */\n      mstore\n        /* \"#utility.yul\":6058:6062   */\n      0x22\n        /* \"#utility.yul\":6055:6056   */\n      0x04\n        /* \"#utility.yul\":6048:6063   */\n      mstore\n        /* \"#utility.yul\":6082:6086   */\n      0x24\n        /* \"#utility.yul\":6079:6080   */\n      0x00\n        /* \"#utility.yul\":6072:6087   */\n      revert\n        /* \"#utility.yul\":6099:6419   */\n    tag_83:\n        /* \"#utility.yul\":6143:6149   */\n      0x00\n        /* \"#utility.yul\":6180:6181   */\n      0x02\n        /* \"#utility.yul\":6174:6178   */\n      dup3\n        /* \"#utility.yul\":6170:6182   */\n      div\n        /* \"#utility.yul\":6160:6182   */\n      swap1\n      pop\n        /* \"#utility.yul\":6227:6228   */\n      0x01\n        /* \"#utility.yul\":6221:6225   */\n      dup3\n        /* \"#utility.yul\":6217:6229   */\n      and\n        /* \"#utility.yul\":6248:6266   */\n      dup1\n        /* \"#utility.yul\":6238:6319   */\n      tag_273\n      jumpi\n        /* \"#utility.yul\":6304:6308   */\n      0x7f\n        /* \"#utility.yul\":6296:6302   */\n      dup3\n        /* \"#utility.yul\":6292:6309   */\n      and\n        /* \"#utility.yul\":6282:6309   */\n      swap2\n      pop\n        /* \"#utility.yul\":6238:6319   */\n    tag_273:\n        /* \"#utility.yul\":6366:6368   */\n      0x20\n        /* \"#utility.yul\":6358:6364   */\n      dup3\n        /* \"#utility.yul\":6355:6369   */\n      lt\n        /* \"#utility.yul\":6335:6353   */\n      dup2\n        /* \"#utility.yul\":6332:6370   */\n      sub\n        /* \"#utility.yul\":6329:6413   */\n      tag_274\n      jumpi\n        /* \"#utility.yul\":6385:6403   */\n      tag_275\n      tag_194\n      jump\t// in\n    tag_275:\n        /* \"#utility.yul\":6329:6413   */\n    tag_274:\n        /* \"#utility.yul\":6150:6419   */\n      pop\n        /* \"#utility.yul\":6099:6419   */\n      swap2\n      swap1\n      pop\n      jump\t// out\n        /* \"#utility.yul\":6425:6648   */\n    tag_195:\n        /* \"#utility.yul\":6565:6599   */\n      0x45524332303a20617070726f76652066726f6d20746865207a65726f20616464\n        /* \"#utility.yul\":6561:6562   */\n      0x00\n        /* \"#utility.yul\":6553:6559   */\n      dup3\n        /* \"#utility.yul\":6549:6563   */\n      add\n        /* \"#utility.yul\":6542:6600   */\n      mstore\n        /* \"#utility.yul\":6634:6640   */\n      0x7265737300000000000000000000000000000000000000000000000000000000\n        /* \"#utility.yul\":6629:6631   */\n      0x20\n        /* \"#utility.yul\":6621:6627   */\n      dup3\n        /* \"#utility.yul\":6617:6632   */\n      add\n        /* \"#utility.yul\":6610:6641   */\n      mstore\n        /* \"#utility.yul\":6425:6648   */\n      pop\n      jump\t// out\n        /* \"#utility.yul\":6654:7020   */\n    tag_196:\n        /* \"#utility.yul\":6796:6799   */\n      0x00\n        /* \"#utility.yul\":6817:6884   */\n      tag_278\n        /* \"#utility.yul\":6881:6883   */\n      0x24\n        /* \"#utility.yul\":6876:6879   */\n      dup4\n        /* \"#utility.yul\":6817:6884   */\n      tag_174\n      jump\t// in\n    tag_278:\n        /* \"#utility.yul\":6810:6884   */\n      swap2\n      pop\n        /* \"#utility.yul\":6893:6986   */\n      tag_279\n        /* \"#utility.yul\":6982:6985   */\n      dup3\n        /* \"#utility.yul\":6893:6986   */\n      tag_195\n      jump\t// in\n    tag_279:\n        /* \"#utility.yul\":7011:7013   */\n      0x40\n        /* \"#utility.yul\":7006:7009   */\n      dup3\n        /* \"#utility.yul\":7002:7014   */\n      add\n        /* \"#utility.yul\":6995:7014   */\n      swap1\n      pop\n        /* \"#utility.yul\":6654:7020   */\n      swap2\n      swap1\n      pop\n      jump\t// out\n        /* \"#utility.yul\":7026:7445   */\n    tag_142:\n        /* \"#utility.yul\":7192:7196   */\n      0x00\n        /* \"#utility.yul\":7230:7232   */\n      0x20\n        /* \"#utility.yul\":7219:7228   */\n      dup3\n        /* \"#utility.yul\":7215:7233   */\n      add\n        /* \"#utility.yul\":7207:7233   */\n      swap1\n      pop\n        /* \"#utility.yul\":7279:7288   */\n      dup2\n        /* \"#utility.yul\":7273:7277   */\n      dup2\n        /* \"#utility.yul\":7269:7289   */\n      sub\n        /* \"#utility.yul\":7265:7266   */\n      0x00\n        /* \"#utility.yul\":7254:7263   */\n      dup4\n        /* \"#utility.yul\":7250:7267   */\n      add\n        /* \"#utility.yul\":7243:7290   */\n      mstore\n        /* \"#utility.yul\":7307:7438   */\n      tag_281\n        /* \"#utility.yul\":7433:7437   */\n      dup2\n        /* \"#utility.yul\":7307:7438   */\n      tag_196\n      jump\t// in\n    tag_281:\n        /* \"#utility.yul\":7299:7438   */\n      swap1\n      pop\n        /* \"#utility.yul\":7026:7445   */\n      swap2\n      swap1\n      pop\n      jump\t// out\n        /* \"#utility.yul\":7451:7672   */\n    tag_197:\n        /* \"#utility.yul\":7591:7625   */\n      0x45524332303a20617070726f766520746f20746865207a65726f206164647265\n        /* \"#utility.yul\":7587:7588   */\n      0x00\n        /* \"#utility.yul\":7579:7585   */\n      dup3\n        /* \"#utility.yul\":7575:7589   */\n      add\n        /* \"#utility.yul\":7568:7626   */\n      mstore\n        /* \"#utility.yul\":7660:7664   */\n      0x7373000000000000000000000000000000000000000000000000000000000000\n        /* \"#utility.yul\":7655:7657   */\n      0x20\n        /* \"#utility.yul\":7647:7653   */\n      dup3\n        /* \"#utility.yul\":7643:7658   */\n      add\n        /* \"#utility.yul\":7636:7665   */\n      mstore\n        /* \"#utility.yul\":7451:7672   */\n      pop\n      jump\t// out\n        /* \"#utility.yul\":7678:8044   */\n    tag_198:\n        /* \"#utility.yul\":7820:7823   */\n      0x00\n        /* \"#utility.yul\":7841:7908   */\n      tag_284\n        /* \"#utility.yul\":7905:7907   */\n      0x22\n        /* \"#utility.yul\":7900:7903   */\n      dup4\n        /* \"#utility.yul\":7841:7908   */\n      tag_174\n      jump\t// in\n    tag_284:\n        /* \"#utility.yul\":7834:7908   */\n      swap2\n      pop\n        /* \"#utility.yul\":7917:8010   */\n      tag_285\n        /* \"#utility.yul\":8006:8009   */\n      dup3\n        /* \"#utility.yul\":7917:8010   */\n      tag_197\n      jump\t// in\n    tag_285:\n        /* \"#utility.yul\":8035:8037   */\n      0x40\n        /* \"#utility.yul\":8030:8033   */\n      dup3\n        /* \"#utility.yul\":8026:8038   */\n      add\n        /* \"#utility.yul\":8019:8038   */\n      swap1\n      pop\n        /* \"#utility.yul\":7678:8044   */\n      swap2\n      swap1\n      pop\n      jump\t// out\n        /* \"#utility.yul\":8050:8469   */\n    tag_145:\n        /* \"#utility.yul\":8216:8220   */\n      0x00\n        /* \"#utility.yul\":8254:8256   */\n      0x20\n        /* \"#utility.yul\":8243:8252   */\n      dup3\n        /* \"#utility.yul\":8239:8257   */\n      add\n        /* \"#utility.yul\":8231:8257   */\n      swap1\n      pop\n        /* \"#utility.yul\":8303:8312   */\n      dup2\n        /* \"#utility.yul\":8297:8301   */\n      dup2\n        /* \"#utility.yul\":8293:8313   */\n      sub\n        /* \"#utility.yul\":8289:8290   */\n      0x00\n        /* \"#utility.yul\":8278:8287   */\n      dup4\n        /* \"#utility.yul\":8274:8291   */\n      add\n        /* \"#utility.yul\":8267:8314   */\n      mstore\n        /* \"#utility.yul\":8331:8462   */\n      tag_287\n        /* \"#utility.yul\":8457:8461   */\n      dup2\n        /* \"#utility.yul\":8331:8462   */\n      tag_198\n      jump\t// in\n    tag_287:\n        /* \"#utility.yul\":8323:8462   */\n      swap1\n      pop\n        /* \"#utility.yul\":8050:8469   */\n      swap2\n      swap1\n      pop\n      jump\t// out\n        /* \"#utility.yul\":8475:8699   */\n    tag_199:\n        /* \"#utility.yul\":8615:8649   */\n      0x45524332303a207472616e736665722066726f6d20746865207a65726f206164\n        /* \"#utility.yul\":8611:8612   */\n      0x00\n        /* \"#utility.yul\":8603:8609   */\n      dup3\n        /* \"#utility.yul\":8599:8613   */\n      add\n        /* \"#utility.yul\":8592:8650   */\n      mstore\n        /* \"#utility.yul\":8684:8691   */\n      0x6472657373000000000000000000000000000000000000000000000000000000\n        /* \"#utility.yul\":8679:8681   */\n      0x20\n        /* \"#utility.yul\":8671:8677   */\n      dup3\n        /* \"#utility.yul\":8667:8682   */\n      add\n        /* \"#utility.yul\":8660:8692   */\n      mstore\n        /* \"#utility.yul\":8475:8699   */\n      pop\n      jump\t// out\n        /* \"#utility.yul\":8705:9071   */\n    tag_200:\n        /* \"#utility.yul\":8847:8850   */\n      0x00\n        /* \"#utility.yul\":8868:8935   */\n      tag_290\n        /* \"#utility.yul\":8932:8934   */\n      0x25\n        /* \"#utility.yul\":8927:8930   */\n      dup4\n        /* \"#utility.yul\":8868:8935   */\n      tag_174\n      jump\t// in\n    tag_290:\n        /* \"#utility.yul\":8861:8935   */\n      swap2\n      pop\n        /* \"#utility.yul\":8944:9037   */\n      tag_291\n        /* \"#utility.yul\":9033:9036   */\n      dup3\n        /* \"#utility.yul\":8944:9037   */\n      tag_199\n      jump\t// in\n    tag_291:\n        /* \"#utility.yul\":9062:9064   */\n      0x40\n        /* \"#utility.yul\":9057:9060   */\n      dup3\n        /* \"#utility.yul\":9053:9065   */\n      add\n        /* \"#utility.yul\":9046:9065   */\n      swap1\n      pop\n        /* \"#utility.yul\":8705:9071   */\n      swap2\n      swap1\n      pop\n      jump\t// out\n        /* \"#utility.yul\":9077:9496   */\n    tag_150:\n        /* \"#utility.yul\":9243:9247   */\n      0x00\n        /* \"#utility.yul\":9281:9283   */\n      0x20\n        /* \"#utility.yul\":9270:9279   */\n      dup3\n        /* \"#utility.yul\":9266:9284   */\n      add\n        /* \"#utility.yul\":9258:9284   */\n      swap1\n      pop\n        /* \"#utility.yul\":9330:9339   */\n      dup2\n        /* \"#utility.yul\":9324:9328   */\n      dup2\n        /* \"#utility.yul\":9320:9340   */\n      sub\n        /* \"#utility.yul\":9316:9317   */\n      0x00\n        /* \"#utility.yul\":9305:9314   */\n      dup4\n        /* \"#utility.yul\":9301:9318   */\n      add\n        /* \"#utility.yul\":9294:9341   */\n      mstore\n        /* \"#utility.yul\":9358:9489   */\n      tag_293\n        /* \"#utility.yul\":9484:9488   */\n      dup2\n        /* \"#utility.yul\":9358:9489   */\n      tag_200\n      jump\t// in\n    tag_293:\n        /* \"#utility.yul\":9350:9489   */\n      swap1\n      pop\n        /* \"#utility.yul\":9077:9496   */\n      swap2\n      swap1\n      pop\n      jump\t// out\n        /* \"#utility.yul\":9502:9724   */\n    tag_201:\n        /* \"#utility.yul\":9642:9676   */\n      0x45524332303a207472616e7366657220746f20746865207a65726f2061646472\n        /* \"#utility.yul\":9638:9639   */\n      0x00\n        /* \"#utility.yul\":9630:9636   */\n      dup3\n        /* \"#utility.yul\":9626:9640   */\n      add\n        /* \"#utility.yul\":9619:9677   */\n      mstore\n        /* \"#utility.yul\":9711:9716   */\n      0x6573730000000000000000000000000000000000000000000000000000000000\n        /* \"#utility.yul\":9706:9708   */\n      0x20\n        /* \"#utility.yul\":9698:9704   */\n      dup3\n        /* \"#utility.yul\":9694:9709   */\n      add\n        /* \"#utility.yul\":9687:9717   */\n      mstore\n        /* \"#utility.yul\":9502:9724   */\n      pop\n      jump\t// out\n        /* \"#utility.yul\":9730:10096   */\n    tag_202:\n        /* \"#utility.yul\":9872:9875   */\n      0x00\n        /* \"#utility.yul\":9893:9960   */\n      tag_296\n        /* \"#utility.yul\":9957:9959   */\n      0x23\n        /* \"#utility.yul\":9952:9955   */\n      dup4\n        /* \"#utility.yul\":9893:9960   */\n      tag_174\n      jump\t// in\n    tag_296:\n        /* \"#utility.yul\":9886:9960   */\n      swap2\n      pop\n        /* \"#utility.yul\":9969:10062   */\n      tag_297\n        /* \"#utility.yul\":10058:10061   */\n      dup3\n        /* \"#utility.yul\":9969:10062   */\n      tag_201\n      jump\t// in\n    tag_297:\n        /* \"#utility.yul\":10087:10089   */\n      0x40\n        /* \"#utility.yul\":10082:10085   */\n      dup3\n        /* \"#utility.yul\":10078:10090   */\n      add\n        /* \"#utility.yul\":10071:10090   */\n      swap1\n      pop\n        /* \"#utility.yul\":9730:10096   */\n      swap2\n      swap1\n      pop\n      jump\t// out\n        /* \"#utility.yul\":10102:10521   */\n    tag_153:\n        /* \"#utility.yul\":10268:10272   */\n      0x00\n        /* \"#utility.yul\":10306:10308   */\n      0x20\n        /* \"#utility.yul\":10295:10304   */\n      dup3\n        /* \"#utility.yul\":10291:10309   */\n      add\n        /* \"#utility.yul\":10283:10309   */\n      swap1\n      pop\n        /* \"#utility.yul\":10355:10364   */\n      dup2\n        /* \"#utility.yul\":10349:10353   */\n      dup2\n        /* \"#utility.yul\":10345:10365   */\n      sub\n        /* \"#utility.yul\":10341:10342   */\n      0x00\n        /* \"#utility.yul\":10330:10339   */\n      dup4\n        /* \"#utility.yul\":10326:10343   */\n      add\n        /* \"#utility.yul\":10319:10366   */\n      mstore\n        /* \"#utility.yul\":10383:10514   */\n      tag_299\n        /* \"#utility.yul\":10509:10513   */\n      dup2\n        /* \"#utility.yul\":10383:10514   */\n      tag_202\n      jump\t// in\n    tag_299:\n        /* \"#utility.yul\":10375:10514   */\n      swap1\n      pop\n        /* \"#utility.yul\":10102:10521   */\n      swap2\n      swap1\n      pop\n      jump\t// out\n        /* \"#utility.yul\":10527:10707   */\n    tag_203:\n        /* \"#utility.yul\":10575:10652   */\n      0x4e487b7100000000000000000000000000000000000000000000000000000000\n        /* \"#utility.yul\":10572:10573   */\n      0x00\n        /* \"#utility.yul\":10565:10653   */\n      mstore\n        /* \"#utility.yul\":10672:10676   */\n      0x11\n        /* \"#utility.yul\":10669:10670   */\n      0x04\n        /* \"#utility.yul\":10662:10677   */\n      mstore\n        /* \"#utility.yul\":10696:10700   */\n      0x24\n        /* \"#utility.yul\":10693:10694   */\n      0x00\n        /* \"#utility.yul\":10686:10701   */\n      revert\n        /* \"#utility.yul\":10713:10904   */\n    tag_164:\n        /* \"#utility.yul\":10753:10756   */\n      0x00\n        /* \"#utility.yul\":10772:10792   */\n      tag_302\n        /* \"#utility.yul\":10790:10791   */\n      dup3\n        /* \"#utility.yul\":10772:10792   */\n      tag_185\n      jump\t// in\n    tag_302:\n        /* \"#utility.yul\":10767:10792   */\n      swap2\n      pop\n        /* \"#utility.yul\":10806:10826   */\n      tag_303\n        /* \"#utility.yul\":10824:10825   */\n      dup4\n        /* \"#utility.yul\":10806:10826   */\n      tag_185\n      jump\t// in\n    tag_303:\n        /* \"#utility.yul\":10801:10826   */\n      swap3\n      pop\n        /* \"#utility.yul\":10849:10850   */\n      dup3\n        /* \"#utility.yul\":10846:10847   */\n      dup3\n        /* \"#utility.yul\":10842:10851   */\n      add\n        /* \"#utility.yul\":10835:10851   */\n      swap1\n      pop\n        /* \"#utility.yul\":10870:10873   */\n      dup1\n        /* \"#utility.yul\":10867:10868   */\n      dup3\n        /* \"#utility.yul\":10864:10874   */\n      gt\n        /* \"#utility.yul\":10861:10897   */\n      iszero\n      tag_304\n      jumpi\n        /* \"#utility.yul\":10877:10895   */\n      tag_305\n      tag_203\n      jump\t// in\n    tag_305:\n        /* \"#utility.yul\":10861:10897   */\n    tag_304:\n        /* \"#utility.yul\":10713:10904   */\n      swap3\n      swap2\n      pop\n      pop\n      jump\t// out\n    stop\n    data_4107e8a8b9e94bf8ff83080ddec1c0bffe897ebc2241b89d44f66b3d274088b6 45524332303a207472616e7366657220616d6f756e7420657863656564732062616c616e6365\n    data_974d1b4421da69cc60b481194f0dad36a5bb4e23da810da7a7fb30cdba178330 45524332303a207472616e7366657220616d6f756e74206578636565647320616c6c6f77616e6365\n    data_f8b476f7d28209d77d4a4ac1fe36b9f8259aa1bb6bddfa6e89de7e51615cf8a8 45524332303a2064656372656173656420616c6c6f77616e63652062656c6f77207a65726f\n\n    auxdata: 0xa2646970667358221220a179b07eb341cb645fb4689d57b775f67f88d0d7d2a4c907609b3f0bf83bb23264736f6c634300081a0033\n}\n","bytecode":{"linkReferences":{},"object":"60806040526040516120b23803806120b283398181016040528101906100259190610667565b335f73ffffffffffffffffffffffffffffffffffffffff168173ffffffffffffffffffffffffffffffffffffffff1603610096575f6040517f1e4fbdf700000000000000000000000000000000000000000000000000000000815260040161008d9190610737565b60405180910390fd5b6100a5816101c160201b60201c565b5085600390816100b59190610954565b5084600490816100c59190610954565b508360055f6101000a81548160ff021916908360ff1602179055506100fd6100f161028260201b60201c565b846102a960201b60201c565b3073ffffffffffffffffffffffffffffffffffffffff1661012261028260201b60201c565b73ffffffffffffffffffffffffffffffffffffffff167f56358b41df5fa59f5639228f0930994cbdde383c8a8fd74e06c04e1deebe35625f600160405161016a929190610aa5565b60405180910390a38173ffffffffffffffffffffffffffffffffffffffff166108fc8290811502906040515f60405180830381858888f193505050501580156101b5573d5f803e3d5ffd5b50505050505050610bbd565b5f805f9054906101000a900473ffffffffffffffffffffffffffffffffffffffff169050815f806101000a81548173ffffffffffffffffffffffffffffffffffffffff021916908373ffffffffffffffffffffffffffffffffffffffff1602179055508173ffffffffffffffffffffffffffffffffffffffff168173ffffffffffffffffffffffffffffffffffffffff167f8be0079c531659141344cd1fd0a4f28419497f9722a3daafe3b4186f6b6457e060405160405180910390a35050565b5f805f9054906101000a900473ffffffffffffffffffffffffffffffffffffffff16905090565b5f73ffffffffffffffffffffffffffffffffffffffff168273ffffffffffffffffffffffffffffffffffffffff1603610317576040517f08c379a000000000000000000000000000000000000000000000000000000000815260040161030e90610b26565b60405180910390fd5b6103285f838361043d60201b60201c565b61033d8160065461044260201b90919060201c565b6006819055506103938160015f8573ffffffffffffffffffffffffffffffffffffffff1673ffffffffffffffffffffffffffffffffffffffff1681526020019081526020015f205461044260201b90919060201c565b60015f8473ffffffffffffffffffffffffffffffffffffffff1673ffffffffffffffffffffffffffffffffffffffff1681526020019081526020015f20819055508173ffffffffffffffffffffffffffffffffffffffff165f73ffffffffffffffffffffffffffffffffffffffff167fddf252ad1be2c89b69c2b068fc378daa952ba7f163c4a11628f55a4df523b3ef836040516104319190610b44565b60405180910390a35050565b505050565b5f818361044f9190610b8a565b905092915050565b5f604051905090565b5f80fd5b5f80fd5b5f80fd5b5f80fd5b5f601f19601f8301169050919050565b7f4e487b71000000000000000000000000000000000000000000000000000000005f52604160045260245ffd5b6104b682610470565b810181811067ffffffffffffffff821117156104d5576104d4610480565b5b80604052505050565b5f6104e7610457565b90506104f382826104ad565b919050565b5f67ffffffffffffffff82111561051257610511610480565b5b61051b82610470565b9050602081019050919050565b8281835e5f83830152505050565b5f610548610543846104f8565b6104de565b9050828152602081018484840111156105645761056361046c565b5b61056f848285610528565b509392505050565b5f82601f83011261058b5761058a610468565b5b815161059b848260208601610536565b91505092915050565b5f60ff82169050919050565b6105b9816105a4565b81146105c3575f80fd5b50565b5f815190506105d4816105b0565b92915050565b5f819050919050565b6105ec816105da565b81146105f6575f80fd5b50565b5f81519050610607816105e3565b92915050565b5f73ffffffffffffffffffffffffffffffffffffffff82169050919050565b5f6106368261060d565b9050919050565b6106468161062c565b8114610650575f80fd5b50565b5f815190506106618161063d565b92915050565b5f805f805f8060c0878903121561068157610680610460565b5b5f87015167ffffffffffffffff81111561069e5761069d610464565b5b6106aa89828a01610577565b965050602087015167ffffffffffffffff8111156106cb576106ca610464565b5b6106d789828a01610577565b95505060406106e889828a016105c6565b94505060606106f989828a016105f9565b935050608061070a89828a01610653565b92505060a061071b89828a016105f9565b9150509295509295509295565b6107318161062c565b82525050565b5f60208201905061074a5f830184610728565b92915050565b5f81519050919050565b7f4e487b71000000000000000000000000000000000000000000000000000000005f52602260045260245ffd5b5f600282049050600182168061079e57607f821691505b6020821081036107b1576107b061075a565b5b50919050565b5f819050815f5260205f209050919050565b5f6020601f8301049050919050565b5f82821b905092915050565b5f600883026108137fffffffffffffffffffffffffffffffffffffffffffffffffffffffffffffffff826107d8565b61081d86836107d8565b95508019841693508086168417925050509392505050565b5f819050919050565b5f61085861085361084e846105da565b610835565b6105da565b9050919050565b5f819050919050565b6108718361083e565b61088561087d8261085f565b8484546107e4565b825550505050565b5f90565b61089961088d565b6108a4818484610868565b505050565b5b818110156108c7576108bc5f82610891565b6001810190506108aa565b5050565b601f82111561090c576108dd816107b7565b6108e6846107c9565b810160208510156108f5578190505b610909610901856107c9565b8301826108a9565b50505b505050565b5f82821c905092915050565b5f61092c5f1984600802610911565b1980831691505092915050565b5f610944838361091d565b9150826002028217905092915050565b61095d82610750565b67ffffffffffffffff81111561097657610975610480565b5b6109808254610787565b61098b8282856108cb565b5f60209050601f8311600181146109bc575f84156109aa578287015190505b6109b48582610939565b865550610a1b565b601f1984166109ca866107b7565b5f5b828110156109f1578489015182556001820191506020850194506020810190506109cc565b86831015610a0e5784890151610a0a601f89168261091d565b8355505b6001600288020188555050505b505050505050565b7f4e487b71000000000000000000000000000000000000000000000000000000005f52602160045260245ffd5b60088110610a6157610a60610a23565b5b50565b5f819050610a7182610a50565b919050565b5f610a8082610a64565b9050919050565b610a9081610a76565b82525050565b610a9f816105da565b82525050565b5f604082019050610ab85f830185610a87565b610ac56020830184610a96565b9392505050565b5f82825260208201905092915050565b7f45524332303a206d696e7420746f20746865207a65726f2061646472657373005f82015250565b5f610b10601f83610acc565b9150610b1b82610adc565b602082019050919050565b5f6020820190508181035f830152610b3d81610b04565b9050919050565b5f602082019050610b575f830184610a96565b92915050565b7f4e487b71000000000000000000000000000000000000000000000000000000005f52601160045260245ffd5b5f610b94826105da565b9150610b9f836105da565b9250828201905080821115610bb757610bb6610b5d565b5b92915050565b6114e880610bca5f395ff3fe608060405234801561000f575f80fd5b50600436106100f3575f3560e01c8063715018a611610095578063a9059cbb11610064578063a9059cbb14610287578063dd62ed3e146102b7578063f2fde38b146102e7578063ffa1ad7414610303576100f3565b8063715018a6146102115780638da5cb5b1461021b57806395d89b4114610239578063a457c2d714610257576100f3565b806323b872dd116100d157806323b872dd14610163578063313ce5671461019357806339509351146101b157806370a08231146101e1576100f3565b806306fdde03146100f7578063095ea7b31461011557806318160ddd14610145575b5f80fd5b6100ff610321565b60405161010c9190610eeb565b60405180910390f35b61012f600480360381019061012a9190610f9c565b6103b1565b60405161013c9190610ff4565b60405180910390f35b61014d6103ce565b60405161015a919061101c565b60405180910390f35b61017d60048036038101906101789190611035565b6103d7565b60405161018a9190610ff4565b60405180910390f35b61019b6104ab565b6040516101a891906110a0565b60405180910390f35b6101cb60048036038101906101c69190610f9c565b6104c0565b6040516101d89190610ff4565b60405180910390f35b6101fb60048036038101906101f691906110b9565b61056e565b604051610208919061101c565b60405180910390f35b6102196105b4565b005b6102236105c7565b60405161023091906110f3565b60405180910390f35b6102416105ee565b60405161024e9190610eeb565b60405180910390f35b610271600480360381019061026c9190610f9c565b61067e565b60405161027e9190610ff4565b60405180910390f35b6102a1600480360381019061029c9190610f9c565b610746565b6040516102ae9190610ff4565b60405180910390f35b6102d160048036038101906102cc919061110c565b610763565b6040516102de919061101c565b60405180910390f35b61030160048036038101906102fc91906110b9565b6107e5565b005b61030b610869565b604051610318919061101c565b60405180910390f35b60606003805461033090611177565b80601f016020809104026020016040519081016040528092919081815260200182805461035c90611177565b80156103a75780601f1061037e576101008083540402835291602001916103a7565b820191905f5260205f20905b81548152906001019060200180831161038a57829003601f168201915b5050505050905090565b5f6103c46103bd61086e565b8484610875565b6001905092915050565b5f600654905090565b5f6103e3848484610a38565b6104a0846103ef61086e565b61049b856040518060600160405280602881526020016114666028913960025f8b73ffffffffffffffffffffffffffffffffffffffff1673ffffffffffffffffffffffffffffffffffffffff1681526020019081526020015f205f61045261086e565b73ffffffffffffffffffffffffffffffffffffffff1673ffffffffffffffffffffffffffffffffffffffff1681526020019081526020015f2054610cc59092919063ffffffff16565b610875565b600190509392505050565b5f60055f9054906101000a900460ff16905090565b5f6105646104cc61086e565b8461055f8560025f6104dc61086e565b73ffffffffffffffffffffffffffffffffffffffff1673ffffffffffffffffffffffffffffffffffffffff1681526020019081526020015f205f8973ffffffffffffffffffffffffffffffffffffffff1673ffffffffffffffffffffffffffffffffffffffff1681526020019081526020015f2054610d1990919063ffffffff16565b610875565b6001905092915050565b5f60015f8373ffffffffffffffffffffffffffffffffffffffff1673ffffffffffffffffffffffffffffffffffffffff1681526020019081526020015f20549050919050565b6105bc610d2e565b6105c55f610db5565b565b5f805f9054906101000a900473ffffffffffffffffffffffffffffffffffffffff16905090565b6060600480546105fd90611177565b80601f016020809104026020016040519081016040528092919081815260200182805461062990611177565b80156106745780601f1061064b57610100808354040283529160200191610674565b820191905f5260205f20905b81548152906001019060200180831161065757829003601f168201915b5050505050905090565b5f61073c61068a61086e565b846107378560405180606001604052806025815260200161148e6025913960025f6106b361086e565b73ffffffffffffffffffffffffffffffffffffffff1673ffffffffffffffffffffffffffffffffffffffff1681526020019081526020015f205f8a73ffffffffffffffffffffffffffffffffffffffff1673ffffffffffffffffffffffffffffffffffffffff1681526020019081526020015f2054610cc59092919063ffffffff16565b610875565b6001905092915050565b5f61075961075261086e565b8484610a38565b6001905092915050565b5f60025f8473ffffffffffffffffffffffffffffffffffffffff1673ffffffffffffffffffffffffffffffffffffffff1681526020019081526020015f205f8373ffffffffffffffffffffffffffffffffffffffff1673ffffffffffffffffffffffffffffffffffffffff1681526020019081526020015f2054905092915050565b6107ed610d2e565b5f73ffffffffffffffffffffffffffffffffffffffff168173ffffffffffffffffffffffffffffffffffffffff160361085d575f6040517f1e4fbdf700000000000000000000000000000000000000000000000000000000815260040161085491906110f3565b60405180910390fd5b61086681610db5565b50565b600181565b5f33905090565b5f73ffffffffffffffffffffffffffffffffffffffff168373ffffffffffffffffffffffffffffffffffffffff16036108e3576040517f08c379a00000000000000000000000000000000000000000000000000000000081526004016108da90611217565b60405180910390fd5b5f73ffffffffffffffffffffffffffffffffffffffff168273ffffffffffffffffffffffffffffffffffffffff1603610951576040517f08c379a0000000000000000000000000000000000000000000000000000000008152600401610948906112a5565b60405180910390fd5b8060025f8573ffffffffffffffffffffffffffffffffffffffff1673ffffffffffffffffffffffffffffffffffffffff1681526020019081526020015f205f8473ffffffffffffffffffffffffffffffffffffffff1673ffffffffffffffffffffffffffffffffffffffff1681526020019081526020015f20819055508173ffffffffffffffffffffffffffffffffffffffff168373ffffffffffffffffffffffffffffffffffffffff167f8c5be1e5ebec7d5bd14f71427d1e84f3dd0314c0f7b2291e5b200ac8c7c3b92583604051610a2b919061101c565b60405180910390a3505050565b5f73ffffffffffffffffffffffffffffffffffffffff168373ffffffffffffffffffffffffffffffffffffffff1603610aa6576040517f08c379a0000000000000000000000000000000000000000000000000000000008152600401610a9d90611333565b60405180910390fd5b5f73ffffffffffffffffffffffffffffffffffffffff168273ffffffffffffffffffffffffffffffffffffffff1603610b14576040517f08c379a0000000000000000000000000000000000000000000000000000000008152600401610b0b906113c1565b60405180910390fd5b610b1f838383610e76565b610b89816040518060600160405280602681526020016114406026913960015f8773ffffffffffffffffffffffffffffffffffffffff1673ffffffffffffffffffffffffffffffffffffffff1681526020019081526020015f2054610cc59092919063ffffffff16565b60015f8573ffffffffffffffffffffffffffffffffffffffff1673ffffffffffffffffffffffffffffffffffffffff1681526020019081526020015f2081905550610c1a8160015f8573ffffffffffffffffffffffffffffffffffffffff1673ffffffffffffffffffffffffffffffffffffffff1681526020019081526020015f2054610d1990919063ffffffff16565b60015f8473ffffffffffffffffffffffffffffffffffffffff1673ffffffffffffffffffffffffffffffffffffffff1681526020019081526020015f20819055508173ffffffffffffffffffffffffffffffffffffffff168373ffffffffffffffffffffffffffffffffffffffff167fddf252ad1be2c89b69c2b068fc378daa952ba7f163c4a11628f55a4df523b3ef83604051610cb8919061101c565b60405180910390a3505050565b5f838311158290610d0c576040517f08c379a0000000000000000000000000000000000000000000000000000000008152600401610d039190610eeb565b60405180910390fd5b5082840390509392505050565b5f8183610d26919061140c565b905092915050565b610d3661086e565b73ffffffffffffffffffffffffffffffffffffffff16610d546105c7565b73ffffffffffffffffffffffffffffffffffffffff1614610db357610d7761086e565b6040517f118cdaa7000000000000000000000000000000000000000000000000000000008152600401610daa91906110f3565b60405180910390fd5b565b5f805f9054906101000a900473ffffffffffffffffffffffffffffffffffffffff169050815f806101000a81548173ffffffffffffffffffffffffffffffffffffffff021916908373ffffffffffffffffffffffffffffffffffffffff1602179055508173ffffffffffffffffffffffffffffffffffffffff168173ffffffffffffffffffffffffffffffffffffffff167f8be0079c531659141344cd1fd0a4f28419497f9722a3daafe3b4186f6b6457e060405160405180910390a35050565b505050565b5f81519050919050565b5f82825260208201905092915050565b8281835e5f83830152505050565b5f601f19601f8301169050919050565b5f610ebd82610e7b565b610ec78185610e85565b9350610ed7818560208601610e95565b610ee081610ea3565b840191505092915050565b5f6020820190508181035f830152610f038184610eb3565b905092915050565b5f80fd5b5f73ffffffffffffffffffffffffffffffffffffffff82169050919050565b5f610f3882610f0f565b9050919050565b610f4881610f2e565b8114610f52575f80fd5b50565b5f81359050610f6381610f3f565b92915050565b5f819050919050565b610f7b81610f69565b8114610f85575f80fd5b50565b5f81359050610f9681610f72565b92915050565b5f8060408385031215610fb257610fb1610f0b565b5b5f610fbf85828601610f55565b9250506020610fd085828601610f88565b9150509250929050565b5f8115159050919050565b610fee81610fda565b82525050565b5f6020820190506110075f830184610fe5565b92915050565b61101681610f69565b82525050565b5f60208201905061102f5f83018461100d565b92915050565b5f805f6060848603121561104c5761104b610f0b565b5b5f61105986828701610f55565b935050602061106a86828701610f55565b925050604061107b86828701610f88565b9150509250925092565b5f60ff82169050919050565b61109a81611085565b82525050565b5f6020820190506110b35f830184611091565b92915050565b5f602082840312156110ce576110cd610f0b565b5b5f6110db84828501610f55565b91505092915050565b6110ed81610f2e565b82525050565b5f6020820190506111065f8301846110e4565b92915050565b5f806040838503121561112257611121610f0b565b5b5f61112f85828601610f55565b925050602061114085828601610f55565b9150509250929050565b7f4e487b71000000000000000000000000000000000000000000000000000000005f52602260045260245ffd5b5f600282049050600182168061118e57607f821691505b6020821081036111a1576111a061114a565b5b50919050565b7f45524332303a20617070726f76652066726f6d20746865207a65726f206164645f8201527f7265737300000000000000000000000000000000000000000000000000000000602082015250565b5f611201602483610e85565b915061120c826111a7565b604082019050919050565b5f6020820190508181035f83015261122e816111f5565b9050919050565b7f45524332303a20617070726f766520746f20746865207a65726f2061646472655f8201527f7373000000000000000000000000000000000000000000000000000000000000602082015250565b5f61128f602283610e85565b915061129a82611235565b604082019050919050565b5f6020820190508181035f8301526112bc81611283565b9050919050565b7f45524332303a207472616e736665722066726f6d20746865207a65726f2061645f8201527f6472657373000000000000000000000000000000000000000000000000000000602082015250565b5f61131d602583610e85565b9150611328826112c3565b604082019050919050565b5f6020820190508181035f83015261134a81611311565b9050919050565b7f45524332303a207472616e7366657220746f20746865207a65726f20616464725f8201527f6573730000000000000000000000000000000000000000000000000000000000602082015250565b5f6113ab602383610e85565b91506113b682611351565b604082019050919050565b5f6020820190508181035f8301526113d88161139f565b9050919050565b7f4e487b71000000000000000000000000000000000000000000000000000000005f52601160045260245ffd5b5f61141682610f69565b915061142183610f69565b9250828201905080821115611439576114386113df565b5b9291505056fe45524332303a207472616e7366657220616d6f756e7420657863656564732062616c616e636545524332303a207472616e7366657220616d6f756e74206578636565647320616c6c6f77616e636545524332303a2064656372656173656420616c6c6f77616e63652062656c6f77207a65726fa2646970667358221220a179b07eb341cb645fb4689d57b775f67f88d0d7d2a4c907609b3f0bf83bb23264736f6c634300081a0033","opcodes":"PUSH1 0x80 PUSH1 0x40 MSTORE PUSH1 0x40 MLOAD PUSH2 0x20B2 CODESIZE SUB DUP1 PUSH2 0x20B2 DUP4 CODECOPY DUP2 DUP2 ADD PUSH1 0x40 MSTORE DUP2 ADD SWAP1 PUSH2 0x25 SWAP2 SWAP1 PUSH2 0x667 JUMP JUMPDEST CALLER PUSH0 PUSH20 0xFFFFFFFFFFFFFFFFFFFFFFFFFFFFFFFFFFFFFFFF AND DUP2 PUSH20 0xFFFFFFFFFFFFFFFFFFFFFFFFFFFFFFFFFFFFFFFF AND SUB PUSH2 0x96 JUMPI PUSH0 PUSH1 0x40 MLOAD PUSH32 0x1E4FBDF700000000000000000000000000000000000000000000000000000000 DUP2 MSTORE PUSH1 0x4 ADD PUSH2 0x8D SWAP2 SWAP1 PUSH2 0x737 JUMP JUMPDEST PUSH1 0x40 MLOAD DUP1 SWAP2 SUB SWAP1 REVERT JUMPDEST PUSH2 0xA5 DUP2 PUSH2 0x1C1 PUSH1 0x20 SHL PUSH1 0x20 SHR JUMP JUMPDEST POP DUP6 PUSH1 0x3 SWAP1 DUP2 PUSH2 0xB5 SWAP2 SWAP1 PUSH2 0x954 JUMP JUMPDEST POP DUP5 PUSH1 0x4 SWAP1 DUP2 PUSH2 0xC5 SWAP2 SWAP1 PUSH2 0x954 JUMP JUMPDEST POP DUP4 PUSH1 0x5 PUSH0 PUSH2 0x100 EXP DUP2 SLOAD DUP2 PUSH1 0xFF MUL NOT AND SWAP1 DUP4 PUSH1 0xFF AND MUL OR SWAP1 SSTORE POP PUSH2 0xFD PUSH2 0xF1 PUSH2 0x282 PUSH1 0x20 SHL PUSH1 0x20 SHR JUMP JUMPDEST DUP5 PUSH2 0x2A9 PUSH1 0x20 SHL PUSH1 0x20 SHR JUMP JUMPDEST ADDRESS PUSH20 0xFFFFFFFFFFFFFFFFFFFFFFFFFFFFFFFFFFFFFFFF AND PUSH2 0x122 PUSH2 0x282 PUSH1 0x20 SHL PUSH1 0x20 SHR JUMP JUMPDEST PUSH20 0xFFFFFFFFFFFFFFFFFFFFFFFFFFFFFFFFFFFFFFFF AND PUSH32 0x56358B41DF5FA59F5639228F0930994CBDDE383C8A8FD74E06C04E1DEEBE3562 PUSH0 PUSH1 0x1 PUSH1 0x40 MLOAD PUSH2 0x16A SWAP3 SWAP2 SWAP1 PUSH2 0xAA5 JUMP JUMPDEST PUSH1 0x40 MLOAD DUP1 SWAP2 SUB SWAP1 LOG3 DUP2 PUSH20 0xFFFFFFFFFFFFFFFFFFFFFFFFFFFFFFFFFFFFFFFF AND PUSH2 0x8FC DUP3 SWAP1 DUP2 ISZERO MUL SWAP1 PUSH1 0x40 MLOAD PUSH0 PUSH1 0x40 MLOAD DUP1 DUP4 SUB DUP2 DUP6 DUP9 DUP9 CALL SWAP4 POP POP POP POP ISZERO DUP1 ISZERO PUSH2 0x1B5 JUMPI RETURNDATASIZE PUSH0 DUP1 RETURNDATACOPY RETURNDATASIZE PUSH0 REVERT JUMPDEST POP POP POP POP POP POP POP PUSH2 0xBBD JUMP JUMPDEST PUSH0 DUP1 PUSH0 SWAP1 SLOAD SWAP1 PUSH2 0x100 EXP SWAP1 DIV PUSH20 0xFFFFFFFFFFFFFFFFFFFFFFFFFFFFFFFFFFFFFFFF AND SWAP1 POP DUP2 PUSH0 DUP1 PUSH2 0x100 EXP DUP2 SLOAD DUP2 PUSH20 0xFFFFFFFFFFFFFFFFFFFFFFFFFFFFFFFFFFFFFFFF MUL NOT AND SWAP1 DUP4 PUSH20 0xFFFFFFFFFFFFFFFFFFFFFFFFFFFFFFFFFFFFFFFF AND MUL OR SWAP1 SSTORE POP DUP2 PUSH20 0xFFFFFFFFFFFFFFFFFFFFFFFFFFFFFFFFFFFFFFFF AND DUP2 PUSH20 0xFFFFFFFFFFFFFFFFFFFFFFFFFFFFFFFFFFFFFFFF AND PUSH32 0x8BE0079C531659141344CD1FD0A4F28419497F9722A3DAAFE3B4186F6B6457E0 PUSH1 0x40 MLOAD PUSH1 0x40 MLOAD DUP1 SWAP2 SUB SWAP1 LOG3 POP POP JUMP JUMPDEST PUSH0 DUP1 PUSH0 SWAP1 SLOAD SWAP1 PUSH2 0x100 EXP SWAP1 DIV PUSH20 0xFFFFFFFFFFFFFFFFFFFFFFFFFFFFFFFFFFFFFFFF AND SWAP1 POP SWAP1 JUMP JUMPDEST PUSH0 PUSH20 0xFFFFFFFFFFFFFFFFFFFFFFFFFFFFFFFFFFFFFFFF AND DUP3 PUSH20 0xFFFFFFFFFFFFFFFFFFFFFFFFFFFFFFFFFFFFFFFF AND SUB PUSH2 0x317 JUMPI PUSH1 0x40 MLOAD PUSH32 0x8C379A000000000000000000000000000000000000000000000000000000000 DUP2 MSTORE PUSH1 0x4 ADD PUSH2 0x30E SWAP1 PUSH2 0xB26 JUMP JUMPDEST PUSH1 0x40 MLOAD DUP1 SWAP2 SUB SWAP1 REVERT JUMPDEST PUSH2 0x328 PUSH0 DUP4 DUP4 PUSH2 0x43D PUSH1 0x20 SHL PUSH1 0x20 SHR JUMP JUMPDEST PUSH2 0x33D DUP2 PUSH1 0x6 SLOAD PUSH2 0x442 PUSH1 0x20 SHL SWAP1 SWAP2 SWAP1 PUSH1 0x20 SHR JUMP JUMPDEST PUSH1 0x6 DUP2 SWAP1 SSTORE POP PUSH2 0x393 DUP2 PUSH1 0x1 PUSH0 DUP6 PUSH20 0xFFFFFFFFFFFFFFFFFFFFFFFFFFFFFFFFFFFFFFFF AND PUSH20 0xFFFFFFFFFFFFFFFFFFFFFFFFFFFFFFFFFFFFFFFF AND DUP2 MSTORE PUSH1 0x20 ADD SWAP1 DUP2 MSTORE PUSH1 0x20 ADD PUSH0 KECCAK256 SLOAD PUSH2 0x442 PUSH1 0x20 SHL SWAP1 SWAP2 SWAP1 PUSH1 0x20 SHR JUMP JUMPDEST PUSH1 0x1 PUSH0 DUP5 PUSH20 0xFFFFFFFFFFFFFFFFFFFFFFFFFFFFFFFFFFFFFFFF AND PUSH20 0xFFFFFFFFFFFFFFFFFFFFFFFFFFFFFFFFFFFFFFFF AND DUP2 MSTORE PUSH1 0x20 ADD SWAP1 DUP2 MSTORE PUSH1 0x20 ADD PUSH0 KECCAK256 DUP2 SWAP1 SSTORE POP DUP2 PUSH20 0xFFFFFFFFFFFFFFFFFFFFFFFFFFFFFFFFFFFFFFFF AND PUSH0 PUSH20 0xFFFFFFFFFFFFFFFFFFFFFFFFFFFFFFFFFFFFFFFF AND PUSH32 0xDDF252AD1BE2C89B69C2B068FC378DAA952BA7F163C4A11628F55A4DF523B3EF DUP4 PUSH1 0x40 MLOAD PUSH2 0x431 SWAP2 SWAP1 PUSH2 0xB44 JUMP JUMPDEST PUSH1 0x40 MLOAD DUP1 SWAP2 SUB SWAP1 LOG3 POP POP JUMP JUMPDEST POP POP POP JUMP JUMPDEST PUSH0 DUP2 DUP4 PUSH2 0x44F SWAP2 SWAP1 PUSH2 0xB8A JUMP JUMPDEST SWAP1 POP SWAP3 SWAP2 POP POP JUMP JUMPDEST PUSH0 PUSH1 0x40 MLOAD SWAP1 POP SWAP1 JUMP JUMPDEST PUSH0 DUP1 REVERT JUMPDEST PUSH0 DUP1 REVERT JUMPDEST PUSH0 DUP1 REVERT JUMPDEST PUSH0 DUP1 REVERT JUMPDEST PUSH0 PUSH1 0x1F NOT PUSH1 0x1F DUP4 ADD AND SWAP1 POP SWAP2 SWAP1 POP JUMP JUMPDEST PUSH32 0x4E487B7100000000000000000000000000000000000000000000000000000000 PUSH0 MSTORE PUSH1 0x41 PUSH1 0x4 MSTORE PUSH1 0x24 PUSH0 REVERT JUMPDEST PUSH2 0x4B6 DUP3 PUSH2 0x470 JUMP JUMPDEST DUP2 ADD DUP2 DUP2 LT PUSH8 0xFFFFFFFFFFFFFFFF DUP3 GT OR ISZERO PUSH2 0x4D5 JUMPI PUSH2 0x4D4 PUSH2 0x480 JUMP JUMPDEST JUMPDEST DUP1 PUSH1 0x40 MSTORE POP POP POP JUMP JUMPDEST PUSH0 PUSH2 0x4E7 PUSH2 0x457 JUMP JUMPDEST SWAP1 POP PUSH2 0x4F3 DUP3 DUP3 PUSH2 0x4AD JUMP JUMPDEST SWAP2 SWAP1 POP JUMP JUMPDEST PUSH0 PUSH8 0xFFFFFFFFFFFFFFFF DUP3 GT ISZERO PUSH2 0x512 JUMPI PUSH2 0x511 PUSH2 0x480 JUMP JUMPDEST JUMPDEST PUSH2 0x51B DUP3 PUSH2 0x470 JUMP JUMPDEST SWAP1 POP PUSH1 0x20 DUP2 ADD SWAP1 POP SWAP2 SWAP1 POP JUMP JUMPDEST DUP3 DUP2 DUP4 MCOPY PUSH0 DUP4 DUP4 ADD MSTORE POP POP POP JUMP JUMPDEST PUSH0 PUSH2 0x548 PUSH2 0x543 DUP5 PUSH2 0x4F8 JUMP JUMPDEST PUSH2 0x4DE JUMP JUMPDEST SWAP1 POP DUP3 DUP2 MSTORE PUSH1 0x20 DUP2 ADD DUP5 DUP5 DUP5 ADD GT ISZERO PUSH2 0x564 JUMPI PUSH2 0x563 PUSH2 0x46C JUMP JUMPDEST JUMPDEST PUSH2 0x56F DUP5 DUP3 DUP6 PUSH2 0x528 JUMP JUMPDEST POP SWAP4 SWAP3 POP POP POP JUMP JUMPDEST PUSH0 DUP3 PUSH1 0x1F DUP4 ADD SLT PUSH2 0x58B JUMPI PUSH2 0x58A PUSH2 0x468 JUMP JUMPDEST JUMPDEST DUP2 MLOAD PUSH2 0x59B DUP5 DUP3 PUSH1 0x20 DUP7 ADD PUSH2 0x536 JUMP JUMPDEST SWAP2 POP POP SWAP3 SWAP2 POP POP JUMP JUMPDEST PUSH0 PUSH1 0xFF DUP3 AND SWAP1 POP SWAP2 SWAP1 POP JUMP JUMPDEST PUSH2 0x5B9 DUP2 PUSH2 0x5A4 JUMP JUMPDEST DUP2 EQ PUSH2 0x5C3 JUMPI PUSH0 DUP1 REVERT JUMPDEST POP JUMP JUMPDEST PUSH0 DUP2 MLOAD SWAP1 POP PUSH2 0x5D4 DUP2 PUSH2 0x5B0 JUMP JUMPDEST SWAP3 SWAP2 POP POP JUMP JUMPDEST PUSH0 DUP2 SWAP1 POP SWAP2 SWAP1 POP JUMP JUMPDEST PUSH2 0x5EC DUP2 PUSH2 0x5DA JUMP JUMPDEST DUP2 EQ PUSH2 0x5F6 JUMPI PUSH0 DUP1 REVERT JUMPDEST POP JUMP JUMPDEST PUSH0 DUP2 MLOAD SWAP1 POP PUSH2 0x607 DUP2 PUSH2 0x5E3 JUMP JUMPDEST SWAP3 SWAP2 POP POP JUMP JUMPDEST PUSH0 PUSH20 0xFFFFFFFFFFFFFFFFFFFFFFFFFFFFFFFFFFFFFFFF DUP3 AND SWAP1 POP SWAP2 SWAP1 POP JUMP JUMPDEST PUSH0 PUSH2 0x636 DUP3 PUSH2 0x60D JUMP JUMPDEST SWAP1 POP SWAP2 SWAP1 POP JUMP JUMPDEST PUSH2 0x646 DUP2 PUSH2 0x62C JUMP JUMPDEST DUP2 EQ PUSH2 0x650 JUMPI PUSH0 DUP1 REVERT JUMPDEST POP JUMP JUMPDEST PUSH0 DUP2 MLOAD SWAP1 POP PUSH2 0x661 DUP2 PUSH2 0x63D JUMP JUMPDEST SWAP3 SWAP2 POP POP JUMP JUMPDEST PUSH0 DUP1 PUSH0 DUP1 PUSH0 DUP1 PUSH1 0xC0 DUP8 DUP10 SUB SLT ISZERO PUSH2 0x681 JUMPI PUSH2 0x680 PUSH2 0x460 JUMP JUMPDEST JUMPDEST PUSH0 DUP8 ADD MLOAD PUSH8 0xFFFFFFFFFFFFFFFF DUP2 GT ISZERO PUSH2 0x69E JUMPI PUSH2 0x69D PUSH2 0x464 JUMP JUMPDEST JUMPDEST PUSH2 0x6AA DUP10 DUP3 DUP11 ADD PUSH2 0x577 JUMP JUMPDEST SWAP7 POP POP PUSH1 0x20 DUP8 ADD MLOAD PUSH8 0xFFFFFFFFFFFFFFFF DUP2 GT ISZERO PUSH2 0x6CB JUMPI PUSH2 0x6CA PUSH2 0x464 JUMP JUMPDEST JUMPDEST PUSH2 0x6D7 DUP10 DUP3 DUP11 ADD PUSH2 0x577 JUMP JUMPDEST SWAP6 POP POP PUSH1 0x40 PUSH2 0x6E8 DUP10 DUP3 DUP11 ADD PUSH2 0x5C6 JUMP JUMPDEST SWAP5 POP POP PUSH1 0x60 PUSH2 0x6F9 DUP10 DUP3 DUP11 ADD PUSH2 0x5F9 JUMP JUMPDEST SWAP4 POP POP PUSH1 0x80 PUSH2 0x70A DUP10 DUP3 DUP11 ADD PUSH2 0x653 JUMP JUMPDEST SWAP3 POP POP PUSH1 0xA0 PUSH2 0x71B DUP10 DUP3 DUP11 ADD PUSH2 0x5F9 JUMP JUMPDEST SWAP2 POP POP SWAP3 SWAP6 POP SWAP3 SWAP6 POP SWAP3 SWAP6 JUMP JUMPDEST PUSH2 0x731 DUP2 PUSH2 0x62C JUMP JUMPDEST DUP3 MSTORE POP POP JUMP JUMPDEST PUSH0 PUSH1 0x20 DUP3 ADD SWAP1 POP PUSH2 0x74A PUSH0 DUP4 ADD DUP5 PUSH2 0x728 JUMP JUMPDEST SWAP3 SWAP2 POP POP JUMP JUMPDEST PUSH0 DUP2 MLOAD SWAP1 POP SWAP2 SWAP1 POP JUMP JUMPDEST PUSH32 0x4E487B7100000000000000000000000000000000000000000000000000000000 PUSH0 MSTORE PUSH1 0x22 PUSH1 0x4 MSTORE PUSH1 0x24 PUSH0 REVERT JUMPDEST PUSH0 PUSH1 0x2 DUP3 DIV SWAP1 POP PUSH1 0x1 DUP3 AND DUP1 PUSH2 0x79E JUMPI PUSH1 0x7F DUP3 AND SWAP2 POP JUMPDEST PUSH1 0x20 DUP3 LT DUP2 SUB PUSH2 0x7B1 JUMPI PUSH2 0x7B0 PUSH2 0x75A JUMP JUMPDEST JUMPDEST POP SWAP2 SWAP1 POP JUMP JUMPDEST PUSH0 DUP2 SWAP1 POP DUP2 PUSH0 MSTORE PUSH1 0x20 PUSH0 KECCAK256 SWAP1 POP SWAP2 SWAP1 POP JUMP JUMPDEST PUSH0 PUSH1 0x20 PUSH1 0x1F DUP4 ADD DIV SWAP1 POP SWAP2 SWAP1 POP JUMP JUMPDEST PUSH0 DUP3 DUP3 SHL SWAP1 POP SWAP3 SWAP2 POP POP JUMP JUMPDEST PUSH0 PUSH1 0x8 DUP4 MUL PUSH2 0x813 PUSH32 0xFFFFFFFFFFFFFFFFFFFFFFFFFFFFFFFFFFFFFFFFFFFFFFFFFFFFFFFFFFFFFFFF DUP3 PUSH2 0x7D8 JUMP JUMPDEST PUSH2 0x81D DUP7 DUP4 PUSH2 0x7D8 JUMP JUMPDEST SWAP6 POP DUP1 NOT DUP5 AND SWAP4 POP DUP1 DUP7 AND DUP5 OR SWAP3 POP POP POP SWAP4 SWAP3 POP POP POP JUMP JUMPDEST PUSH0 DUP2 SWAP1 POP SWAP2 SWAP1 POP JUMP JUMPDEST PUSH0 PUSH2 0x858 PUSH2 0x853 PUSH2 0x84E DUP5 PUSH2 0x5DA JUMP JUMPDEST PUSH2 0x835 JUMP JUMPDEST PUSH2 0x5DA JUMP JUMPDEST SWAP1 POP SWAP2 SWAP1 POP JUMP JUMPDEST PUSH0 DUP2 SWAP1 POP SWAP2 SWAP1 POP JUMP JUMPDEST PUSH2 0x871 DUP4 PUSH2 0x83E JUMP JUMPDEST PUSH2 0x885 PUSH2 0x87D DUP3 PUSH2 0x85F JUMP JUMPDEST DUP5 DUP5 SLOAD PUSH2 0x7E4 JUMP JUMPDEST DUP3 SSTORE POP POP POP POP JUMP JUMPDEST PUSH0 SWAP1 JUMP JUMPDEST PUSH2 0x899 PUSH2 0x88D JUMP JUMPDEST PUSH2 0x8A4 DUP2 DUP5 DUP5 PUSH2 0x868 JUMP JUMPDEST POP POP POP JUMP JUMPDEST JUMPDEST DUP2 DUP2 LT ISZERO PUSH2 0x8C7 JUMPI PUSH2 0x8BC PUSH0 DUP3 PUSH2 0x891 JUMP JUMPDEST PUSH1 0x1 DUP2 ADD SWAP1 POP PUSH2 0x8AA JUMP JUMPDEST POP POP JUMP JUMPDEST PUSH1 0x1F DUP3 GT ISZERO PUSH2 0x90C JUMPI PUSH2 0x8DD DUP2 PUSH2 0x7B7 JUMP JUMPDEST PUSH2 0x8E6 DUP5 PUSH2 0x7C9 JUMP JUMPDEST DUP2 ADD PUSH1 0x20 DUP6 LT ISZERO PUSH2 0x8F5 JUMPI DUP2 SWAP1 POP JUMPDEST PUSH2 0x909 PUSH2 0x901 DUP6 PUSH2 0x7C9 JUMP JUMPDEST DUP4 ADD DUP3 PUSH2 0x8A9 JUMP JUMPDEST POP POP JUMPDEST POP POP POP JUMP JUMPDEST PUSH0 DUP3 DUP3 SHR SWAP1 POP SWAP3 SWAP2 POP POP JUMP JUMPDEST PUSH0 PUSH2 0x92C PUSH0 NOT DUP5 PUSH1 0x8 MUL PUSH2 0x911 JUMP JUMPDEST NOT DUP1 DUP4 AND SWAP2 POP POP SWAP3 SWAP2 POP POP JUMP JUMPDEST PUSH0 PUSH2 0x944 DUP4 DUP4 PUSH2 0x91D JUMP JUMPDEST SWAP2 POP DUP3 PUSH1 0x2 MUL DUP3 OR SWAP1 POP SWAP3 SWAP2 POP POP JUMP JUMPDEST PUSH2 0x95D DUP3 PUSH2 0x750 JUMP JUMPDEST PUSH8 0xFFFFFFFFFFFFFFFF DUP2 GT ISZERO PUSH2 0x976 JUMPI PUSH2 0x975 PUSH2 0x480 JUMP JUMPDEST JUMPDEST PUSH2 0x980 DUP3 SLOAD PUSH2 0x787 JUMP JUMPDEST PUSH2 0x98B DUP3 DUP3 DUP6 PUSH2 0x8CB JUMP JUMPDEST PUSH0 PUSH1 0x20 SWAP1 POP PUSH1 0x1F DUP4 GT PUSH1 0x1 DUP2 EQ PUSH2 0x9BC JUMPI PUSH0 DUP5 ISZERO PUSH2 0x9AA JUMPI DUP3 DUP8 ADD MLOAD SWAP1 POP JUMPDEST PUSH2 0x9B4 DUP6 DUP3 PUSH2 0x939 JUMP JUMPDEST DUP7 SSTORE POP PUSH2 0xA1B JUMP JUMPDEST PUSH1 0x1F NOT DUP5 AND PUSH2 0x9CA DUP7 PUSH2 0x7B7 JUMP JUMPDEST PUSH0 JUMPDEST DUP3 DUP2 LT ISZERO PUSH2 0x9F1 JUMPI DUP5 DUP10 ADD MLOAD DUP3 SSTORE PUSH1 0x1 DUP3 ADD SWAP2 POP PUSH1 0x20 DUP6 ADD SWAP5 POP PUSH1 0x20 DUP2 ADD SWAP1 POP PUSH2 0x9CC JUMP JUMPDEST DUP7 DUP4 LT ISZERO PUSH2 0xA0E JUMPI DUP5 DUP10 ADD MLOAD PUSH2 0xA0A PUSH1 0x1F DUP10 AND DUP3 PUSH2 0x91D JUMP JUMPDEST DUP4 SSTORE POP JUMPDEST PUSH1 0x1 PUSH1 0x2 DUP9 MUL ADD DUP9 SSTORE POP POP POP JUMPDEST POP POP POP POP POP POP JUMP JUMPDEST PUSH32 0x4E487B7100000000000000000000000000000000000000000000000000000000 PUSH0 MSTORE PUSH1 0x21 PUSH1 0x4 MSTORE PUSH1 0x24 PUSH0 REVERT JUMPDEST PUSH1 0x8 DUP2 LT PUSH2 0xA61 JUMPI PUSH2 0xA60 PUSH2 0xA23 JUMP JUMPDEST JUMPDEST POP JUMP JUMPDEST PUSH0 DUP2 SWAP1 POP PUSH2 0xA71 DUP3 PUSH2 0xA50 JUMP JUMPDEST SWAP2 SWAP1 POP JUMP JUMPDEST PUSH0 PUSH2 0xA80 DUP3 PUSH2 0xA64 JUMP JUMPDEST SWAP1 POP SWAP2 SWAP1 POP JUMP JUMPDEST PUSH2 0xA90 DUP2 PUSH2 0xA76 JUMP JUMPDEST DUP3 MSTORE POP POP JUMP JUMPDEST PUSH2 0xA9F DUP2 PUSH2 0x5DA JUMP JUMPDEST DUP3 MSTORE POP POP JUMP JUMPDEST PUSH0 PUSH1 0x40 DUP3 ADD SWAP1 POP PUSH2 0xAB8 PUSH0 DUP4 ADD DUP6 PUSH2 0xA87 JUMP JUMPDEST PUSH2 0xAC5 PUSH1 0x20 DUP4 ADD DUP5 PUSH2 0xA96 JUMP JUMPDEST SWAP4 SWAP3 POP POP POP JUMP JUMPDEST PUSH0 DUP3 DUP3 MSTORE PUSH1 0x20 DUP3 ADD SWAP1 POP SWAP3 SWAP2 POP POP JUMP JUMPDEST PUSH32 0x45524332303A206D696E7420746F20746865207A65726F206164647265737300 PUSH0 DUP3 ADD MSTORE POP JUMP JUMPDEST PUSH0 PUSH2 0xB10 PUSH1 0x1F DUP4 PUSH2 0xACC JUMP JUMPDEST SWAP2 POP PUSH2 0xB1B DUP3 PUSH2 0xADC JUMP JUMPDEST PUSH1 0x20 DUP3 ADD SWAP1 POP SWAP2 SWAP1 POP JUMP JUMPDEST PUSH0 PUSH1 0x20 DUP3 ADD SWAP1 POP DUP2 DUP2 SUB PUSH0 DUP4 ADD MSTORE PUSH2 0xB3D DUP2 PUSH2 0xB04 JUMP JUMPDEST SWAP1 POP SWAP2 SWAP1 POP JUMP JUMPDEST PUSH0 PUSH1 0x20 DUP3 ADD SWAP1 POP PUSH2 0xB57 PUSH0 DUP4 ADD DUP5 PUSH2 0xA96 JUMP JUMPDEST SWAP3 SWAP2 POP POP JUMP JUMPDEST PUSH32 0x4E487B7100000000000000000000000000000000000000000000000000000000 PUSH0 MSTORE PUSH1 0x11 PUSH1 0x4 MSTORE PUSH1 0x24 PUSH0 REVERT JUMPDEST PUSH0 PUSH2 0xB94 DUP3 PUSH2 0x5DA JUMP JUMPDEST SWAP2 POP PUSH2 0xB9F DUP4 PUSH2 0x5DA JUMP JUMPDEST SWAP3 POP DUP3 DUP3 ADD SWAP1 POP DUP1 DUP3 GT ISZERO PUSH2 0xBB7 JUMPI PUSH2 0xBB6 PUSH2 0xB5D JUMP JUMPDEST JUMPDEST SWAP3 SWAP2 POP POP JUMP JUMPDEST PUSH2 0x14E8 DUP1 PUSH2 0xBCA PUSH0 CODECOPY PUSH0 RETURN INVALID PUSH1 0x80 PUSH1 0x40 MSTORE CALLVALUE DUP1 ISZERO PUSH2 0xF JUMPI PUSH0 DUP1 REVERT JUMPDEST POP PUSH1 0x4 CALLDATASIZE LT PUSH2 0xF3 JUMPI PUSH0 CALLDATALOAD PUSH1 0xE0 SHR DUP1 PUSH4 0x715018A6 GT PUSH2 0x95 JUMPI DUP1 PUSH4 0xA9059CBB GT PUSH2 0x64 JUMPI DUP1 PUSH4 0xA9059CBB EQ PUSH2 0x287 JUMPI DUP1 PUSH4 0xDD62ED3E EQ PUSH2 0x2B7 JUMPI DUP1 PUSH4 0xF2FDE38B EQ PUSH2 0x2E7 JUMPI DUP1 PUSH4 0xFFA1AD74 EQ PUSH2 0x303 JUMPI PUSH2 0xF3 JUMP JUMPDEST DUP1 PUSH4 0x715018A6 EQ PUSH2 0x211 JUMPI DUP1 PUSH4 0x8DA5CB5B EQ PUSH2 0x21B JUMPI DUP1 PUSH4 0x95D89B41 EQ PUSH2 0x239 JUMPI DUP1 PUSH4 0xA457C2D7 EQ PUSH2 0x257 JUMPI PUSH2 0xF3 JUMP JUMPDEST DUP1 PUSH4 0x23B872DD GT PUSH2 0xD1 JUMPI DUP1 PUSH4 0x23B872DD EQ PUSH2 0x163 JUMPI DUP1 PUSH4 0x313CE567 EQ PUSH2 0x193 JUMPI DUP1 PUSH4 0x39509351 EQ PUSH2 0x1B1 JUMPI DUP1 PUSH4 0x70A08231 EQ PUSH2 0x1E1 JUMPI PUSH2 0xF3 JUMP JUMPDEST DUP1 PUSH4 0x6FDDE03 EQ PUSH2 0xF7 JUMPI DUP1 PUSH4 0x95EA7B3 EQ PUSH2 0x115 JUMPI DUP1 PUSH4 0x18160DDD EQ PUSH2 0x145 JUMPI JUMPDEST PUSH0 DUP1 REVERT JUMPDEST PUSH2 0xFF PUSH2 0x321 JUMP JUMPDEST PUSH1 0x40 MLOAD PUSH2 0x10C SWAP2 SWAP1 PUSH2 0xEEB JUMP JUMPDEST PUSH1 0x40 MLOAD DUP1 SWAP2 SUB SWAP1 RETURN JUMPDEST PUSH2 0x12F PUSH1 0x4 DUP1 CALLDATASIZE SUB DUP2 ADD SWAP1 PUSH2 0x12A SWAP2 SWAP1 PUSH2 0xF9C JUMP JUMPDEST PUSH2 0x3B1 JUMP JUMPDEST PUSH1 0x40 MLOAD PUSH2 0x13C SWAP2 SWAP1 PUSH2 0xFF4 JUMP JUMPDEST PUSH1 0x40 MLOAD DUP1 SWAP2 SUB SWAP1 RETURN JUMPDEST PUSH2 0x14D PUSH2 0x3CE JUMP JUMPDEST PUSH1 0x40 MLOAD PUSH2 0x15A SWAP2 SWAP1 PUSH2 0x101C JUMP JUMPDEST PUSH1 0x40 MLOAD DUP1 SWAP2 SUB SWAP1 RETURN JUMPDEST PUSH2 0x17D PUSH1 0x4 DUP1 CALLDATASIZE SUB DUP2 ADD SWAP1 PUSH2 0x178 SWAP2 SWAP1 PUSH2 0x1035 JUMP JUMPDEST PUSH2 0x3D7 JUMP JUMPDEST PUSH1 0x40 MLOAD PUSH2 0x18A SWAP2 SWAP1 PUSH2 0xFF4 JUMP JUMPDEST PUSH1 0x40 MLOAD DUP1 SWAP2 SUB SWAP1 RETURN JUMPDEST PUSH2 0x19B PUSH2 0x4AB JUMP JUMPDEST PUSH1 0x40 MLOAD PUSH2 0x1A8 SWAP2 SWAP1 PUSH2 0x10A0 JUMP JUMPDEST PUSH1 0x40 MLOAD DUP1 SWAP2 SUB SWAP1 RETURN JUMPDEST PUSH2 0x1CB PUSH1 0x4 DUP1 CALLDATASIZE SUB DUP2 ADD SWAP1 PUSH2 0x1C6 SWAP2 SWAP1 PUSH2 0xF9C JUMP JUMPDEST PUSH2 0x4C0 JUMP JUMPDEST PUSH1 0x40 MLOAD PUSH2 0x1D8 SWAP2 SWAP1 PUSH2 0xFF4 JUMP JUMPDEST PUSH1 0x40 MLOAD DUP1 SWAP2 SUB SWAP1 RETURN JUMPDEST PUSH2 0x1FB PUSH1 0x4 DUP1 CALLDATASIZE SUB DUP2 ADD SWAP1 PUSH2 0x1F6 SWAP2 SWAP1 PUSH2 0x10B9 JUMP JUMPDEST PUSH2 0x56E JUMP JUMPDEST PUSH1 0x40 MLOAD PUSH2 0x208 SWAP2 SWAP1 PUSH2 0x101C JUMP JUMPDEST PUSH1 0x40 MLOAD DUP1 SWAP2 SUB SWAP1 RETURN JUMPDEST PUSH2 0x219 PUSH2 0x5B4 JUMP JUMPDEST STOP JUMPDEST PUSH2 0x223 PUSH2 0x5C7 JUMP JUMPDEST PUSH1 0x40 MLOAD PUSH2 0x230 SWAP2 SWAP1 PUSH2 0x10F3 JUMP JUMPDEST PUSH1 0x40 MLOAD DUP1 SWAP2 SUB SWAP1 RETURN JUMPDEST PUSH2 0x241 PUSH2 0x5EE JUMP JUMPDEST PUSH1 0x40 MLOAD PUSH2 0x24E SWAP2 SWAP1 PUSH2 0xEEB JUMP JUMPDEST PUSH1 0x40 MLOAD DUP1 SWAP2 SUB SWAP1 RETURN JUMPDEST PUSH2 0x271 PUSH1 0x4 DUP1 CALLDATASIZE SUB DUP2 ADD SWAP1 PUSH2 0x26C SWAP2 SWAP1 PUSH2 0xF9C JUMP JUMPDEST PUSH2 0x67E JUMP JUMPDEST PUSH1 0x40 MLOAD PUSH2 0x27E SWAP2 SWAP1 PUSH2 0xFF4 JUMP JUMPDEST PUSH1 0x40 MLOAD DUP1 SWAP2 SUB SWAP1 RETURN JUMPDEST PUSH2 0x2A1 PUSH1 0x4 DUP1 CALLDATASIZE SUB DUP2 ADD SWAP1 PUSH2 0x29C SWAP2 SWAP1 PUSH2 0xF9C JUMP JUMPDEST PUSH2 0x746 JUMP JUMPDEST PUSH1 0x40 MLOAD PUSH2 0x2AE SWAP2 SWAP1 PUSH2 0xFF4 JUMP JUMPDEST PUSH1 0x40 MLOAD DUP1 SWAP2 SUB SWAP1 RETURN JUMPDEST PUSH2 0x2D1 PUSH1 0x4 DUP1 CALLDATASIZE SUB DUP2 ADD SWAP1 PUSH2 0x2CC SWAP2 SWAP1 PUSH2 0x110C JUMP JUMPDEST PUSH2 0x763 JUMP JUMPDEST PUSH1 0x40 MLOAD PUSH2 0x2DE SWAP2 SWAP1 PUSH2 0x101C JUMP JUMPDEST PUSH1 0x40 MLOAD DUP1 SWAP2 SUB SWAP1 RETURN JUMPDEST PUSH2 0x301 PUSH1 0x4 DUP1 CALLDATASIZE SUB DUP2 ADD SWAP1 PUSH2 0x2FC SWAP2 SWAP1 PUSH2 0x10B9 JUMP JUMPDEST PUSH2 0x7E5 JUMP JUMPDEST STOP JUMPDEST PUSH2 0x30B PUSH2 0x869 JUMP JUMPDEST PUSH1 0x40 MLOAD PUSH2 0x318 SWAP2 SWAP1 PUSH2 0x101C JUMP JUMPDEST PUSH1 0x40 MLOAD DUP1 SWAP2 SUB SWAP1 RETURN JUMPDEST PUSH1 0x60 PUSH1 0x3 DUP1 SLOAD PUSH2 0x330 SWAP1 PUSH2 0x1177 JUMP JUMPDEST DUP1 PUSH1 0x1F ADD PUSH1 0x20 DUP1 SWAP2 DIV MUL PUSH1 0x20 ADD PUSH1 0x40 MLOAD SWAP1 DUP2 ADD PUSH1 0x40 MSTORE DUP1 SWAP3 SWAP2 SWAP1 DUP2 DUP2 MSTORE PUSH1 0x20 ADD DUP3 DUP1 SLOAD PUSH2 0x35C SWAP1 PUSH2 0x1177 JUMP JUMPDEST DUP1 ISZERO PUSH2 0x3A7 JUMPI DUP1 PUSH1 0x1F LT PUSH2 0x37E JUMPI PUSH2 0x100 DUP1 DUP4 SLOAD DIV MUL DUP4 MSTORE SWAP2 PUSH1 0x20 ADD SWAP2 PUSH2 0x3A7 JUMP JUMPDEST DUP3 ADD SWAP2 SWAP1 PUSH0 MSTORE PUSH1 0x20 PUSH0 KECCAK256 SWAP1 JUMPDEST DUP2 SLOAD DUP2 MSTORE SWAP1 PUSH1 0x1 ADD SWAP1 PUSH1 0x20 ADD DUP1 DUP4 GT PUSH2 0x38A JUMPI DUP3 SWAP1 SUB PUSH1 0x1F AND DUP3 ADD SWAP2 JUMPDEST POP POP POP POP POP SWAP1 POP SWAP1 JUMP JUMPDEST PUSH0 PUSH2 0x3C4 PUSH2 0x3BD PUSH2 0x86E JUMP JUMPDEST DUP5 DUP5 PUSH2 0x875 JUMP JUMPDEST PUSH1 0x1 SWAP1 POP SWAP3 SWAP2 POP POP JUMP JUMPDEST PUSH0 PUSH1 0x6 SLOAD SWAP1 POP SWAP1 JUMP JUMPDEST PUSH0 PUSH2 0x3E3 DUP5 DUP5 DUP5 PUSH2 0xA38 JUMP JUMPDEST PUSH2 0x4A0 DUP5 PUSH2 0x3EF PUSH2 0x86E JUMP JUMPDEST PUSH2 0x49B DUP6 PUSH1 0x40 MLOAD DUP1 PUSH1 0x60 ADD PUSH1 0x40 MSTORE DUP1 PUSH1 0x28 DUP2 MSTORE PUSH1 0x20 ADD PUSH2 0x1466 PUSH1 0x28 SWAP2 CODECOPY PUSH1 0x2 PUSH0 DUP12 PUSH20 0xFFFFFFFFFFFFFFFFFFFFFFFFFFFFFFFFFFFFFFFF AND PUSH20 0xFFFFFFFFFFFFFFFFFFFFFFFFFFFFFFFFFFFFFFFF AND DUP2 MSTORE PUSH1 0x20 ADD SWAP1 DUP2 MSTORE PUSH1 0x20 ADD PUSH0 KECCAK256 PUSH0 PUSH2 0x452 PUSH2 0x86E JUMP JUMPDEST PUSH20 0xFFFFFFFFFFFFFFFFFFFFFFFFFFFFFFFFFFFFFFFF AND PUSH20 0xFFFFFFFFFFFFFFFFFFFFFFFFFFFFFFFFFFFFFFFF AND DUP2 MSTORE PUSH1 0x20 ADD SWAP1 DUP2 MSTORE PUSH1 0x20 ADD PUSH0 KECCAK256 SLOAD PUSH2 0xCC5 SWAP1 SWAP3 SWAP2 SWAP1 PUSH4 0xFFFFFFFF AND JUMP JUMPDEST PUSH2 0x875 JUMP JUMPDEST PUSH1 0x1 SWAP1 POP SWAP4 SWAP3 POP POP POP JUMP JUMPDEST PUSH0 PUSH1 0x5 PUSH0 SWAP1 SLOAD SWAP1 PUSH2 0x100 EXP SWAP1 DIV PUSH1 0xFF AND SWAP1 POP SWAP1 JUMP JUMPDEST PUSH0 PUSH2 0x564 PUSH2 0x4CC PUSH2 0x86E JUMP JUMPDEST DUP5 PUSH2 0x55F DUP6 PUSH1 0x2 PUSH0 PUSH2 0x4DC PUSH2 0x86E JUMP JUMPDEST PUSH20 0xFFFFFFFFFFFFFFFFFFFFFFFFFFFFFFFFFFFFFFFF AND PUSH20 0xFFFFFFFFFFFFFFFFFFFFFFFFFFFFFFFFFFFFFFFF AND DUP2 MSTORE PUSH1 0x20 ADD SWAP1 DUP2 MSTORE PUSH1 0x20 ADD PUSH0 KECCAK256 PUSH0 DUP10 PUSH20 0xFFFFFFFFFFFFFFFFFFFFFFFFFFFFFFFFFFFFFFFF AND PUSH20 0xFFFFFFFFFFFFFFFFFFFFFFFFFFFFFFFFFFFFFFFF AND DUP2 MSTORE PUSH1 0x20 ADD SWAP1 DUP2 MSTORE PUSH1 0x20 ADD PUSH0 KECCAK256 SLOAD PUSH2 0xD19 SWAP1 SWAP2 SWAP1 PUSH4 0xFFFFFFFF AND JUMP JUMPDEST PUSH2 0x875 JUMP JUMPDEST PUSH1 0x1 SWAP1 POP SWAP3 SWAP2 POP POP JUMP JUMPDEST PUSH0 PUSH1 0x1 PUSH0 DUP4 PUSH20 0xFFFFFFFFFFFFFFFFFFFFFFFFFFFFFFFFFFFFFFFF AND PUSH20 0xFFFFFFFFFFFFFFFFFFFFFFFFFFFFFFFFFFFFFFFF AND DUP2 MSTORE PUSH1 0x20 ADD SWAP1 DUP2 MSTORE PUSH1 0x20 ADD PUSH0 KECCAK256 SLOAD SWAP1 POP SWAP2 SWAP1 POP JUMP JUMPDEST PUSH2 0x5BC PUSH2 0xD2E JUMP JUMPDEST PUSH2 0x5C5 PUSH0 PUSH2 0xDB5 JUMP JUMPDEST JUMP JUMPDEST PUSH0 DUP1 PUSH0 SWAP1 SLOAD SWAP1 PUSH2 0x100 EXP SWAP1 DIV PUSH20 0xFFFFFFFFFFFFFFFFFFFFFFFFFFFFFFFFFFFFFFFF AND SWAP1 POP SWAP1 JUMP JUMPDEST PUSH1 0x60 PUSH1 0x4 DUP1 SLOAD PUSH2 0x5FD SWAP1 PUSH2 0x1177 JUMP JUMPDEST DUP1 PUSH1 0x1F ADD PUSH1 0x20 DUP1 SWAP2 DIV MUL PUSH1 0x20 ADD PUSH1 0x40 MLOAD SWAP1 DUP2 ADD PUSH1 0x40 MSTORE DUP1 SWAP3 SWAP2 SWAP1 DUP2 DUP2 MSTORE PUSH1 0x20 ADD DUP3 DUP1 SLOAD PUSH2 0x629 SWAP1 PUSH2 0x1177 JUMP JUMPDEST DUP1 ISZERO PUSH2 0x674 JUMPI DUP1 PUSH1 0x1F LT PUSH2 0x64B JUMPI PUSH2 0x100 DUP1 DUP4 SLOAD DIV MUL DUP4 MSTORE SWAP2 PUSH1 0x20 ADD SWAP2 PUSH2 0x674 JUMP JUMPDEST DUP3 ADD SWAP2 SWAP1 PUSH0 MSTORE PUSH1 0x20 PUSH0 KECCAK256 SWAP1 JUMPDEST DUP2 SLOAD DUP2 MSTORE SWAP1 PUSH1 0x1 ADD SWAP1 PUSH1 0x20 ADD DUP1 DUP4 GT PUSH2 0x657 JUMPI DUP3 SWAP1 SUB PUSH1 0x1F AND DUP3 ADD SWAP2 JUMPDEST POP POP POP POP POP SWAP1 POP SWAP1 JUMP JUMPDEST PUSH0 PUSH2 0x73C PUSH2 0x68A PUSH2 0x86E JUMP JUMPDEST DUP5 PUSH2 0x737 DUP6 PUSH1 0x40 MLOAD DUP1 PUSH1 0x60 ADD PUSH1 0x40 MSTORE DUP1 PUSH1 0x25 DUP2 MSTORE PUSH1 0x20 ADD PUSH2 0x148E PUSH1 0x25 SWAP2 CODECOPY PUSH1 0x2 PUSH0 PUSH2 0x6B3 PUSH2 0x86E JUMP JUMPDEST PUSH20 0xFFFFFFFFFFFFFFFFFFFFFFFFFFFFFFFFFFFFFFFF AND PUSH20 0xFFFFFFFFFFFFFFFFFFFFFFFFFFFFFFFFFFFFFFFF AND DUP2 MSTORE PUSH1 0x20 ADD SWAP1 DUP2 MSTORE PUSH1 0x20 ADD PUSH0 KECCAK256 PUSH0 DUP11 PUSH20 0xFFFFFFFFFFFFFFFFFFFFFFFFFFFFFFFFFFFFFFFF AND PUSH20 0xFFFFFFFFFFFFFFFFFFFFFFFFFFFFFFFFFFFFFFFF AND DUP2 MSTORE PUSH1 0x20 ADD SWAP1 DUP2 MSTORE PUSH1 0x20 ADD PUSH0 KECCAK256 SLOAD PUSH2 0xCC5 SWAP1 SWAP3 SWAP2 SWAP1 PUSH4 0xFFFFFFFF AND JUMP JUMPDEST PUSH2 0x875 JUMP JUMPDEST PUSH1 0x1 SWAP1 POP SWAP3 SWAP2 POP POP JUMP JUMPDEST PUSH0 PUSH2 0x759 PUSH2 0x752 PUSH2 0x86E JUMP JUMPDEST DUP5 DUP5 PUSH2 0xA38 JUMP JUMPDEST PUSH1 0x1 SWAP1 POP SWAP3 SWAP2 POP POP JUMP JUMPDEST PUSH0 PUSH1 0x2 PUSH0 DUP5 PUSH20 0xFFFFFFFFFFFFFFFFFFFFFFFFFFFFFFFFFFFFFFFF AND PUSH20 0xFFFFFFFFFFFFFFFFFFFFFFFFFFFFFFFFFFFFFFFF AND DUP2 MSTORE PUSH1 0x20 ADD SWAP1 DUP2 MSTORE PUSH1 0x20 ADD PUSH0 KECCAK256 PUSH0 DUP4 PUSH20 0xFFFFFFFFFFFFFFFFFFFFFFFFFFFFFFFFFFFFFFFF AND PUSH20 0xFFFFFFFFFFFFFFFFFFFFFFFFFFFFFFFFFFFFFFFF AND DUP2 MSTORE PUSH1 0x20 ADD SWAP1 DUP2 MSTORE PUSH1 0x20 ADD PUSH0 KECCAK256 SLOAD SWAP1 POP SWAP3 SWAP2 POP POP JUMP JUMPDEST PUSH2 0x7ED PUSH2 0xD2E JUMP JUMPDEST PUSH0 PUSH20 0xFFFFFFFFFFFFFFFFFFFFFFFFFFFFFFFFFFFFFFFF AND DUP2 PUSH20 0xFFFFFFFFFFFFFFFFFFFFFFFFFFFFFFFFFFFFFFFF AND SUB PUSH2 0x85D JUMPI PUSH0 PUSH1 0x40 MLOAD PUSH32 0x1E4FBDF700000000000000000000000000000000000000000000000000000000 DUP2 MSTORE PUSH1 0x4 ADD PUSH2 0x854 SWAP2 SWAP1 PUSH2 0x10F3 JUMP JUMPDEST PUSH1 0x40 MLOAD DUP1 SWAP2 SUB SWAP1 REVERT JUMPDEST PUSH2 0x866 DUP2 PUSH2 0xDB5 JUMP JUMPDEST POP JUMP JUMPDEST PUSH1 0x1 DUP2 JUMP JUMPDEST PUSH0 CALLER SWAP1 POP SWAP1 JUMP JUMPDEST PUSH0 PUSH20 0xFFFFFFFFFFFFFFFFFFFFFFFFFFFFFFFFFFFFFFFF AND DUP4 PUSH20 0xFFFFFFFFFFFFFFFFFFFFFFFFFFFFFFFFFFFFFFFF AND SUB PUSH2 0x8E3 JUMPI PUSH1 0x40 MLOAD PUSH32 0x8C379A000000000000000000000000000000000000000000000000000000000 DUP2 MSTORE PUSH1 0x4 ADD PUSH2 0x8DA SWAP1 PUSH2 0x1217 JUMP JUMPDEST PUSH1 0x40 MLOAD DUP1 SWAP2 SUB SWAP1 REVERT JUMPDEST PUSH0 PUSH20 0xFFFFFFFFFFFFFFFFFFFFFFFFFFFFFFFFFFFFFFFF AND DUP3 PUSH20 0xFFFFFFFFFFFFFFFFFFFFFFFFFFFFFFFFFFFFFFFF AND SUB PUSH2 0x951 JUMPI PUSH1 0x40 MLOAD PUSH32 0x8C379A000000000000000000000000000000000000000000000000000000000 DUP2 MSTORE PUSH1 0x4 ADD PUSH2 0x948 SWAP1 PUSH2 0x12A5 JUMP JUMPDEST PUSH1 0x40 MLOAD DUP1 SWAP2 SUB SWAP1 REVERT JUMPDEST DUP1 PUSH1 0x2 PUSH0 DUP6 PUSH20 0xFFFFFFFFFFFFFFFFFFFFFFFFFFFFFFFFFFFFFFFF AND PUSH20 0xFFFFFFFFFFFFFFFFFFFFFFFFFFFFFFFFFFFFFFFF AND DUP2 MSTORE PUSH1 0x20 ADD SWAP1 DUP2 MSTORE PUSH1 0x20 ADD PUSH0 KECCAK256 PUSH0 DUP5 PUSH20 0xFFFFFFFFFFFFFFFFFFFFFFFFFFFFFFFFFFFFFFFF AND PUSH20 0xFFFFFFFFFFFFFFFFFFFFFFFFFFFFFFFFFFFFFFFF AND DUP2 MSTORE PUSH1 0x20 ADD SWAP1 DUP2 MSTORE PUSH1 0x20 ADD PUSH0 KECCAK256 DUP2 SWAP1 SSTORE POP DUP2 PUSH20 0xFFFFFFFFFFFFFFFFFFFFFFFFFFFFFFFFFFFFFFFF AND DUP4 PUSH20 0xFFFFFFFFFFFFFFFFFFFFFFFFFFFFFFFFFFFFFFFF AND PUSH32 0x8C5BE1E5EBEC7D5BD14F71427D1E84F3DD0314C0F7B2291E5B200AC8C7C3B925 DUP4 PUSH1 0x40 MLOAD PUSH2 0xA2B SWAP2 SWAP1 PUSH2 0x101C JUMP JUMPDEST PUSH1 0x40 MLOAD DUP1 SWAP2 SUB SWAP1 LOG3 POP POP POP JUMP JUMPDEST PUSH0 PUSH20 0xFFFFFFFFFFFFFFFFFFFFFFFFFFFFFFFFFFFFFFFF AND DUP4 PUSH20 0xFFFFFFFFFFFFFFFFFFFFFFFFFFFFFFFFFFFFFFFF AND SUB PUSH2 0xAA6 JUMPI PUSH1 0x40 MLOAD PUSH32 0x8C379A000000000000000000000000000000000000000000000000000000000 DUP2 MSTORE PUSH1 0x4 ADD PUSH2 0xA9D SWAP1 PUSH2 0x1333 JUMP JUMPDEST PUSH1 0x40 MLOAD DUP1 SWAP2 SUB SWAP1 REVERT JUMPDEST PUSH0 PUSH20 0xFFFFFFFFFFFFFFFFFFFFFFFFFFFFFFFFFFFFFFFF AND DUP3 PUSH20 0xFFFFFFFFFFFFFFFFFFFFFFFFFFFFFFFFFFFFFFFF AND SUB PUSH2 0xB14 JUMPI PUSH1 0x40 MLOAD PUSH32 0x8C379A000000000000000000000000000000000000000000000000000000000 DUP2 MSTORE PUSH1 0x4 ADD PUSH2 0xB0B SWAP1 PUSH2 0x13C1 JUMP JUMPDEST PUSH1 0x40 MLOAD DUP1 SWAP2 SUB SWAP1 REVERT JUMPDEST PUSH2 0xB1F DUP4 DUP4 DUP4 PUSH2 0xE76 JUMP JUMPDEST PUSH2 0xB89 DUP2 PUSH1 0x40 MLOAD DUP1 PUSH1 0x60 ADD PUSH1 0x40 MSTORE DUP1 PUSH1 0x26 DUP2 MSTORE PUSH1 0x20 ADD PUSH2 0x1440 PUSH1 0x26 SWAP2 CODECOPY PUSH1 0x1 PUSH0 DUP8 PUSH20 0xFFFFFFFFFFFFFFFFFFFFFFFFFFFFFFFFFFFFFFFF AND PUSH20 0xFFFFFFFFFFFFFFFFFFFFFFFFFFFFFFFFFFFFFFFF AND DUP2 MSTORE PUSH1 0x20 ADD SWAP1 DUP2 MSTORE PUSH1 0x20 ADD PUSH0 KECCAK256 SLOAD PUSH2 0xCC5 SWAP1 SWAP3 SWAP2 SWAP1 PUSH4 0xFFFFFFFF AND JUMP JUMPDEST PUSH1 0x1 PUSH0 DUP6 PUSH20 0xFFFFFFFFFFFFFFFFFFFFFFFFFFFFFFFFFFFFFFFF AND PUSH20 0xFFFFFFFFFFFFFFFFFFFFFFFFFFFFFFFFFFFFFFFF AND DUP2 MSTORE PUSH1 0x20 ADD SWAP1 DUP2 MSTORE PUSH1 0x20 ADD PUSH0 KECCAK256 DUP2 SWAP1 SSTORE POP PUSH2 0xC1A DUP2 PUSH1 0x1 PUSH0 DUP6 PUSH20 0xFFFFFFFFFFFFFFFFFFFFFFFFFFFFFFFFFFFFFFFF AND PUSH20 0xFFFFFFFFFFFFFFFFFFFFFFFFFFFFFFFFFFFFFFFF AND DUP2 MSTORE PUSH1 0x20 ADD SWAP1 DUP2 MSTORE PUSH1 0x20 ADD PUSH0 KECCAK256 SLOAD PUSH2 0xD19 SWAP1 SWAP2 SWAP1 PUSH4 0xFFFFFFFF AND JUMP JUMPDEST PUSH1 0x1 PUSH0 DUP5 PUSH20 0xFFFFFFFFFFFFFFFFFFFFFFFFFFFFFFFFFFFFFFFF AND PUSH20 0xFFFFFFFFFFFFFFFFFFFFFFFFFFFFFFFFFFFFFFFF AND DUP2 MSTORE PUSH1 0x20 ADD SWAP1 DUP2 MSTORE PUSH1 0x20 ADD PUSH0 KECCAK256 DUP2 SWAP1 SSTORE POP DUP2 PUSH20 0xFFFFFFFFFFFFFFFFFFFFFFFFFFFFFFFFFFFFFFFF AND DUP4 PUSH20 0xFFFFFFFFFFFFFFFFFFFFFFFFFFFFFFFFFFFFFFFF AND PUSH32 0xDDF252AD1BE2C89B69C2B068FC378DAA952BA7F163C4A11628F55A4DF523B3EF DUP4 PUSH1 0x40 MLOAD PUSH2 0xCB8 SWAP2 SWAP1 PUSH2 0x101C JUMP JUMPDEST PUSH1 0x40 MLOAD DUP1 SWAP2 SUB SWAP1 LOG3 POP POP POP JUMP JUMPDEST PUSH0 DUP4 DUP4 GT ISZERO DUP3 SWAP1 PUSH2 0xD0C JUMPI PUSH1 0x40 MLOAD PUSH32 0x8C379A000000000000000000000000000000000000000000000000000000000 DUP2 MSTORE PUSH1 0x4 ADD PUSH2 0xD03 SWAP2 SWAP1 PUSH2 0xEEB JUMP JUMPDEST PUSH1 0x40 MLOAD DUP1 SWAP2 SUB SWAP1 REVERT JUMPDEST POP DUP3 DUP5 SUB SWAP1 POP SWAP4 SWAP3 POP POP POP JUMP JUMPDEST PUSH0 DUP2 DUP4 PUSH2 0xD26 SWAP2 SWAP1 PUSH2 0x140C JUMP JUMPDEST SWAP1 POP SWAP3 SWAP2 POP POP JUMP JUMPDEST PUSH2 0xD36 PUSH2 0x86E JUMP JUMPDEST PUSH20 0xFFFFFFFFFFFFFFFFFFFFFFFFFFFFFFFFFFFFFFFF AND PUSH2 0xD54 PUSH2 0x5C7 JUMP JUMPDEST PUSH20 0xFFFFFFFFFFFFFFFFFFFFFFFFFFFFFFFFFFFFFFFF AND EQ PUSH2 0xDB3 JUMPI PUSH2 0xD77 PUSH2 0x86E JUMP JUMPDEST PUSH1 0x40 MLOAD PUSH32 0x118CDAA700000000000000000000000000000000000000000000000000000000 DUP2 MSTORE PUSH1 0x4 ADD PUSH2 0xDAA SWAP2 SWAP1 PUSH2 0x10F3 JUMP JUMPDEST PUSH1 0x40 MLOAD DUP1 SWAP2 SUB SWAP1 REVERT JUMPDEST JUMP JUMPDEST PUSH0 DUP1 PUSH0 SWAP1 SLOAD SWAP1 PUSH2 0x100 EXP SWAP1 DIV PUSH20 0xFFFFFFFFFFFFFFFFFFFFFFFFFFFFFFFFFFFFFFFF AND SWAP1 POP DUP2 PUSH0 DUP1 PUSH2 0x100 EXP DUP2 SLOAD DUP2 PUSH20 0xFFFFFFFFFFFFFFFFFFFFFFFFFFFFFFFFFFFFFFFF MUL NOT AND SWAP1 DUP4 PUSH20 0xFFFFFFFFFFFFFFFFFFFFFFFFFFFFFFFFFFFFFFFF AND MUL OR SWAP1 SSTORE POP DUP2 PUSH20 0xFFFFFFFFFFFFFFFFFFFFFFFFFFFFFFFFFFFFFFFF AND DUP2 PUSH20 0xFFFFFFFFFFFFFFFFFFFFFFFFFFFFFFFFFFFFFFFF AND PUSH32 0x8BE0079C531659141344CD1FD0A4F28419497F9722A3DAAFE3B4186F6B6457E0 PUSH1 0x40 MLOAD PUSH1 0x40 MLOAD DUP1 SWAP2 SUB SWAP1 LOG3 POP POP JUMP JUMPDEST POP POP POP JUMP JUMPDEST PUSH0 DUP2 MLOAD SWAP1 POP SWAP2 SWAP1 POP JUMP JUMPDEST PUSH0 DUP3 DUP3 MSTORE PUSH1 0x20 DUP3 ADD SWAP1 POP SWAP3 SWAP2 POP POP JUMP JUMPDEST DUP3 DUP2 DUP4 MCOPY PUSH0 DUP4 DUP4 ADD MSTORE POP POP POP JUMP JUMPDEST PUSH0 PUSH1 0x1F NOT PUSH1 0x1F DUP4 ADD AND SWAP1 POP SWAP2 SWAP1 POP JUMP JUMPDEST PUSH0 PUSH2 0xEBD DUP3 PUSH2 0xE7B JUMP JUMPDEST PUSH2 0xEC7 DUP2 DUP6 PUSH2 0xE85 JUMP JUMPDEST SWAP4 POP PUSH2 0xED7 DUP2 DUP6 PUSH1 0x20 DUP7 ADD PUSH2 0xE95 JUMP JUMPDEST PUSH2 0xEE0 DUP2 PUSH2 0xEA3 JUMP JUMPDEST DUP5 ADD SWAP2 POP POP SWAP3 SWAP2 POP POP JUMP JUMPDEST PUSH0 PUSH1 0x20 DUP3 ADD SWAP1 POP DUP2 DUP2 SUB PUSH0 DUP4 ADD MSTORE PUSH2 0xF03 DUP2 DUP5 PUSH2 0xEB3 JUMP JUMPDEST SWAP1 POP SWAP3 SWAP2 POP POP JUMP JUMPDEST PUSH0 DUP1 REVERT JUMPDEST PUSH0 PUSH20 0xFFFFFFFFFFFFFFFFFFFFFFFFFFFFFFFFFFFFFFFF DUP3 AND SWAP1 POP SWAP2 SWAP1 POP JUMP JUMPDEST PUSH0 PUSH2 0xF38 DUP3 PUSH2 0xF0F JUMP JUMPDEST SWAP1 POP SWAP2 SWAP1 POP JUMP JUMPDEST PUSH2 0xF48 DUP2 PUSH2 0xF2E JUMP JUMPDEST DUP2 EQ PUSH2 0xF52 JUMPI PUSH0 DUP1 REVERT JUMPDEST POP JUMP JUMPDEST PUSH0 DUP2 CALLDATALOAD SWAP1 POP PUSH2 0xF63 DUP2 PUSH2 0xF3F JUMP JUMPDEST SWAP3 SWAP2 POP POP JUMP JUMPDEST PUSH0 DUP2 SWAP1 POP SWAP2 SWAP1 POP JUMP JUMPDEST PUSH2 0xF7B DUP2 PUSH2 0xF69 JUMP JUMPDEST DUP2 EQ PUSH2 0xF85 JUMPI PUSH0 DUP1 REVERT JUMPDEST POP JUMP JUMPDEST PUSH0 DUP2 CALLDATALOAD SWAP1 POP PUSH2 0xF96 DUP2 PUSH2 0xF72 JUMP JUMPDEST SWAP3 SWAP2 POP POP JUMP JUMPDEST PUSH0 DUP1 PUSH1 0x40 DUP4 DUP6 SUB SLT ISZERO PUSH2 0xFB2 JUMPI PUSH2 0xFB1 PUSH2 0xF0B JUMP JUMPDEST JUMPDEST PUSH0 PUSH2 0xFBF DUP6 DUP3 DUP7 ADD PUSH2 0xF55 JUMP JUMPDEST SWAP3 POP POP PUSH1 0x20 PUSH2 0xFD0 DUP6 DUP3 DUP7 ADD PUSH2 0xF88 JUMP JUMPDEST SWAP2 POP POP SWAP3 POP SWAP3 SWAP1 POP JUMP JUMPDEST PUSH0 DUP2 ISZERO ISZERO SWAP1 POP SWAP2 SWAP1 POP JUMP JUMPDEST PUSH2 0xFEE DUP2 PUSH2 0xFDA JUMP JUMPDEST DUP3 MSTORE POP POP JUMP JUMPDEST PUSH0 PUSH1 0x20 DUP3 ADD SWAP1 POP PUSH2 0x1007 PUSH0 DUP4 ADD DUP5 PUSH2 0xFE5 JUMP JUMPDEST SWAP3 SWAP2 POP POP JUMP JUMPDEST PUSH2 0x1016 DUP2 PUSH2 0xF69 JUMP JUMPDEST DUP3 MSTORE POP POP JUMP JUMPDEST PUSH0 PUSH1 0x20 DUP3 ADD SWAP1 POP PUSH2 0x102F PUSH0 DUP4 ADD DUP5 PUSH2 0x100D JUMP JUMPDEST SWAP3 SWAP2 POP POP JUMP JUMPDEST PUSH0 DUP1 PUSH0 PUSH1 0x60 DUP5 DUP7 SUB SLT ISZERO PUSH2 0x104C JUMPI PUSH2 0x104B PUSH2 0xF0B JUMP JUMPDEST JUMPDEST PUSH0 PUSH2 0x1059 DUP7 DUP3 DUP8 ADD PUSH2 0xF55 JUMP JUMPDEST SWAP4 POP POP PUSH1 0x20 PUSH2 0x106A DUP7 DUP3 DUP8 ADD PUSH2 0xF55 JUMP JUMPDEST SWAP3 POP POP PUSH1 0x40 PUSH2 0x107B DUP7 DUP3 DUP8 ADD PUSH2 0xF88 JUMP JUMPDEST SWAP2 POP POP SWAP3 POP SWAP3 POP SWAP3 JUMP JUMPDEST PUSH0 PUSH1 0xFF DUP3 AND SWAP1 POP SWAP2 SWAP1 POP JUMP JUMPDEST PUSH2 0x109A DUP2 PUSH2 0x1085 JUMP JUMPDEST DUP3 MSTORE POP POP JUMP JUMPDEST PUSH0 PUSH1 0x20 DUP3 ADD SWAP1 POP PUSH2 0x10B3 PUSH0 DUP4 ADD DUP5 PUSH2 0x1091 JUMP JUMPDEST SWAP3 SWAP2 POP POP JUMP JUMPDEST PUSH0 PUSH1 0x20 DUP3 DUP5 SUB SLT ISZERO PUSH2 0x10CE JUMPI PUSH2 0x10CD PUSH2 0xF0B JUMP JUMPDEST JUMPDEST PUSH0 PUSH2 0x10DB DUP5 DUP3 DUP6 ADD PUSH2 0xF55 JUMP JUMPDEST SWAP2 POP POP SWAP3 SWAP2 POP POP JUMP JUMPDEST PUSH2 0x10ED DUP2 PUSH2 0xF2E JUMP JUMPDEST DUP3 MSTORE POP POP JUMP JUMPDEST PUSH0 PUSH1 0x20 DUP3 ADD SWAP1 POP PUSH2 0x1106 PUSH0 DUP4 ADD DUP5 PUSH2 0x10E4 JUMP JUMPDEST SWAP3 SWAP2 POP POP JUMP JUMPDEST PUSH0 DUP1 PUSH1 0x40 DUP4 DUP6 SUB SLT ISZERO PUSH2 0x1122 JUMPI PUSH2 0x1121 PUSH2 0xF0B JUMP JUMPDEST JUMPDEST PUSH0 PUSH2 0x112F DUP6 DUP3 DUP7 ADD PUSH2 0xF55 JUMP JUMPDEST SWAP3 POP POP PUSH1 0x20 PUSH2 0x1140 DUP6 DUP3 DUP7 ADD PUSH2 0xF55 JUMP JUMPDEST SWAP2 POP POP SWAP3 POP SWAP3 SWAP1 POP JUMP JUMPDEST PUSH32 0x4E487B7100000000000000000000000000000000000000000000000000000000 PUSH0 MSTORE PUSH1 0x22 PUSH1 0x4 MSTORE PUSH1 0x24 PUSH0 REVERT JUMPDEST PUSH0 PUSH1 0x2 DUP3 DIV SWAP1 POP PUSH1 0x1 DUP3 AND DUP1 PUSH2 0x118E JUMPI PUSH1 0x7F DUP3 AND SWAP2 POP JUMPDEST PUSH1 0x20 DUP3 LT DUP2 SUB PUSH2 0x11A1 JUMPI PUSH2 0x11A0 PUSH2 0x114A JUMP JUMPDEST JUMPDEST POP SWAP2 SWAP1 POP JUMP JUMPDEST PUSH32 0x45524332303A20617070726F76652066726F6D20746865207A65726F20616464 PUSH0 DUP3 ADD MSTORE PUSH32 0x7265737300000000000000000000000000000000000000000000000000000000 PUSH1 0x20 DUP3 ADD MSTORE POP JUMP JUMPDEST PUSH0 PUSH2 0x1201 PUSH1 0x24 DUP4 PUSH2 0xE85 JUMP JUMPDEST SWAP2 POP PUSH2 0x120C DUP3 PUSH2 0x11A7 JUMP JUMPDEST PUSH1 0x40 DUP3 ADD SWAP1 POP SWAP2 SWAP1 POP JUMP JUMPDEST PUSH0 PUSH1 0x20 DUP3 ADD SWAP1 POP DUP2 DUP2 SUB PUSH0 DUP4 ADD MSTORE PUSH2 0x122E DUP2 PUSH2 0x11F5 JUMP JUMPDEST SWAP1 POP SWAP2 SWAP1 POP JUMP JUMPDEST PUSH32 0x45524332303A20617070726F766520746F20746865207A65726F206164647265 PUSH0 DUP3 ADD MSTORE PUSH32 0x7373000000000000000000000000000000000000000000000000000000000000 PUSH1 0x20 DUP3 ADD MSTORE POP JUMP JUMPDEST PUSH0 PUSH2 0x128F PUSH1 0x22 DUP4 PUSH2 0xE85 JUMP JUMPDEST SWAP2 POP PUSH2 0x129A DUP3 PUSH2 0x1235 JUMP JUMPDEST PUSH1 0x40 DUP3 ADD SWAP1 POP SWAP2 SWAP1 POP JUMP JUMPDEST PUSH0 PUSH1 0x20 DUP3 ADD SWAP1 POP DUP2 DUP2 SUB PUSH0 DUP4 ADD MSTORE PUSH2 0x12BC DUP2 PUSH2 0x1283 JUMP JUMPDEST SWAP1 POP SWAP2 SWAP1 POP JUMP JUMPDEST PUSH32 0x45524332303A207472616E736665722066726F6D20746865207A65726F206164 PUSH0 DUP3 ADD MSTORE PUSH32 0x6472657373000000000000000000000000000000000000000000000000000000 PUSH1 0x20 DUP3 ADD MSTORE POP JUMP JUMPDEST PUSH0 PUSH2 0x131D PUSH1 0x25 DUP4 PUSH2 0xE85 JUMP JUMPDEST SWAP2 POP PUSH2 0x1328 DUP3 PUSH2 0x12C3 JUMP JUMPDEST PUSH1 0x40 DUP3 ADD SWAP1 POP SWAP2 SWAP1 POP JUMP JUMPDEST PUSH0 PUSH1 0x20 DUP3 ADD SWAP1 POP DUP2 DUP2 SUB PUSH0 DUP4 ADD MSTORE PUSH2 0x134A DUP2 PUSH2 0x1311 JUMP JUMPDEST SWAP1 POP SWAP2 SWAP1 POP JUMP JUMPDEST PUSH32 0x45524332303A207472616E7366657220746F20746865207A65726F2061646472 PUSH0 DUP3 ADD MSTORE PUSH32 0x6573730000000000000000000000000000000000000000000000000000000000 PUSH1 0x20 DUP3 ADD MSTORE POP JUMP JUMPDEST PUSH0 PUSH2 0x13AB PUSH1 0x23 DUP4 PUSH2 0xE85 JUMP JUMPDEST SWAP2 POP PUSH2 0x13B6 DUP3 PUSH2 0x1351 JUMP JUMPDEST PUSH1 0x40 DUP3 ADD SWAP1 POP SWAP2 SWAP1 POP JUMP JUMPDEST PUSH0 PUSH1 0x20 DUP3 ADD SWAP1 POP DUP2 DUP2 SUB PUSH0 DUP4 ADD MSTORE PUSH2 0x13D8 DUP2 PUSH2 0x139F JUMP JUMPDEST SWAP1 POP SWAP2 SWAP1 POP JUMP JUMPDEST PUSH32 0x4E487B7100000000000000000000000000000000000000000000000000000000 PUSH0 MSTORE PUSH1 0x11 PUSH1 0x4 MSTORE PUSH1 0x24 PUSH0 REVERT JUMPDEST PUSH0 PUSH2 0x1416 DUP3 PUSH2 0xF69 JUMP JUMPDEST SWAP2 POP PUSH2 0x1421 DUP4 PUSH2 0xF69 JUMP JUMPDEST SWAP3 POP DUP3 DUP3 ADD SWAP1 POP DUP1 DUP3 GT ISZERO PUSH2 0x1439 JUMPI PUSH2 0x1438 PUSH2 0x13DF JUMP JUMPDEST JUMPDEST SWAP3 SWAP2 POP POP JUMP INVALID GASLIMIT MSTORE NUMBER ORIGIN ADDRESS GASPRICE KECCAK256 PUSH21 0x72616E7366657220616D6F756E7420657863656564 PUSH20 0x2062616C616E636545524332303A207472616E73 PUSH7 0x657220616D6F75 PUSH15 0x74206578636565647320616C6C6F77 PUSH2 0x6E63 PUSH6 0x45524332303A KECCAK256 PUSH5 0x6563726561 PUSH20 0x656420616C6C6F77616E63652062656C6F77207A PUSH6 0x726FA2646970 PUSH7 0x7358221220A179 0xB0 PUSH31 0xB341CB645FB4689D57B775F67F88D0D7D2A4C907609B3F0BF83BB23264736F PUSH13 0x634300081A0033000000000000 "},"gasEstimates":{"creation":{"codeDepositCost":"1070400","executionCost":"infinite","totalCost":"infinite"},"external":{"VERSION()":"413","allowance(address,address)":"infinite","approve(address,uint256)":"infinite","balanceOf(address)":"2918","decimals()":"2518","decreaseAllowance(address,uint256)":"infinite","increaseAllowance(address,uint256)":"infinite","name()":"infinite","owner()":"2560","renounceOwnership()":"infinite","symbol()":"infinite","totalSupply()":"2500","transfer(address,uint256)":"infinite","transferFrom(address,address,uint256)":"infinite","transferOwnership(address)":"infinite"},"internal":{"_approve(address,address,uint256)":"infinite","_beforeTokenTransfer(address,address,uint256)":"15","_burn(address,uint256)":"infinite","_mint(address,uint256)":"infinite","_setupDecimals(uint8)":"infinite","_transfer(address,address,uint256)":"infinite"}},"methodIdentifiers":{"VERSION()":"ffa1ad74","allowance(address,address)":"dd62ed3e","approve(address,uint256)":"095ea7b3","balanceOf(address)":"70a08231","decimals()":"313ce567","decreaseAllowance(address,uint256)":"a457c2d7","increaseAllowance(address,uint256)":"39509351","name()":"06fdde03","owner()":"8da5cb5b","renounceOwnership()":"715018a6","symbol()":"95d89b41","totalSupply()":"18160ddd","transfer(address,uint256)":"a9059cbb","transferFrom(address,address,uint256)":"23b872dd","transferOwnership(address)":"f2fde38b"}},"storageLayout":{"storage":[{"astId":112,"contract":"contracts/StandardToken_flattened.sol:StandardToken","label":"_owner","offset":0,"slot":"0","type":"t_address"},{"astId":601,"contract":"contracts/StandardToken_flattened.sol:StandardToken","label":"_balances","offset":0,"slot":"1","type":"t_mapping(t_address,t_uint256)"},{"astId":607,"contract":"contracts/StandardToken_flattened.sol:StandardToken","label":"_allowances","offset":0,"slot":"2","type":"t_mapping(t_address,t_mapping(t_address,t_uint256))"},{"astId":609,"contract":"contracts/StandardToken_flattened.sol:StandardToken","label":"_name","offset":0,"slot":"3","type":"t_string_storage"},{"astId":611,"contract":"contracts/StandardToken_flattened.sol:StandardToken","label":"_symbol","offset":0,"slot":"4","type":"t_string_storage"},{"astId":613,"contract":"contracts/StandardToken_flattened.sol:StandardToken","label":"_decimals","offset":0,"slot":"5","type":"t_uint8"},{"astId":615,"contract":"contracts/StandardToken_flattened.sol:StandardToken","label":"_totalSupply","offset":0,"slot":"6","type":"t_uint256"}],"types":{"t_address":{"encoding":"inplace","label":"address","numberOfBytes":"20"},"t_mapping(t_address,t_mapping(t_address,t_uint256))":{"encoding":"mapping","key":"t_address","label":"mapping(address => mapping(address => uint256))","numberOfBytes":"32","value":"t_mapping(t_address,t_uint256)"},"t_mapping(t_address,t_uint256)":{"encoding":"mapping","key":"t_address","label":"mapping(address => uint256)","numberOfBytes":"32","value":"t_uint256"},"t_string_storage":{"encoding":"bytes","label":"string","numberOfBytes":"32"},"t_uint256":{"encoding":"inplace","label":"uint256","numberOfBytes":"32"},"t_uint8":{"encoding":"inplace","label":"uint8","numberOfBytes":"1"}}},"userdoc":{"kind":"user","methods":{},"version":1}}}}